{
  "_format": "hh-sol-artifact-1",
  "contractName": "MerkleTree",
  "sourceName": "contracts/MerkleTree.sol",
  "abi": [
    {
      "inputs": [
        {
          "internalType": "uint32",
          "name": "_levels",
          "type": "uint32"
        },
        {
          "internalType": "address",
          "name": "_addr",
          "type": "address"
        }
      ],
      "stateMutability": "nonpayable",
      "type": "constructor"
    },
    {
      "anonymous": false,
      "inputs": [
        {
          "indexed": false,
          "internalType": "string",
          "name": "message",
          "type": "string"
        },
        {
          "indexed": false,
          "internalType": "uint256",
          "name": "value1",
          "type": "uint256"
        },
        {
          "indexed": false,
          "internalType": "uint256",
          "name": "value2",
          "type": "uint256"
        }
      ],
      "name": "Debug",
      "type": "event"
    },
    {
      "anonymous": false,
      "inputs": [
        {
          "indexed": false,
          "internalType": "string",
          "name": "message",
          "type": "string"
        },
        {
          "indexed": false,
          "internalType": "address",
          "name": "value",
          "type": "address"
        }
      ],
      "name": "DebugAddr",
      "type": "event"
    },
    {
      "inputs": [],
      "name": "FIELD_SIZE",
      "outputs": [
        {
          "internalType": "uint256",
          "name": "",
          "type": "uint256"
        }
      ],
      "stateMutability": "view",
      "type": "function"
    },
    {
      "inputs": [],
      "name": "ROOT_HISTORY_SIZE",
      "outputs": [
        {
          "internalType": "uint32",
          "name": "",
          "type": "uint32"
        }
      ],
      "stateMutability": "view",
      "type": "function"
    },
    {
      "inputs": [],
      "name": "ZERO_VALUE",
      "outputs": [
        {
          "internalType": "uint256",
          "name": "",
          "type": "uint256"
        }
      ],
      "stateMutability": "view",
      "type": "function"
    },
    {
      "inputs": [],
      "name": "currentRootIndex",
      "outputs": [
        {
          "internalType": "uint32",
          "name": "",
          "type": "uint32"
        }
      ],
      "stateMutability": "view",
      "type": "function"
    },
    {
      "inputs": [
        {
          "internalType": "uint256",
          "name": "",
          "type": "uint256"
        }
      ],
      "name": "filledSubtrees",
      "outputs": [
        {
          "internalType": "bytes32",
          "name": "",
          "type": "bytes32"
        }
      ],
      "stateMutability": "view",
      "type": "function"
    },
    {
      "inputs": [],
      "name": "getLastRoot",
      "outputs": [
        {
          "internalType": "bytes32",
          "name": "",
          "type": "bytes32"
        }
      ],
      "stateMutability": "view",
      "type": "function"
    },
    {
      "inputs": [
        {
          "internalType": "uint256",
          "name": "_left",
          "type": "uint256"
        },
        {
          "internalType": "uint256",
          "name": "_right",
          "type": "uint256"
        }
      ],
      "name": "hashLeftRight",
      "outputs": [
        {
          "internalType": "bytes32",
          "name": "",
          "type": "bytes32"
        }
      ],
      "stateMutability": "view",
      "type": "function"
    },
    {
      "inputs": [],
      "name": "hasher",
      "outputs": [
        {
          "internalType": "contract IHasher",
          "name": "",
          "type": "address"
        }
      ],
      "stateMutability": "view",
      "type": "function"
    },
    {
      "inputs": [],
      "name": "hasherAddr",
      "outputs": [
        {
          "internalType": "address",
          "name": "",
          "type": "address"
        }
      ],
      "stateMutability": "view",
      "type": "function"
    },
    {
      "inputs": [
        {
          "internalType": "bytes32",
          "name": "_root",
          "type": "bytes32"
        }
      ],
      "name": "isKnownRoot",
      "outputs": [
        {
          "internalType": "bool",
          "name": "",
          "type": "bool"
        }
      ],
      "stateMutability": "view",
      "type": "function"
    },
    {
      "inputs": [],
      "name": "levels",
      "outputs": [
        {
          "internalType": "uint32",
          "name": "",
          "type": "uint32"
        }
      ],
      "stateMutability": "view",
      "type": "function"
    },
    {
      "inputs": [],
      "name": "nextIndex",
      "outputs": [
        {
          "internalType": "uint32",
          "name": "",
          "type": "uint32"
        }
      ],
      "stateMutability": "view",
      "type": "function"
    },
    {
      "inputs": [
        {
          "internalType": "uint256",
          "name": "",
          "type": "uint256"
        }
      ],
      "name": "roots",
      "outputs": [
        {
          "internalType": "bytes32",
          "name": "",
          "type": "bytes32"
        }
      ],
      "stateMutability": "view",
      "type": "function"
    },
    {
      "inputs": [
        {
          "internalType": "uint256",
          "name": "i",
          "type": "uint256"
        }
      ],
      "name": "zeros",
      "outputs": [
        {
          "internalType": "bytes32",
          "name": "",
          "type": "bytes32"
        }
      ],
      "stateMutability": "pure",
      "type": "function"
    }
  ],
  "bytecode": "0x60a06040526000600360006101000a81548163ffffffff021916908363ffffffff1602179055506000600360046101000a81548163ffffffff021916908363ffffffff16021790555034801561005457600080fd5b50604051612018380380612018833981810160405281019061007691906109ec565b60008263ffffffff16116100bf576040517f08c379a00000000000000000000000000000000000000000000000000000000081526004016100b690610aaf565b60405180910390fd5b60208263ffffffff1610610108576040517f08c379a00000000000000000000000000000000000000000000000000000000081526004016100ff90610b1b565b60405180910390fd5b816000806101000a81548163ffffffff021916908363ffffffff16021790555080600360086101000a81548173ffffffffffffffffffffffffffffffffffffffff021916908373ffffffffffffffffffffffffffffffffffffffff1602179055507f619c62393708f63887b9ff82e481dbe31792a4445225c39a9d31d2144bccafb4600360089054906101000a900473ffffffffffffffffffffffffffffffffffffffff166040516101ba9190610b96565b60405180910390a1600360089054906101000a900473ffffffffffffffffffffffffffffffffffffffff1673ffffffffffffffffffffffffffffffffffffffff1660808173ffffffffffffffffffffffffffffffffffffffff168152505060005b8263ffffffff168163ffffffff16101561026e576102448163ffffffff166102ae60201b60201c565b600160008363ffffffff16815260200190815260200160002081905550808060010191505061021b565b5061029060018361027f9190610bf3565b63ffffffff166102ae60201b60201c565b60026000808152602001908152602001600020819055505050610c97565b60008082036102e2577f2fe54c60d3acabf3343a35b6eba15db4821b340f76e741e2249685ed4899af6c60001b9050610948565b60018203610315577f256a6135777eee2fd26f54b8b7037a25439d5235caee224154186d2b8a52e31d60001b9050610948565b60028203610348577f1151949895e82ab19924de92c40a3d6f7bcb60d92b00504b8199613683f0c20060001b9050610948565b6003820361037b577f20121ee811489ff8d61f09fb89e313f14959a0f28bb428a20dba6b0b068b3bdb60001b9050610948565b600482036103ae577f0a89ca6ffa14cc462cfedb842c30ed221a50a3d6bf022a6a57dc82ab24c157c960001b9050610948565b600582036103e1577f24ca05c2b5cd42e890d6be94c68d0689f4f21c9cec9c0f13fe41d566dfb5495960001b9050610948565b60068203610414577f1ccb97c932565a92c60156bdba2d08f3bf1377464e025cee765679e604a7315c60001b9050610948565b60078203610447577f19156fbd7d1a8bf5cba8909367de1b624534ebab4f0f79e003bccdd1b182bdb460001b9050610948565b6008820361047a577f261af8c1f0912e465744641409f622d466c3920ac6e5ff37e36604cb11dfff8060001b9050610948565b600982036104ac577e58459724ff6ca5a1652fcbc3e82b93895cf08e975b19beab3f54c217d1c00760001b9050610948565b600a82036104df577f1f04ef20dee48d39984d8eabe768a70eafa6310ad20849d4573c3c40c2ad1e3060001b9050610948565b600b8203610512577f1bea3dec5dab51567ce7e200a30f7ba6d4276aeaa53e2686f962a46c66d511e560001b9050610948565b600c8203610545577f0ee0f941e2da4b9e31c3ca97a40d8fa9ce68d97c084177071b3cb46cd3372f0f60001b9050610948565b600d8203610578577f1ca9503e8935884501bbaf20be14eb4c46b89772c97b96e3b2ebf3a36a948bbd60001b9050610948565b600e82036105ab577f133a80e30697cd55d8f7d4b0965b7be24057ba5dc3da898ee2187232446cb10860001b9050610948565b600f82036105de577f13e6d8fc88839ed76e182c2a779af5b2c0da9dd18c90427a644f7e148a6253b660001b9050610948565b60108203610611577f1eb16b057a477f4bc8f572ea6bee39561098f78f15bfb3699dcbb7bd8db6185460001b9050610948565b60118203610644577f0da2cb16a1ceaabf1c16b838f7a9e3f2a3a3088d9e0a6debaa748114620696ea60001b9050610948565b60128203610677577f24a3b3d822420b14b5d8cb6c28a574f01e98ea9e940551d2ebd75cee12649f9d60001b9050610948565b601382036106aa577f198622acbd783d1b0d9064105b1fc8e4d8889de95c4c519b3f635809fe6afc0560001b9050610948565b601482036106dd577f29d7ed391256ccc3ea596c86e933b89ff339d25ea8ddced975ae2fe30b5296d460001b9050610948565b60158203610710577f19be59f2f0413ce78c0c3703a3a5451b1d7f39629fa33abd11548a76065b296760001b9050610948565b60168203610743577f1ff3f61797e538b70e619310d33f2a063e7eb59104e112e95738da1254dc345360001b9050610948565b60178203610776577f10c16ae9959cf8358980d9dd9616e48228737310a10e2b6b731c1a548f036c4860001b9050610948565b601882036107a9577f0ba433a63174a90ac20992e75e3095496812b652685b5e1a2eae0b1bf4e8fcd160001b9050610948565b601982036107dc577f019ddb9df2bc98d987d0dfeca9d2b643deafab8f7036562e627c3667266a044c60001b9050610948565b601a820361080f577f2d3c88b23175c5a5565db928414c66d1912b11acf974b2e644caaac04739ce9960001b9050610948565b601b8203610842577f2eab55f6ae4e66e32c5189eed5c470840863445760f5ed7e7b69b2a62600f35460001b9050610948565b601c8203610874577e2df37a2642621802383cf952bf4dd1f32e05433beeb1fd41031fb7eace979d60001b9050610948565b601d82036108a7577f104aeb41435db66c3e62feccc1d6f5d98d0a0ed75d1374db457cf462e3a1f42760001b9050610948565b601e82036108da577f1f3c6fd858e9a7d4b0d1f38e256a09d81d5a5e3c963987e2d4b814cfab7c6ebb60001b9050610948565b601f820361090d577f2c7a07d20dff79d01fecedc1134284a8d08436606c93693b67e333f671bf69cc60001b9050610948565b6040517f08c379a000000000000000000000000000000000000000000000000000000000815260040161093f90610c77565b60405180910390fd5b919050565b600080fd5b600063ffffffff82169050919050565b61096b81610952565b811461097657600080fd5b50565b60008151905061098881610962565b92915050565b600073ffffffffffffffffffffffffffffffffffffffff82169050919050565b60006109b98261098e565b9050919050565b6109c9816109ae565b81146109d457600080fd5b50565b6000815190506109e6816109c0565b92915050565b60008060408385031215610a0357610a0261094d565b5b6000610a1185828601610979565b9250506020610a22858286016109d7565b9150509250929050565b600082825260208201905092915050565b7f5f6c6576656c732073686f756c642062652067726561746572207468616e207a60008201527f65726f0000000000000000000000000000000000000000000000000000000000602082015250565b6000610a99602383610a2c565b9150610aa482610a3d565b604082019050919050565b60006020820190508181036000830152610ac881610a8c565b9050919050565b7f5f6c6576656c732073686f756c64206265206c657373207468616e2033320000600082015250565b6000610b05601e83610a2c565b9150610b1082610acf565b602082019050919050565b60006020820190508181036000830152610b3481610af8565b9050919050565b7f6861736865724164647200000000000000000000000000000000000000000000600082015250565b6000610b71600a83610a2c565b9150610b7c82610b3b565b602082019050919050565b610b90816109ae565b82525050565b60006040820190508181036000830152610baf81610b64565b9050610bbe6020830184610b87565b92915050565b7f4e487b7100000000000000000000000000000000000000000000000000000000600052601160045260246000fd5b6000610bfe82610952565b9150610c0983610952565b9250828203905063ffffffff811115610c2557610c24610bc4565b5b92915050565b7f496e646578206f7574206f6620626f756e647300000000000000000000000000600082015250565b6000610c61601383610a2c565b9150610c6c82610c2b565b602082019050919050565b60006020820190508181036000830152610c9081610c54565b9050919050565b608051611366610cb26000396000610d7201526113666000f3fe608060405234801561001057600080fd5b50600436106100ea5760003560e01c8063cd87a3b41161008c578063ec73295911610066578063ec73295914610263578063ed33639f14610281578063f178e47c1461029f578063fc7e9c6f146102cf576100ea565b8063cd87a3b4146101f7578063dcf5443f14610215578063e829558814610233576100ea565b80636d9833e3116100c85780636d9833e31461015b57806390eeb02b1461018b578063ba70f757146101a9578063c2b40ae4146101c7576100ea565b8063414a37ba146100ef5780634ecf518b1461010d5780635bb939951461012b575b600080fd5b6100f76102ed565b6040516101049190610ddb565b60405180910390f35b610115610311565b6040516101229190610e15565b60405180910390f35b61014560048036038101906101409190610e61565b610325565b6040516101529190610eba565b60405180910390f35b61017560048036038101906101709190610f01565b610584565b6040516101829190610f49565b60405180910390f35b610193610621565b6040516101a09190610e15565b60405180910390f35b6101b1610637565b6040516101be9190610eba565b60405180910390f35b6101e160048036038101906101dc9190610f64565b61066a565b6040516101ee9190610eba565b60405180910390f35b6101ff610682565b60405161020c9190610e15565b60405180910390f35b61021d610687565b60405161022a9190610fd2565b60405180910390f35b61024d60048036038101906102489190610f64565b6106ad565b60405161025a9190610eba565b60405180910390f35b61026b610d4c565b6040516102789190610ddb565b60405180910390f35b610289610d70565b604051610296919061104c565b60405180910390f35b6102b960048036038101906102b49190610f64565b610d94565b6040516102c69190610eba565b60405180910390f35b6102d7610dac565b6040516102e49190610e15565b60405180910390f35b7f30644e72e131a029b85045b68181585d2833e84879b9709143e1f593f000000181565b60008054906101000a900463ffffffff1681565b60007f30644e72e131a029b85045b68181585d2833e84879b9709143e1f593f00000018310610389576040517f08c379a0000000000000000000000000000000000000000000000000000000008152600401610380906110c4565b60405180910390fd5b7f30644e72e131a029b85045b68181585d2833e84879b9709143e1f593f000000182106103eb576040517f08c379a00000000000000000000000000000000000000000000000000000000081526004016103e290611156565b60405180910390fd5b60008390506000600360089054906101000a900473ffffffffffffffffffffffffffffffffffffffff1673ffffffffffffffffffffffffffffffffffffffff16633f1a1187838360006040518463ffffffff1660e01b8152600401610452939291906111b1565b6040805180830381865afa15801561046e573d6000803e3d6000fd5b505050506040513d601f19601f8201168201806040525081019061049291906111fd565b80925081935050507f30644e72e131a029b85045b68181585d2833e84879b9709143e1f593f0000001806104c9576104c861123d565b5b8483089150600360089054906101000a900473ffffffffffffffffffffffffffffffffffffffff1673ffffffffffffffffffffffffffffffffffffffff16633f1a1187838360006040518463ffffffff1660e01b815260040161052e939291906111b1565b6040805180830381865afa15801561054a573d6000803e3d6000fd5b505050506040513d601f19601f8201168201806040525081019061056e91906111fd565b80925081935050508160001b9250505092915050565b60008060001b8203610599576000905061061c565b6000600360009054906101000a900463ffffffff16905060008190505b600260008263ffffffff1681526020019081526020016000205484036105e15760019250505061061c565b60008163ffffffff16036105f457601e90505b80806105ff9061129b565b9150508163ffffffff168163ffffffff16036105b6576000925050505b919050565b600360009054906101000a900463ffffffff1681565b600060026000600360009054906101000a900463ffffffff1663ffffffff16815260200190815260200160002054905090565b60026020528060005260406000206000915090505481565b601e81565b600360089054906101000a900473ffffffffffffffffffffffffffffffffffffffff1681565b60008082036106e1577f2fe54c60d3acabf3343a35b6eba15db4821b340f76e741e2249685ed4899af6c60001b9050610d47565b60018203610714577f256a6135777eee2fd26f54b8b7037a25439d5235caee224154186d2b8a52e31d60001b9050610d47565b60028203610747577f1151949895e82ab19924de92c40a3d6f7bcb60d92b00504b8199613683f0c20060001b9050610d47565b6003820361077a577f20121ee811489ff8d61f09fb89e313f14959a0f28bb428a20dba6b0b068b3bdb60001b9050610d47565b600482036107ad577f0a89ca6ffa14cc462cfedb842c30ed221a50a3d6bf022a6a57dc82ab24c157c960001b9050610d47565b600582036107e0577f24ca05c2b5cd42e890d6be94c68d0689f4f21c9cec9c0f13fe41d566dfb5495960001b9050610d47565b60068203610813577f1ccb97c932565a92c60156bdba2d08f3bf1377464e025cee765679e604a7315c60001b9050610d47565b60078203610846577f19156fbd7d1a8bf5cba8909367de1b624534ebab4f0f79e003bccdd1b182bdb460001b9050610d47565b60088203610879577f261af8c1f0912e465744641409f622d466c3920ac6e5ff37e36604cb11dfff8060001b9050610d47565b600982036108ab577e58459724ff6ca5a1652fcbc3e82b93895cf08e975b19beab3f54c217d1c00760001b9050610d47565b600a82036108de577f1f04ef20dee48d39984d8eabe768a70eafa6310ad20849d4573c3c40c2ad1e3060001b9050610d47565b600b8203610911577f1bea3dec5dab51567ce7e200a30f7ba6d4276aeaa53e2686f962a46c66d511e560001b9050610d47565b600c8203610944577f0ee0f941e2da4b9e31c3ca97a40d8fa9ce68d97c084177071b3cb46cd3372f0f60001b9050610d47565b600d8203610977577f1ca9503e8935884501bbaf20be14eb4c46b89772c97b96e3b2ebf3a36a948bbd60001b9050610d47565b600e82036109aa577f133a80e30697cd55d8f7d4b0965b7be24057ba5dc3da898ee2187232446cb10860001b9050610d47565b600f82036109dd577f13e6d8fc88839ed76e182c2a779af5b2c0da9dd18c90427a644f7e148a6253b660001b9050610d47565b60108203610a10577f1eb16b057a477f4bc8f572ea6bee39561098f78f15bfb3699dcbb7bd8db6185460001b9050610d47565b60118203610a43577f0da2cb16a1ceaabf1c16b838f7a9e3f2a3a3088d9e0a6debaa748114620696ea60001b9050610d47565b60128203610a76577f24a3b3d822420b14b5d8cb6c28a574f01e98ea9e940551d2ebd75cee12649f9d60001b9050610d47565b60138203610aa9577f198622acbd783d1b0d9064105b1fc8e4d8889de95c4c519b3f635809fe6afc0560001b9050610d47565b60148203610adc577f29d7ed391256ccc3ea596c86e933b89ff339d25ea8ddced975ae2fe30b5296d460001b9050610d47565b60158203610b0f577f19be59f2f0413ce78c0c3703a3a5451b1d7f39629fa33abd11548a76065b296760001b9050610d47565b60168203610b42577f1ff3f61797e538b70e619310d33f2a063e7eb59104e112e95738da1254dc345360001b9050610d47565b60178203610b75577f10c16ae9959cf8358980d9dd9616e48228737310a10e2b6b731c1a548f036c4860001b9050610d47565b60188203610ba8577f0ba433a63174a90ac20992e75e3095496812b652685b5e1a2eae0b1bf4e8fcd160001b9050610d47565b60198203610bdb577f019ddb9df2bc98d987d0dfeca9d2b643deafab8f7036562e627c3667266a044c60001b9050610d47565b601a8203610c0e577f2d3c88b23175c5a5565db928414c66d1912b11acf974b2e644caaac04739ce9960001b9050610d47565b601b8203610c41577f2eab55f6ae4e66e32c5189eed5c470840863445760f5ed7e7b69b2a62600f35460001b9050610d47565b601c8203610c73577e2df37a2642621802383cf952bf4dd1f32e05433beeb1fd41031fb7eace979d60001b9050610d47565b601d8203610ca6577f104aeb41435db66c3e62feccc1d6f5d98d0a0ed75d1374db457cf462e3a1f42760001b9050610d47565b601e8203610cd9577f1f3c6fd858e9a7d4b0d1f38e256a09d81d5a5e3c963987e2d4b814cfab7c6ebb60001b9050610d47565b601f8203610d0c577f2c7a07d20dff79d01fecedc1134284a8d08436606c93693b67e333f671bf69cc60001b9050610d47565b6040517f08c379a0000000000000000000000000000000000000000000000000000000008152600401610d3e90611310565b60405180910390fd5b919050565b7f2fe54c60d3acabf3343a35b6eba15db4821b340f76e741e2249685ed4899af6c81565b7f000000000000000000000000000000000000000000000000000000000000000081565b60016020528060005260406000206000915090505481565b600360049054906101000a900463ffffffff1681565b6000819050919050565b610dd581610dc2565b82525050565b6000602082019050610df06000830184610dcc565b92915050565b600063ffffffff82169050919050565b610e0f81610df6565b82525050565b6000602082019050610e2a6000830184610e06565b92915050565b600080fd5b610e3e81610dc2565b8114610e4957600080fd5b50565b600081359050610e5b81610e35565b92915050565b60008060408385031215610e7857610e77610e30565b5b6000610e8685828601610e4c565b9250506020610e9785828601610e4c565b9150509250929050565b6000819050919050565b610eb481610ea1565b82525050565b6000602082019050610ecf6000830184610eab565b92915050565b610ede81610ea1565b8114610ee957600080fd5b50565b600081359050610efb81610ed5565b92915050565b600060208284031215610f1757610f16610e30565b5b6000610f2584828501610eec565b91505092915050565b60008115159050919050565b610f4381610f2e565b82525050565b6000602082019050610f5e6000830184610f3a565b92915050565b600060208284031215610f7a57610f79610e30565b5b6000610f8884828501610e4c565b91505092915050565b600073ffffffffffffffffffffffffffffffffffffffff82169050919050565b6000610fbc82610f91565b9050919050565b610fcc81610fb1565b82525050565b6000602082019050610fe76000830184610fc3565b92915050565b6000819050919050565b600061101261100d61100884610f91565b610fed565b610f91565b9050919050565b600061102482610ff7565b9050919050565b600061103682611019565b9050919050565b6110468161102b565b82525050565b6000602082019050611061600083018461103d565b92915050565b600082825260208201905092915050565b7f5f6c6566742073686f756c6420626520696e7369646520746865206669656c64600082015250565b60006110ae602083611067565b91506110b982611078565b602082019050919050565b600060208201905081810360008301526110dd816110a1565b9050919050565b7f5f72696768742073686f756c6420626520696e7369646520746865206669656c60008201527f6400000000000000000000000000000000000000000000000000000000000000602082015250565b6000611140602183611067565b915061114b826110e4565b604082019050919050565b6000602082019050818103600083015261116f81611133565b9050919050565b6000819050919050565b600061119b61119661119184611176565b610fed565b610dc2565b9050919050565b6111ab81611180565b82525050565b60006060820190506111c66000830186610dcc565b6111d36020830185610dcc565b6111e060408301846111a2565b949350505050565b6000815190506111f781610e35565b92915050565b6000806040838503121561121457611213610e30565b5b6000611222858286016111e8565b9250506020611233858286016111e8565b9150509250929050565b7f4e487b7100000000000000000000000000000000000000000000000000000000600052601260045260246000fd5b7f4e487b7100000000000000000000000000000000000000000000000000000000600052601160045260246000fd5b60006112a682610df6565b9150600082036112b9576112b861126c565b5b600182039050919050565b7f496e646578206f7574206f6620626f756e647300000000000000000000000000600082015250565b60006112fa601383611067565b9150611305826112c4565b602082019050919050565b60006020820190508181036000830152611329816112ed565b905091905056fea2646970667358221220a5e7ba9ef75b6712e7d3bd4906f7239a11c17f7b79b84fdf8fe4a6766ff2303564736f6c634300081b0033",
  "linkReferences": {},
  "deployedLinkReferences": {}
}