{
  "_format": "hh-sol-artifact-1",
  "contractName": "UserLib",
  "sourceName": "contracts/UserLib.sol",
  "abi": [
    {
      "inputs": [
        {
          "internalType": "uint256",
          "name": "_ASN",
          "type": "uint256"
        },
        {
          "internalType": "address",
          "name": "_address",
          "type": "address"
        }
      ],
      "name": "CreateUser",
      "outputs": [
        {
          "components": [
            {
              "internalType": "uint256",
              "name": "ASN",
              "type": "uint256"
            },
            {
              "internalType": "address",
              "name": "addr",
              "type": "address"
            },
            {
              "internalType": "uint256",
              "name": "ReportConflict",
              "type": "uint256"
            },
            {
              "internalType": "uint256",
              "name": "OnGoingVote",
              "type": "uint256"
            },
            {
              "internalType": "uint256",
              "name": "FinishedVote",
              "type": "uint256"
            }
          ],
          "internalType": "struct UserLib.User",
          "name": "",
          "type": "tuple"
        }
      ],
      "stateMutability": "pure",
      "type": "function"
    }
  ],
  "bytecode": "0x6102af610052600b82828239805160001a6073146045577f4e487b7100000000000000000000000000000000000000000000000000000000600052600060045260246000fd5b30600052607381538281f3fe73000000000000000000000000000000000000000030146080604052600436106100355760003560e01c806360cb182b1461003a575b600080fd5b610054600480360381019061004f9190610198565b61006a565b604051610061919061025e565b60405180910390f35b6100726100ba565b6040518060a001604052808481526020018373ffffffffffffffffffffffffffffffffffffffff16815260200160008152602001600081526020016000815250905092915050565b6040518060a0016040528060008152602001600073ffffffffffffffffffffffffffffffffffffffff1681526020016000815260200160008152602001600081525090565b600080fd5b6000819050919050565b61011781610104565b811461012257600080fd5b50565b6000813590506101348161010e565b92915050565b600073ffffffffffffffffffffffffffffffffffffffff82169050919050565b60006101658261013a565b9050919050565b6101758161015a565b811461018057600080fd5b50565b6000813590506101928161016c565b92915050565b600080604083850312156101af576101ae6100ff565b5b60006101bd85828601610125565b92505060206101ce85828601610183565b9150509250929050565b6101e181610104565b82525050565b6101f08161015a565b82525050565b60a08201600082015161020c60008501826101d8565b50602082015161021f60208501826101e7565b50604082015161023260408501826101d8565b50606082015161024560608501826101d8565b50608082015161025860808501826101d8565b50505050565b600060a08201905061027360008301846101f6565b9291505056fea2646970667358221220afea3db16b052d6de88753ace7506980498c99914179447d02eae09fc63fa7d264736f6c634300081b0033",
  "linkReferences": {},
  "deployedLinkReferences": {}
}