{
  "_format": "hh-sol-artifact-1",
  "contractName": "ConflictManager",
  "sourceName": "contracts/ConflictManager.sol",
  "abi": [
    {
      "inputs": [],
      "stateMutability": "nonpayable",
      "type": "constructor"
    },
    {
      "inputs": [
        {
          "internalType": "uint256",
          "name": "conflictID",
          "type": "uint256"
        },
        {
          "internalType": "address",
          "name": "newValidator",
          "type": "address"
        }
      ],
      "name": "changeValidator",
      "outputs": [],
      "stateMutability": "nonpayable",
      "type": "function"
    },
    {
      "inputs": [
        {
          "internalType": "uint256",
          "name": "conflictID",
          "type": "uint256"
        }
      ],
      "name": "confirmConflict",
      "outputs": [],
      "stateMutability": "nonpayable",
      "type": "function"
    },
    {
      "inputs": [],
      "name": "conflictCounter",
      "outputs": [
        {
          "internalType": "uint256",
          "name": "",
          "type": "uint256"
        }
      ],
      "stateMutability": "view",
      "type": "function"
    },
    {
      "inputs": [
        {
          "internalType": "uint256",
          "name": "",
          "type": "uint256"
        }
      ],
      "name": "conflicts",
      "outputs": [
        {
          "internalType": "uint256",
          "name": "ConflictID",
          "type": "uint256"
        },
        {
          "internalType": "string",
          "name": "IP_Prefix",
          "type": "string"
        },
        {
          "internalType": "address",
          "name": "Validator",
          "type": "address"
        },
        {
          "internalType": "address",
          "name": "Reporter",
          "type": "address"
        },
        {
          "internalType": "uint256",
          "name": "Status",
          "type": "uint256"
        },
        {
          "internalType": "uint256",
          "name": "Options",
          "type": "uint256"
        },
        {
          "internalType": "uint256",
          "name": "Result",
          "type": "uint256"
        }
      ],
      "stateMutability": "view",
      "type": "function"
    },
    {
      "inputs": [
        {
          "internalType": "uint256",
          "name": "conflictID",
          "type": "uint256"
        }
      ],
      "name": "getConflictByID",
      "outputs": [
        {
          "components": [
            {
              "internalType": "uint256",
              "name": "ConflictID",
              "type": "uint256"
            },
            {
              "internalType": "string",
              "name": "IP_Prefix",
              "type": "string"
            },
            {
              "internalType": "uint256[]",
              "name": "MOAS",
              "type": "uint256[]"
            },
            {
              "internalType": "address",
              "name": "Validator",
              "type": "address"
            },
            {
              "internalType": "address",
              "name": "Reporter",
              "type": "address"
            },
            {
              "internalType": "uint256[]",
              "name": "Voters",
              "type": "uint256[]"
            },
            {
              "internalType": "uint256",
              "name": "Status",
              "type": "uint256"
            },
            {
              "internalType": "uint256",
              "name": "Options",
              "type": "uint256"
            },
            {
              "internalType": "string[]",
              "name": "OptionNames",
              "type": "string[]"
            },
            {
              "internalType": "uint256",
              "name": "Result",
              "type": "uint256"
            }
          ],
          "internalType": "struct ConflictLib.Conflict",
          "name": "",
          "type": "tuple"
        }
      ],
      "stateMutability": "view",
      "type": "function"
    },
    {
      "inputs": [
        {
          "internalType": "uint256",
          "name": "conflictID",
          "type": "uint256"
        }
      ],
      "name": "getConflictResult",
      "outputs": [
        {
          "internalType": "uint256",
          "name": "",
          "type": "uint256"
        }
      ],
      "stateMutability": "view",
      "type": "function"
    },
    {
      "inputs": [
        {
          "internalType": "uint256",
          "name": "conflictID",
          "type": "uint256"
        }
      ],
      "name": "getConflictStatus",
      "outputs": [
        {
          "internalType": "uint256",
          "name": "",
          "type": "uint256"
        }
      ],
      "stateMutability": "view",
      "type": "function"
    },
    {
      "inputs": [
        {
          "internalType": "uint256",
          "name": "conflictID",
          "type": "uint256"
        }
      ],
      "name": "getOptions",
      "outputs": [
        {
          "internalType": "uint256",
          "name": "",
          "type": "uint256"
        }
      ],
      "stateMutability": "view",
      "type": "function"
    },
    {
      "inputs": [
        {
          "internalType": "uint256",
          "name": "conflictID",
          "type": "uint256"
        }
      ],
      "name": "getStatus",
      "outputs": [
        {
          "internalType": "uint256",
          "name": "",
          "type": "uint256"
        }
      ],
      "stateMutability": "view",
      "type": "function"
    },
    {
      "inputs": [
        {
          "internalType": "uint256",
          "name": "conflictID",
          "type": "uint256"
        }
      ],
      "name": "getVoterCount",
      "outputs": [
        {
          "internalType": "uint256",
          "name": "",
          "type": "uint256"
        }
      ],
      "stateMutability": "view",
      "type": "function"
    },
    {
      "inputs": [
        {
          "internalType": "uint256",
          "name": "conflictID",
          "type": "uint256"
        }
      ],
      "name": "getVoterIndices",
      "outputs": [
        {
          "internalType": "uint256[]",
          "name": "",
          "type": "uint256[]"
        }
      ],
      "stateMutability": "view",
      "type": "function"
    },
    {
      "inputs": [
        {
          "internalType": "address",
          "name": "_vro_contract",
          "type": "address"
        }
      ],
      "name": "initialize",
      "outputs": [],
      "stateMutability": "nonpayable",
      "type": "function"
    },
    {
      "inputs": [],
      "name": "isInitialized",
      "outputs": [
        {
          "internalType": "bool",
          "name": "",
          "type": "bool"
        }
      ],
      "stateMutability": "view",
      "type": "function"
    },
    {
      "inputs": [
        {
          "internalType": "uint256",
          "name": "conflictID",
          "type": "uint256"
        },
        {
          "internalType": "address",
          "name": "addr",
          "type": "address"
        }
      ],
      "name": "isValidator",
      "outputs": [
        {
          "internalType": "bool",
          "name": "",
          "type": "bool"
        }
      ],
      "stateMutability": "view",
      "type": "function"
    },
    {
      "inputs": [
        {
          "internalType": "uint256",
          "name": "conflictID",
          "type": "uint256"
        },
        {
          "internalType": "uint256[]",
          "name": "voters",
          "type": "uint256[]"
        }
      ],
      "name": "registerVoters",
      "outputs": [],
      "stateMutability": "nonpayable",
      "type": "function"
    },
    {
      "inputs": [
        {
          "internalType": "string",
          "name": "_IP_Prefix",
          "type": "string"
        },
        {
          "internalType": "uint256[]",
          "name": "_MOAS",
          "type": "uint256[]"
        },
        {
          "internalType": "address",
          "name": "validator",
          "type": "address"
        },
        {
          "internalType": "address",
          "name": "reporter",
          "type": "address"
        }
      ],
      "name": "reportConflict",
      "outputs": [
        {
          "internalType": "uint256",
          "name": "",
          "type": "uint256"
        },
        {
          "internalType": "uint256",
          "name": "",
          "type": "uint256"
        }
      ],
      "stateMutability": "nonpayable",
      "type": "function"
    },
    {
      "inputs": [
        {
          "internalType": "uint256",
          "name": "conflictID",
          "type": "uint256"
        },
        {
          "internalType": "uint256",
          "name": "option",
          "type": "uint256"
        }
      ],
      "name": "resolveConflict",
      "outputs": [],
      "stateMutability": "nonpayable",
      "type": "function"
    },
    {
      "inputs": [
        {
          "internalType": "uint256",
          "name": "conflictID",
          "type": "uint256"
        },
        {
          "internalType": "uint256",
          "name": "status",
          "type": "uint256"
        }
      ],
      "name": "updateStatus",
      "outputs": [],
      "stateMutability": "nonpayable",
      "type": "function"
    },
    {
      "inputs": [],
      "name": "vro_contract",
      "outputs": [
        {
          "internalType": "address",
          "name": "",
          "type": "address"
        }
      ],
      "stateMutability": "view",
      "type": "function"
    }
  ],
  "bytecode": "0x60a06040526000600155348015601457600080fd5b503373ffffffffffffffffffffffffffffffffffffffff1660808173ffffffffffffffffffffffffffffffffffffffff1681525050608051612ff9610064600039600061125a0152612ff96000f3fe608060405234801561001057600080fd5b50600436106101215760003560e01c806375580b01116100ad578063e2f3182911610071578063e2f3182914610346578063e4b7513214610362578063e92e5c341461037e578063f6a00b4f146103ae578063febd4266146103df57610121565b806375580b01146102905780638915b3fb146102c0578063b989e056146102f0578063c4d66de81461030c578063ce3d63771461032857610121565b8063392e53cd116100f4578063392e53cd146101ec578063407908f71461020a5780634b8b0859146102265780634daf175f146102425780635c622a0e1461026057610121565b806323f2a73f1461012657806324e16d7d1461015657806328459ce71461018c578063325b7138146101bc575b600080fd5b610140600480360381019061013b9190611cdf565b61040f565b60405161014d9190611d3a565b60405180910390f35b610170600480360381019061016b9190611d55565b610563565b6040516101839796959493929190611e30565b60405180910390f35b6101a660048036038101906101a19190611d55565b61066d565b6040516101b39190611ea6565b60405180910390f35b6101d660048036038101906101d19190611d55565b610772565b6040516101e39190612189565b60405180910390f35b6101f4610b74565b6040516102019190611d3a565b60405180910390f35b610224600480360381019061021f9190611cdf565b610b87565b005b610240600480360381019061023b9190611d55565b610cc5565b005b61024a610dc9565b60405161025791906121ab565b60405180910390f35b61027a60048036038101906102759190611d55565b610def565b6040516102879190611ea6565b60405180910390f35b6102aa60048036038101906102a59190611d55565b610ef4565b6040516102b79190611ea6565b60405180910390f35b6102da60048036038101906102d59190611d55565b610ff9565b6040516102e79190611ea6565b60405180910390f35b61030a6004803603810190610305919061230e565b6110fe565b005b6103266004803603810190610321919061236a565b611258565b005b610330611345565b60405161033d9190611ea6565b60405180910390f35b610360600480360381019061035b9190612397565b61134b565b005b61037c60048036038101906103779190612397565b61144f565b005b61039860048036038101906103939190611d55565b611553565b6040516103a59190611ea6565b60405180910390f35b6103c860048036038101906103c3919061248c565b61165b565b6040516103d692919061252b565b60405180910390f35b6103f960048036038101906103f49190611d55565b61193e565b60405161040691906125c3565b60405180910390f35b600060011515600260149054906101000a900460ff16151514610467576040517f08c379a000000000000000000000000000000000000000000000000000000000815260040161045e90612631565b60405180910390fd5b600260009054906101000a900473ffffffffffffffffffffffffffffffffffffffff1673ffffffffffffffffffffffffffffffffffffffff163373ffffffffffffffffffffffffffffffffffffffff16146104f7576040517f08c379a00000000000000000000000000000000000000000000000000000000081526004016104ee9061269d565b60405180910390fd5b8173ffffffffffffffffffffffffffffffffffffffff1660008085815260200190815260200160002060030160009054906101000a900473ffffffffffffffffffffffffffffffffffffffff1673ffffffffffffffffffffffffffffffffffffffff1614905092915050565b600060205280600052604060002060009150905080600001549080600101805461058c906126ec565b80601f01602080910402602001604051908101604052809291908181526020018280546105b8906126ec565b80156106055780601f106105da57610100808354040283529160200191610605565b820191906000526020600020905b8154815290600101906020018083116105e857829003601f168201915b5050505050908060030160009054906101000a900473ffffffffffffffffffffffffffffffffffffffff16908060040160009054906101000a900473ffffffffffffffffffffffffffffffffffffffff16908060060154908060070154908060090154905087565b600060011515600260149054906101000a900460ff161515146106c5576040517f08c379a00000000000000000000000000000000000000000000000000000000081526004016106bc90612631565b60405180910390fd5b600260009054906101000a900473ffffffffffffffffffffffffffffffffffffffff1673ffffffffffffffffffffffffffffffffffffffff163373ffffffffffffffffffffffffffffffffffffffff1614610755576040517f08c379a000000000000000000000000000000000000000000000000000000000815260040161074c9061269d565b60405180910390fd5b600080838152602001908152602001600020600601549050919050565b61077a611a91565b60011515600260149054906101000a900460ff161515146107d0576040517f08c379a00000000000000000000000000000000000000000000000000000000081526004016107c790612631565b60405180910390fd5b600260009054906101000a900473ffffffffffffffffffffffffffffffffffffffff1673ffffffffffffffffffffffffffffffffffffffff163373ffffffffffffffffffffffffffffffffffffffff1614610860576040517f08c379a00000000000000000000000000000000000000000000000000000000081526004016108579061269d565b60405180910390fd5b6000808381526020019081526020016000206040518061014001604052908160008201548152602001600182018054610898906126ec565b80601f01602080910402602001604051908101604052809291908181526020018280546108c4906126ec565b80156109115780601f106108e657610100808354040283529160200191610911565b820191906000526020600020905b8154815290600101906020018083116108f457829003601f168201915b505050505081526020016002820180548060200260200160405190810160405280929190818152602001828054801561096957602002820191906000526020600020905b815481526020019060010190808311610955575b505050505081526020016003820160009054906101000a900473ffffffffffffffffffffffffffffffffffffffff1673ffffffffffffffffffffffffffffffffffffffff1673ffffffffffffffffffffffffffffffffffffffff1681526020016004820160009054906101000a900473ffffffffffffffffffffffffffffffffffffffff1673ffffffffffffffffffffffffffffffffffffffff1673ffffffffffffffffffffffffffffffffffffffff16815260200160058201805480602002602001604051908101604052809291908181526020018280548015610a6d57602002820191906000526020600020905b815481526020019060010190808311610a59575b50505050508152602001600682015481526020016007820154815260200160088201805480602002602001604051908101604052809291908181526020016000905b82821015610b5b578382906000526020600020018054610ace906126ec565b80601f0160208091040260200160405190810160405280929190818152602001828054610afa906126ec565b8015610b475780601f10610b1c57610100808354040283529160200191610b47565b820191906000526020600020905b815481529060010190602001808311610b2a57829003601f168201915b505050505081526020019060010190610aaf565b5050505081526020016009820154815250509050919050565b600260149054906101000a900460ff1681565b60011515600260149054906101000a900460ff16151514610bdd576040517f08c379a0000000000000000000000000000000000000000000000000000000008152600401610bd490612631565b60405180910390fd5b600260009054906101000a900473ffffffffffffffffffffffffffffffffffffffff1673ffffffffffffffffffffffffffffffffffffffff163373ffffffffffffffffffffffffffffffffffffffff1614610c6d576040517f08c379a0000000000000000000000000000000000000000000000000000000008152600401610c649061269d565b60405180910390fd5b8060008084815260200190815260200160002060030160006101000a81548173ffffffffffffffffffffffffffffffffffffffff021916908373ffffffffffffffffffffffffffffffffffffffff1602179055505050565b60011515600260149054906101000a900460ff16151514610d1b576040517f08c379a0000000000000000000000000000000000000000000000000000000008152600401610d1290612631565b60405180910390fd5b600260009054906101000a900473ffffffffffffffffffffffffffffffffffffffff1673ffffffffffffffffffffffffffffffffffffffff163373ffffffffffffffffffffffffffffffffffffffff1614610dab576040517f08c379a0000000000000000000000000000000000000000000000000000000008152600401610da29061269d565b60405180910390fd5b60016000808381526020019081526020016000206006018190555050565b600260009054906101000a900473ffffffffffffffffffffffffffffffffffffffff1681565b600060011515600260149054906101000a900460ff16151514610e47576040517f08c379a0000000000000000000000000000000000000000000000000000000008152600401610e3e90612631565b60405180910390fd5b600260009054906101000a900473ffffffffffffffffffffffffffffffffffffffff1673ffffffffffffffffffffffffffffffffffffffff163373ffffffffffffffffffffffffffffffffffffffff1614610ed7576040517f08c379a0000000000000000000000000000000000000000000000000000000008152600401610ece9061269d565b60405180910390fd5b600080838152602001908152602001600020600601549050919050565b600060011515600260149054906101000a900460ff16151514610f4c576040517f08c379a0000000000000000000000000000000000000000000000000000000008152600401610f4390612631565b60405180910390fd5b600260009054906101000a900473ffffffffffffffffffffffffffffffffffffffff1673ffffffffffffffffffffffffffffffffffffffff163373ffffffffffffffffffffffffffffffffffffffff1614610fdc576040517f08c379a0000000000000000000000000000000000000000000000000000000008152600401610fd39061269d565b60405180910390fd5b600080838152602001908152602001600020600901549050919050565b600060011515600260149054906101000a900460ff16151514611051576040517f08c379a000000000000000000000000000000000000000000000000000000000815260040161104890612631565b60405180910390fd5b600260009054906101000a900473ffffffffffffffffffffffffffffffffffffffff1673ffffffffffffffffffffffffffffffffffffffff163373ffffffffffffffffffffffffffffffffffffffff16146110e1576040517f08c379a00000000000000000000000000000000000000000000000000000000081526004016110d89061269d565b60405180910390fd5b600080838152602001908152602001600020600701549050919050565b60011515600260149054906101000a900460ff16151514611154576040517f08c379a000000000000000000000000000000000000000000000000000000000815260040161114b90612631565b60405180910390fd5b600260009054906101000a900473ffffffffffffffffffffffffffffffffffffffff1673ffffffffffffffffffffffffffffffffffffffff163373ffffffffffffffffffffffffffffffffffffffff16146111e4576040517f08c379a00000000000000000000000000000000000000000000000000000000081526004016111db9061269d565b60405180910390fd5b60005b8151811015611253576000808481526020019081526020016000206005018282815181106112185761121761271d565b5b6020026020010151908060018154018082558091505060019003906000526020600020016000909190919091505580806001019150506111e7565b505050565b7f000000000000000000000000000000000000000000000000000000000000000073ffffffffffffffffffffffffffffffffffffffff163373ffffffffffffffffffffffffffffffffffffffff16146112e6576040517f08c379a00000000000000000000000000000000000000000000000000000000081526004016112dd90612798565b60405180910390fd5b80600260006101000a81548173ffffffffffffffffffffffffffffffffffffffff021916908373ffffffffffffffffffffffffffffffffffffffff1602179055506001600260146101000a81548160ff02191690831515021790555050565b60015481565b60011515600260149054906101000a900460ff161515146113a1576040517f08c379a000000000000000000000000000000000000000000000000000000000815260040161139890612631565b60405180910390fd5b600260009054906101000a900473ffffffffffffffffffffffffffffffffffffffff1673ffffffffffffffffffffffffffffffffffffffff163373ffffffffffffffffffffffffffffffffffffffff1614611431576040517f08c379a00000000000000000000000000000000000000000000000000000000081526004016114289061269d565b60405180910390fd5b80600080848152602001908152602001600020600601819055505050565b60011515600260149054906101000a900460ff161515146114a5576040517f08c379a000000000000000000000000000000000000000000000000000000000815260040161149c90612631565b60405180910390fd5b600260009054906101000a900473ffffffffffffffffffffffffffffffffffffffff1673ffffffffffffffffffffffffffffffffffffffff163373ffffffffffffffffffffffffffffffffffffffff1614611535576040517f08c379a000000000000000000000000000000000000000000000000000000000815260040161152c9061269d565b60405180910390fd5b80600080848152602001908152602001600020600901819055505050565b600060011515600260149054906101000a900460ff161515146115ab576040517f08c379a00000000000000000000000000000000000000000000000000000000081526004016115a290612631565b60405180910390fd5b600260009054906101000a900473ffffffffffffffffffffffffffffffffffffffff1673ffffffffffffffffffffffffffffffffffffffff163373ffffffffffffffffffffffffffffffffffffffff161461163b576040517f08c379a00000000000000000000000000000000000000000000000000000000081526004016116329061269d565b60405180910390fd5b600080838152602001908152602001600020600501805490509050919050565b60008060011515600260149054906101000a900460ff161515146116b4576040517f08c379a00000000000000000000000000000000000000000000000000000000081526004016116ab90612631565b60405180910390fd5b600260009054906101000a900473ffffffffffffffffffffffffffffffffffffffff1673ffffffffffffffffffffffffffffffffffffffff163373ffffffffffffffffffffffffffffffffffffffff1614611744576040517f08c379a000000000000000000000000000000000000000000000000000000000815260040161173b9061269d565b60405180910390fd5b60006001549050600073__$d7be5e2abc8878b48dd5d4384040bf85de$__63dd57169f838a8a8a8a6040518663ffffffff1660e01b815260040161178c9594939291906128b6565b600060405180830381865af41580156117a9573d6000803e3d6000fd5b505050506040513d6000823e3d601f19601f820116820180604052508101906117d29190612c99565b905060008160e0015190508160008085815260200190815260200160002060008201518160000155602082015181600101908161180f9190612e8e565b50604082015181600201908051906020019061182c929190611b10565b5060608201518160030160006101000a81548173ffffffffffffffffffffffffffffffffffffffff021916908373ffffffffffffffffffffffffffffffffffffffff16021790555060808201518160040160006101000a81548173ffffffffffffffffffffffffffffffffffffffff021916908373ffffffffffffffffffffffffffffffffffffffff16021790555060a08201518160050190805190602001906118d7929190611b10565b5060c0820151816006015560e08201518160070155610100820151816008019080519060200190611909929190611b5d565b506101208201518160090155905050600180546119269190612f8f565b60018190555082819450945050505094509492505050565b606060011515600260149054906101000a900460ff16151514611996576040517f08c379a000000000000000000000000000000000000000000000000000000000815260040161198d90612631565b60405180910390fd5b600260009054906101000a900473ffffffffffffffffffffffffffffffffffffffff1673ffffffffffffffffffffffffffffffffffffffff163373ffffffffffffffffffffffffffffffffffffffff1614611a26576040517f08c379a0000000000000000000000000000000000000000000000000000000008152600401611a1d9061269d565b60405180910390fd5b600080838152602001908152602001600020600501805480602002602001604051908101604052809291908181526020018280548015611a8557602002820191906000526020600020905b815481526020019060010190808311611a71575b50505050509050919050565b604051806101400160405280600081526020016060815260200160608152602001600073ffffffffffffffffffffffffffffffffffffffff168152602001600073ffffffffffffffffffffffffffffffffffffffff16815260200160608152602001600081526020016000815260200160608152602001600081525090565b828054828255906000526020600020908101928215611b4c579160200282015b82811115611b4b578251825591602001919060010190611b30565b5b509050611b599190611bb6565b5090565b828054828255906000526020600020908101928215611ba5579160200282015b82811115611ba4578251829081611b949190612e8e565b5091602001919060010190611b7d565b5b509050611bb29190611bd3565b5090565b5b80821115611bcf576000816000905550600101611bb7565b5090565b5b80821115611bf35760008181611bea9190611bf7565b50600101611bd4565b5090565b508054611c03906126ec565b6000825580601f10611c155750611c34565b601f016020900490600052602060002090810190611c339190611bb6565b5b50565b6000604051905090565b600080fd5b600080fd5b6000819050919050565b611c5e81611c4b565b8114611c6957600080fd5b50565b600081359050611c7b81611c55565b92915050565b600073ffffffffffffffffffffffffffffffffffffffff82169050919050565b6000611cac82611c81565b9050919050565b611cbc81611ca1565b8114611cc757600080fd5b50565b600081359050611cd981611cb3565b92915050565b60008060408385031215611cf657611cf5611c41565b5b6000611d0485828601611c6c565b9250506020611d1585828601611cca565b9150509250929050565b60008115159050919050565b611d3481611d1f565b82525050565b6000602082019050611d4f6000830184611d2b565b92915050565b600060208284031215611d6b57611d6a611c41565b5b6000611d7984828501611c6c565b91505092915050565b611d8b81611c4b565b82525050565b600081519050919050565b600082825260208201905092915050565b60005b83811015611dcb578082015181840152602081019050611db0565b60008484015250505050565b6000601f19601f8301169050919050565b6000611df382611d91565b611dfd8185611d9c565b9350611e0d818560208601611dad565b611e1681611dd7565b840191505092915050565b611e2a81611ca1565b82525050565b600060e082019050611e45600083018a611d82565b8181036020830152611e578189611de8565b9050611e666040830188611e21565b611e736060830187611e21565b611e806080830186611d82565b611e8d60a0830185611d82565b611e9a60c0830184611d82565b98975050505050505050565b6000602082019050611ebb6000830184611d82565b92915050565b611eca81611c4b565b82525050565b600082825260208201905092915050565b6000611eec82611d91565b611ef68185611ed0565b9350611f06818560208601611dad565b611f0f81611dd7565b840191505092915050565b600081519050919050565b600082825260208201905092915050565b6000819050602082019050919050565b6000611f528383611ec1565b60208301905092915050565b6000602082019050919050565b6000611f7682611f1a565b611f808185611f25565b9350611f8b83611f36565b8060005b83811015611fbc578151611fa38882611f46565b9750611fae83611f5e565b925050600181019050611f8f565b5085935050505092915050565b611fd281611ca1565b82525050565b600081519050919050565b600082825260208201905092915050565b6000819050602082019050919050565b60006120108383611ee1565b905092915050565b6000602082019050919050565b600061203082611fd8565b61203a8185611fe3565b93508360208202850161204c85611ff4565b8060005b8581101561208857848403895281516120698582612004565b945061207483612018565b925060208a01995050600181019050612050565b50829750879550505050505092915050565b6000610140830160008301516120b36000860182611ec1565b50602083015184820360208601526120cb8282611ee1565b915050604083015184820360408601526120e58282611f6b565b91505060608301516120fa6060860182611fc9565b50608083015161210d6080860182611fc9565b5060a083015184820360a08601526121258282611f6b565b91505060c083015161213a60c0860182611ec1565b5060e083015161214d60e0860182611ec1565b506101008301518482036101008601526121678282612025565b91505061012083015161217e610120860182611ec1565b508091505092915050565b600060208201905081810360008301526121a3818461209a565b905092915050565b60006020820190506121c06000830184611e21565b92915050565b600080fd5b7f4e487b7100000000000000000000000000000000000000000000000000000000600052604160045260246000fd5b61220382611dd7565b810181811067ffffffffffffffff82111715612222576122216121cb565b5b80604052505050565b6000612235611c37565b905061224182826121fa565b919050565b600067ffffffffffffffff821115612261576122606121cb565b5b602082029050602081019050919050565b600080fd5b600061228a61228584612246565b61222b565b905080838252602082019050602084028301858111156122ad576122ac612272565b5b835b818110156122d657806122c28882611c6c565b8452602084019350506020810190506122af565b5050509392505050565b600082601f8301126122f5576122f46121c6565b5b8135612305848260208601612277565b91505092915050565b6000806040838503121561232557612324611c41565b5b600061233385828601611c6c565b925050602083013567ffffffffffffffff81111561235457612353611c46565b5b612360858286016122e0565b9150509250929050565b6000602082840312156123805761237f611c41565b5b600061238e84828501611cca565b91505092915050565b600080604083850312156123ae576123ad611c41565b5b60006123bc85828601611c6c565b92505060206123cd85828601611c6c565b9150509250929050565b600080fd5b600067ffffffffffffffff8211156123f7576123f66121cb565b5b61240082611dd7565b9050602081019050919050565b82818337600083830152505050565b600061242f61242a846123dc565b61222b565b90508281526020810184848401111561244b5761244a6123d7565b5b61245684828561240d565b509392505050565b600082601f830112612473576124726121c6565b5b813561248384826020860161241c565b91505092915050565b600080600080608085870312156124a6576124a5611c41565b5b600085013567ffffffffffffffff8111156124c4576124c3611c46565b5b6124d08782880161245e565b945050602085013567ffffffffffffffff8111156124f1576124f0611c46565b5b6124fd878288016122e0565b935050604061250e87828801611cca565b925050606061251f87828801611cca565b91505092959194509250565b60006040820190506125406000830185611d82565b61254d6020830184611d82565b9392505050565b600082825260208201905092915050565b600061257082611f1a565b61257a8185612554565b935061258583611f36565b8060005b838110156125b657815161259d8882611f46565b97506125a883611f5e565b925050600181019050612589565b5085935050505092915050565b600060208201905081810360008301526125dd8184612565565b905092915050565b7f4552330000000000000000000000000000000000000000000000000000000000600082015250565b600061261b600383611d9c565b9150612626826125e5565b602082019050919050565b6000602082019050818103600083015261264a8161260e565b9050919050565b7f4552320000000000000000000000000000000000000000000000000000000000600082015250565b6000612687600383611d9c565b915061269282612651565b602082019050919050565b600060208201905081810360008301526126b68161267a565b9050919050565b7f4e487b7100000000000000000000000000000000000000000000000000000000600052602260045260246000fd5b6000600282049050600182168061270457607f821691505b602082108103612717576127166126bd565b5b50919050565b7f4e487b7100000000000000000000000000000000000000000000000000000000600052603260045260246000fd5b7f4552310000000000000000000000000000000000000000000000000000000000600082015250565b6000612782600383611d9c565b915061278d8261274c565b602082019050919050565b600060208201905081810360008301526127b181612775565b9050919050565b6127c181611c4b565b82525050565b600082825260208201905092915050565b60006127e382611d91565b6127ed81856127c7565b93506127fd818560208601611dad565b61280681611dd7565b840191505092915050565b600082825260208201905092915050565b61282b81611c4b565b82525050565b600061283d8383612822565b60208301905092915050565b600061285482611f1a565b61285e8185612811565b935061286983611f36565b8060005b8381101561289a5781516128818882612831565b975061288c83611f5e565b92505060018101905061286d565b5085935050505092915050565b6128b081611ca1565b82525050565b600060a0820190506128cb60008301886127b8565b81810360208301526128dd81876127d8565b905081810360408301526128f18186612849565b905061290060608301856128a7565b61290d60808301846128a7565b9695505050505050565b600080fd5b600080fd5b60008151905061293081611c55565b92915050565b6000612949612944846123dc565b61222b565b905082815260208101848484011115612965576129646123d7565b5b612970848285611dad565b509392505050565b600082601f83011261298d5761298c6121c6565b5b815161299d848260208601612936565b91505092915050565b60006129b96129b484612246565b61222b565b905080838252602082019050602084028301858111156129dc576129db612272565b5b835b81811015612a0557806129f18882612921565b8452602084019350506020810190506129de565b5050509392505050565b600082601f830112612a2457612a236121c6565b5b8151612a348482602086016129a6565b91505092915050565b600081519050612a4c81611cb3565b92915050565b600067ffffffffffffffff821115612a6d57612a6c6121cb565b5b602082029050602081019050919050565b6000612a91612a8c84612a52565b61222b565b90508083825260208201905060208402830185811115612ab457612ab3612272565b5b835b81811015612afb57805167ffffffffffffffff811115612ad957612ad86121c6565b5b808601612ae68982612978565b85526020850194505050602081019050612ab6565b5050509392505050565b600082601f830112612b1a57612b196121c6565b5b8151612b2a848260208601612a7e565b91505092915050565b60006101408284031215612b4a57612b49612917565b5b612b5561014061222b565b90506000612b6584828501612921565b600083015250602082015167ffffffffffffffff811115612b8957612b8861291c565b5b612b9584828501612978565b602083015250604082015167ffffffffffffffff811115612bb957612bb861291c565b5b612bc584828501612a0f565b6040830152506060612bd984828501612a3d565b6060830152506080612bed84828501612a3d565b60808301525060a082015167ffffffffffffffff811115612c1157612c1061291c565b5b612c1d84828501612a0f565b60a08301525060c0612c3184828501612921565b60c08301525060e0612c4584828501612921565b60e08301525061010082015167ffffffffffffffff811115612c6a57612c6961291c565b5b612c7684828501612b05565b61010083015250610120612c8c84828501612921565b6101208301525092915050565b600060208284031215612caf57612cae611c41565b5b600082015167ffffffffffffffff811115612ccd57612ccc611c46565b5b612cd984828501612b33565b91505092915050565b60008190508160005260206000209050919050565b60006020601f8301049050919050565b600082821b905092915050565b600060088302612d447fffffffffffffffffffffffffffffffffffffffffffffffffffffffffffffffff82612d07565b612d4e8683612d07565b95508019841693508086168417925050509392505050565b6000819050919050565b6000612d8b612d86612d8184611c4b565b612d66565b611c4b565b9050919050565b6000819050919050565b612da583612d70565b612db9612db182612d92565b848454612d14565b825550505050565b600090565b612dce612dc1565b612dd9818484612d9c565b505050565b5b81811015612dfd57612df2600082612dc6565b600181019050612ddf565b5050565b601f821115612e4257612e1381612ce2565b612e1c84612cf7565b81016020851015612e2b578190505b612e3f612e3785612cf7565b830182612dde565b50505b505050565b600082821c905092915050565b6000612e6560001984600802612e47565b1980831691505092915050565b6000612e7e8383612e54565b9150826002028217905092915050565b612e9782611d91565b67ffffffffffffffff811115612eb057612eaf6121cb565b5b612eba82546126ec565b612ec5828285612e01565b600060209050601f831160018114612ef85760008415612ee6578287015190505b612ef08582612e72565b865550612f58565b601f198416612f0686612ce2565b60005b82811015612f2e57848901518255600182019150602085019450602081019050612f09565b86831015612f4b5784890151612f47601f891682612e54565b8355505b6001600288020188555050505b505050505050565b7f4e487b7100000000000000000000000000000000000000000000000000000000600052601160045260246000fd5b6000612f9a82611c4b565b9150612fa583611c4b565b9250828201905080821115612fbd57612fbc612f60565b5b9291505056fea264697066735822122019b8e1a637b99198267230e991a47365d755e817e78cb5354d93063ee60eaa0a64736f6c634300081b0033",
  "linkReferences": {
    "contracts/ConflictLib.sol": {
      "ConflictLib": [
        {
          "length": 20,
          "start": 6067
        }
      ]
    }
  },
  "deployedLinkReferences": {
    "contracts/ConflictLib.sol": {
      "ConflictLib": [
        {
          "length": 20,
          "start": 5967
        }
      ]
    }
  }
}