{
  "_format": "hh-sol-artifact-1",
  "contractName": "UserManager",
  "sourceName": "contracts/UserManager.sol",
  "abi": [
    {
      "inputs": [],
      "stateMutability": "nonpayable",
      "type": "constructor"
    },
    {
      "inputs": [
        {
          "internalType": "address",
          "name": "_userAddr",
          "type": "address"
        },
        {
          "internalType": "uint256",
          "name": "_ASN",
          "type": "uint256"
        }
      ],
      "name": "createParticipant",
      "outputs": [
        {
          "internalType": "bool",
          "name": "",
          "type": "bool"
        }
      ],
      "stateMutability": "nonpayable",
      "type": "function"
    },
    {
      "inputs": [
        {
          "internalType": "uint256",
          "name": "asn",
          "type": "uint256"
        }
      ],
      "name": "decrementOnGoingVote",
      "outputs": [],
      "stateMutability": "nonpayable",
      "type": "function"
    },
    {
      "inputs": [],
      "name": "getAllParticipant",
      "outputs": [
        {
          "internalType": "uint256[]",
          "name": "",
          "type": "uint256[]"
        }
      ],
      "stateMutability": "view",
      "type": "function"
    },
    {
      "inputs": [
        {
          "internalType": "uint256",
          "name": "asn",
          "type": "uint256"
        }
      ],
      "name": "getParticipant",
      "outputs": [
        {
          "components": [
            {
              "internalType": "uint256",
              "name": "ASN",
              "type": "uint256"
            },
            {
              "internalType": "address",
              "name": "addr",
              "type": "address"
            },
            {
              "internalType": "uint256",
              "name": "ReportConflict",
              "type": "uint256"
            },
            {
              "internalType": "uint256",
              "name": "OnGoingVote",
              "type": "uint256"
            },
            {
              "internalType": "uint256",
              "name": "FinishedVote",
              "type": "uint256"
            }
          ],
          "internalType": "struct UserLib.User",
          "name": "",
          "type": "tuple"
        }
      ],
      "stateMutability": "view",
      "type": "function"
    },
    {
      "inputs": [
        {
          "internalType": "uint256",
          "name": "asn",
          "type": "uint256"
        }
      ],
      "name": "getUserAddressByIndex",
      "outputs": [
        {
          "internalType": "address",
          "name": "",
          "type": "address"
        }
      ],
      "stateMutability": "view",
      "type": "function"
    },
    {
      "inputs": [
        {
          "internalType": "uint256",
          "name": "asn",
          "type": "uint256"
        }
      ],
      "name": "incrementFinishedVote",
      "outputs": [],
      "stateMutability": "nonpayable",
      "type": "function"
    },
    {
      "inputs": [
        {
          "internalType": "uint256",
          "name": "asn",
          "type": "uint256"
        }
      ],
      "name": "incrementOnGoingVote",
      "outputs": [],
      "stateMutability": "nonpayable",
      "type": "function"
    },
    {
      "inputs": [
        {
          "internalType": "uint256",
          "name": "asn",
          "type": "uint256"
        }
      ],
      "name": "incrementReportConflict",
      "outputs": [],
      "stateMutability": "nonpayable",
      "type": "function"
    },
    {
      "inputs": [
        {
          "internalType": "address",
          "name": "_vro_contract",
          "type": "address"
        }
      ],
      "name": "initialize",
      "outputs": [],
      "stateMutability": "nonpayable",
      "type": "function"
    },
    {
      "inputs": [],
      "name": "isInitialized",
      "outputs": [
        {
          "internalType": "bool",
          "name": "",
          "type": "bool"
        }
      ],
      "stateMutability": "view",
      "type": "function"
    },
    {
      "inputs": [
        {
          "internalType": "uint256",
          "name": "asn",
          "type": "uint256"
        },
        {
          "internalType": "address",
          "name": "addr",
          "type": "address"
        }
      ],
      "name": "isParticipant",
      "outputs": [
        {
          "internalType": "bool",
          "name": "",
          "type": "bool"
        }
      ],
      "stateMutability": "view",
      "type": "function"
    },
    {
      "inputs": [
        {
          "internalType": "uint256",
          "name": "",
          "type": "uint256"
        }
      ],
      "name": "userASN",
      "outputs": [
        {
          "internalType": "uint256",
          "name": "",
          "type": "uint256"
        }
      ],
      "stateMutability": "view",
      "type": "function"
    },
    {
      "inputs": [
        {
          "internalType": "uint256",
          "name": "",
          "type": "uint256"
        }
      ],
      "name": "users",
      "outputs": [
        {
          "internalType": "uint256",
          "name": "ASN",
          "type": "uint256"
        },
        {
          "internalType": "address",
          "name": "addr",
          "type": "address"
        },
        {
          "internalType": "uint256",
          "name": "ReportConflict",
          "type": "uint256"
        },
        {
          "internalType": "uint256",
          "name": "OnGoingVote",
          "type": "uint256"
        },
        {
          "internalType": "uint256",
          "name": "FinishedVote",
          "type": "uint256"
        }
      ],
      "stateMutability": "view",
      "type": "function"
    },
    {
      "inputs": [],
      "name": "vro_contract",
      "outputs": [
        {
          "internalType": "address",
          "name": "",
          "type": "address"
        }
      ],
      "stateMutability": "view",
      "type": "function"
    }
  ],
  "bytecode": "0x60a0604052348015600f57600080fd5b503373ffffffffffffffffffffffffffffffffffffffff1660808173ffffffffffffffffffffffffffffffffffffffff168152505060805161192b61005f6000396000610dec015261192b6000f3fe608060405234801561001057600080fd5b50600436106100e95760003560e01c8063758d9b891161008c578063c4d66de811610066578063c4d66de814610260578063cca76c5d1461027c578063d5cf50d2146102ac578063ed485712146102c8576100e9565b8063758d9b89146101f8578063861b409c14610228578063b08bc20014610244576100e9565b80632346102e116100c85780632346102e1461016c578063365b98b214610188578063392e53cd146101bc5780634daf175f146101da576100e9565b8062b098af146100ee5780631b9db2ef1461010c5780631c4f43861461013c575b600080fd5b6100f66102f8565b6040516101039190611241565b60405180910390f35b6101266004803603810190610121919061129e565b610436565b6040516101339190611374565b60405180910390f35b610156600480360381019061015191906113bb565b6105c6565b6040516101639190611416565b60405180910390f35b6101866004803603810190610181919061129e565b610858565b005b6101a2600480360381019061019d919061129e565b61096c565b6040516101b395949392919061144f565b60405180910390f35b6101c46109c2565b6040516101d19190611416565b60405180910390f35b6101e26109d5565b6040516101ef91906114a2565b60405180910390f35b610212600480360381019061020d91906114bd565b6109fb565b60405161021f9190611416565b60405180910390f35b610242600480360381019061023d919061129e565b610bc2565b005b61025e6004803603810190610259919061129e565b610cd6565b005b61027a600480360381019061027591906114fd565b610dea565b005b6102966004803603810190610291919061129e565b610ed7565b6040516102a391906114a2565b60405180910390f35b6102c660048036038101906102c1919061129e565b610ffc565b005b6102e260048036038101906102dd919061129e565b611110565b6040516102ef919061152a565b60405180910390f35b606060011515600260149054906101000a900460ff16151514610350576040517f08c379a0000000000000000000000000000000000000000000000000000000008152600401610347906115a2565b60405180910390fd5b600260009054906101000a900473ffffffffffffffffffffffffffffffffffffffff1673ffffffffffffffffffffffffffffffffffffffff163373ffffffffffffffffffffffffffffffffffffffff16146103e0576040517f08c379a00000000000000000000000000000000000000000000000000000000081526004016103d79061160e565b60405180910390fd5b600180548060200260200160405190810160405280929190818152602001828054801561042c57602002820191906000526020600020905b815481526020019060010190808311610418575b5050505050905090565b61043e611134565b60011515600260149054906101000a900460ff16151514610494576040517f08c379a000000000000000000000000000000000000000000000000000000000815260040161048b906115a2565b60405180910390fd5b600260009054906101000a900473ffffffffffffffffffffffffffffffffffffffff1673ffffffffffffffffffffffffffffffffffffffff163373ffffffffffffffffffffffffffffffffffffffff1614610524576040517f08c379a000000000000000000000000000000000000000000000000000000000815260040161051b9061160e565b60405180910390fd5b6000808381526020019081526020016000206040518060a0016040529081600082015481526020016001820160009054906101000a900473ffffffffffffffffffffffffffffffffffffffff1673ffffffffffffffffffffffffffffffffffffffff1673ffffffffffffffffffffffffffffffffffffffff16815260200160028201548152602001600382015481526020016004820154815250509050919050565b600060011515600260149054906101000a900460ff1615151461061e576040517f08c379a0000000000000000000000000000000000000000000000000000000008152600401610615906115a2565b60405180910390fd5b600260009054906101000a900473ffffffffffffffffffffffffffffffffffffffff1673ffffffffffffffffffffffffffffffffffffffff163373ffffffffffffffffffffffffffffffffffffffff16146106ae576040517f08c379a00000000000000000000000000000000000000000000000000000000081526004016106a59061160e565b60405180910390fd5b600073ffffffffffffffffffffffffffffffffffffffff1660008084815260200190815260200160002060010160009054906101000a900473ffffffffffffffffffffffffffffffffffffffff1673ffffffffffffffffffffffffffffffffffffffff160361084d57600073__$70ded13b7065af4b55bb4b58a90b8d3434$__6360cb182b84866040518363ffffffff1660e01b815260040161075292919061164c565b60a060405180830381865af415801561076f573d6000803e3d6000fd5b505050506040513d601f19601f8201168201806040525081019061079391906117bc565b9050806000808581526020019081526020016000206000820151816000015560208201518160010160006101000a81548173ffffffffffffffffffffffffffffffffffffffff021916908373ffffffffffffffffffffffffffffffffffffffff16021790555060408201518160020155606082015181600301556080820151816004015590505060018390806001815401808255809150506001900390600052602060002001600090919091909150556001915050610852565b600090505b92915050565b60011515600260149054906101000a900460ff161515146108ae576040517f08c379a00000000000000000000000000000000000000000000000000000000081526004016108a5906115a2565b60405180910390fd5b600260009054906101000a900473ffffffffffffffffffffffffffffffffffffffff1673ffffffffffffffffffffffffffffffffffffffff163373ffffffffffffffffffffffffffffffffffffffff161461093e576040517f08c379a00000000000000000000000000000000000000000000000000000000081526004016109359061160e565b60405180910390fd5b600080828152602001908152602001600020600301600081548092919061096490611818565b919050555050565b60006020528060005260406000206000915090508060000154908060010160009054906101000a900473ffffffffffffffffffffffffffffffffffffffff16908060020154908060030154908060040154905085565b600260149054906101000a900460ff1681565b600260009054906101000a900473ffffffffffffffffffffffffffffffffffffffff1681565b600060011515600260149054906101000a900460ff16151514610a53576040517f08c379a0000000000000000000000000000000000000000000000000000000008152600401610a4a906115a2565b60405180910390fd5b600260009054906101000a900473ffffffffffffffffffffffffffffffffffffffff1673ffffffffffffffffffffffffffffffffffffffff163373ffffffffffffffffffffffffffffffffffffffff1614610ae3576040517f08c379a0000000000000000000000000000000000000000000000000000000008152600401610ada9061160e565b60405180910390fd5b600073ffffffffffffffffffffffffffffffffffffffff1660008085815260200190815260200160002060010160009054906101000a900473ffffffffffffffffffffffffffffffffffffffff1673ffffffffffffffffffffffffffffffffffffffff1603610b555760009050610bbc565b8173ffffffffffffffffffffffffffffffffffffffff1660008085815260200190815260200160002060010160009054906101000a900473ffffffffffffffffffffffffffffffffffffffff1673ffffffffffffffffffffffffffffffffffffffff161490505b92915050565b60011515600260149054906101000a900460ff16151514610c18576040517f08c379a0000000000000000000000000000000000000000000000000000000008152600401610c0f906115a2565b60405180910390fd5b600260009054906101000a900473ffffffffffffffffffffffffffffffffffffffff1673ffffffffffffffffffffffffffffffffffffffff163373ffffffffffffffffffffffffffffffffffffffff1614610ca8576040517f08c379a0000000000000000000000000000000000000000000000000000000008152600401610c9f9061160e565b60405180910390fd5b6000808281526020019081526020016000206002016000815480929190610cce90611818565b919050555050565b60011515600260149054906101000a900460ff16151514610d2c576040517f08c379a0000000000000000000000000000000000000000000000000000000008152600401610d23906115a2565b60405180910390fd5b600260009054906101000a900473ffffffffffffffffffffffffffffffffffffffff1673ffffffffffffffffffffffffffffffffffffffff163373ffffffffffffffffffffffffffffffffffffffff1614610dbc576040517f08c379a0000000000000000000000000000000000000000000000000000000008152600401610db39061160e565b60405180910390fd5b6000808281526020019081526020016000206003016000815480929190610de290611860565b919050555050565b7f000000000000000000000000000000000000000000000000000000000000000073ffffffffffffffffffffffffffffffffffffffff163373ffffffffffffffffffffffffffffffffffffffff1614610e78576040517f08c379a0000000000000000000000000000000000000000000000000000000008152600401610e6f906118d5565b60405180910390fd5b80600260006101000a81548173ffffffffffffffffffffffffffffffffffffffff021916908373ffffffffffffffffffffffffffffffffffffffff1602179055506001600260146101000a81548160ff02191690831515021790555050565b600060011515600260149054906101000a900460ff16151514610f2f576040517f08c379a0000000000000000000000000000000000000000000000000000000008152600401610f26906115a2565b60405180910390fd5b600260009054906101000a900473ffffffffffffffffffffffffffffffffffffffff1673ffffffffffffffffffffffffffffffffffffffff163373ffffffffffffffffffffffffffffffffffffffff1614610fbf576040517f08c379a0000000000000000000000000000000000000000000000000000000008152600401610fb69061160e565b60405180910390fd5b60008083815260200190815260200160002060010160009054906101000a900473ffffffffffffffffffffffffffffffffffffffff169050919050565b60011515600260149054906101000a900460ff16151514611052576040517f08c379a0000000000000000000000000000000000000000000000000000000008152600401611049906115a2565b60405180910390fd5b600260009054906101000a900473ffffffffffffffffffffffffffffffffffffffff1673ffffffffffffffffffffffffffffffffffffffff163373ffffffffffffffffffffffffffffffffffffffff16146110e2576040517f08c379a00000000000000000000000000000000000000000000000000000000081526004016110d99061160e565b60405180910390fd5b600080828152602001908152602001600020600401600081548092919061110890611818565b919050555050565b6001818154811061112057600080fd5b906000526020600020016000915090505481565b6040518060a0016040528060008152602001600073ffffffffffffffffffffffffffffffffffffffff1681526020016000815260200160008152602001600081525090565b600081519050919050565b600082825260208201905092915050565b6000819050602082019050919050565b6000819050919050565b6111b8816111a5565b82525050565b60006111ca83836111af565b60208301905092915050565b6000602082019050919050565b60006111ee82611179565b6111f88185611184565b935061120383611195565b8060005b8381101561123457815161121b88826111be565b9750611226836111d6565b925050600181019050611207565b5085935050505092915050565b6000602082019050818103600083015261125b81846111e3565b905092915050565b6000604051905090565b600080fd5b61127b816111a5565b811461128657600080fd5b50565b60008135905061129881611272565b92915050565b6000602082840312156112b4576112b361126d565b5b60006112c284828501611289565b91505092915050565b600073ffffffffffffffffffffffffffffffffffffffff82169050919050565b60006112f6826112cb565b9050919050565b611306816112eb565b82525050565b60a08201600082015161132260008501826111af565b50602082015161133560208501826112fd565b50604082015161134860408501826111af565b50606082015161135b60608501826111af565b50608082015161136e60808501826111af565b50505050565b600060a082019050611389600083018461130c565b92915050565b611398816112eb565b81146113a357600080fd5b50565b6000813590506113b58161138f565b92915050565b600080604083850312156113d2576113d161126d565b5b60006113e0858286016113a6565b92505060206113f185828601611289565b9150509250929050565b60008115159050919050565b611410816113fb565b82525050565b600060208201905061142b6000830184611407565b92915050565b61143a816111a5565b82525050565b611449816112eb565b82525050565b600060a0820190506114646000830188611431565b6114716020830187611440565b61147e6040830186611431565b61148b6060830185611431565b6114986080830184611431565b9695505050505050565b60006020820190506114b76000830184611440565b92915050565b600080604083850312156114d4576114d361126d565b5b60006114e285828601611289565b92505060206114f3858286016113a6565b9150509250929050565b6000602082840312156115135761151261126d565b5b6000611521848285016113a6565b91505092915050565b600060208201905061153f6000830184611431565b92915050565b600082825260208201905092915050565b7f4552330000000000000000000000000000000000000000000000000000000000600082015250565b600061158c600383611545565b915061159782611556565b602082019050919050565b600060208201905081810360008301526115bb8161157f565b9050919050565b7f4552320000000000000000000000000000000000000000000000000000000000600082015250565b60006115f8600383611545565b9150611603826115c2565b602082019050919050565b60006020820190508181036000830152611627816115eb565b9050919050565b611637816111a5565b82525050565b611646816112eb565b82525050565b6000604082019050611661600083018561162e565b61166e602083018461163d565b9392505050565b600080fd5b6000601f19601f8301169050919050565b7f4e487b7100000000000000000000000000000000000000000000000000000000600052604160045260246000fd5b6116c38261167a565b810181811067ffffffffffffffff821117156116e2576116e161168b565b5b80604052505050565b60006116f5611263565b905061170182826116ba565b919050565b60008151905061171581611272565b92915050565b60008151905061172a8161138f565b92915050565b600060a0828403121561174657611745611675565b5b61175060a06116eb565b9050600061176084828501611706565b60008301525060206117748482850161171b565b602083015250604061178884828501611706565b604083015250606061179c84828501611706565b60608301525060806117b084828501611706565b60808301525092915050565b600060a082840312156117d2576117d161126d565b5b60006117e084828501611730565b91505092915050565b7f4e487b7100000000000000000000000000000000000000000000000000000000600052601160045260246000fd5b6000611823826111a5565b91507fffffffffffffffffffffffffffffffffffffffffffffffffffffffffffffffff8203611855576118546117e9565b5b600182019050919050565b600061186b826111a5565b91506000820361187e5761187d6117e9565b5b600182039050919050565b7f4552310000000000000000000000000000000000000000000000000000000000600082015250565b60006118bf600383611545565b91506118ca82611889565b602082019050919050565b600060208201905081810360008301526118ee816118b2565b905091905056fea2646970667358221220e8fac4fbddb11dc8923f9998ee16e52d8adf00a67f67534d2bd1a89f14e2a81c64736f6c634300081b0033",
  "linkReferences": {
    "contracts/UserLib.sol": {
      "UserLib": [
        {
          "length": 20,
          "start": 1914
        }
      ]
    }
  },
  "deployedLinkReferences": {
    "contracts/UserLib.sol": {
      "UserLib": [
        {
          "length": 20,
          "start": 1819
        }
      ]
    }
  }
}