{
  "_format": "hh-sol-artifact-1",
  "contractName": "VoteManager",
  "sourceName": "contracts/VoteManager.sol",
  "abi": [
    {
      "inputs": [],
      "stateMutability": "nonpayable",
      "type": "constructor"
    },
    {
      "inputs": [],
      "name": "addr",
      "outputs": [
        {
          "internalType": "address",
          "name": "",
          "type": "address"
        }
      ],
      "stateMutability": "view",
      "type": "function"
    },
    {
      "inputs": [
        {
          "internalType": "uint256",
          "name": "conflictID",
          "type": "uint256"
        },
        {
          "internalType": "uint256",
          "name": "options",
          "type": "uint256"
        }
      ],
      "name": "createVote",
      "outputs": [
        {
          "internalType": "bool",
          "name": "",
          "type": "bool"
        }
      ],
      "stateMutability": "nonpayable",
      "type": "function"
    },
    {
      "inputs": [
        {
          "internalType": "uint256",
          "name": "conflictID",
          "type": "uint256"
        },
        {
          "internalType": "uint256",
          "name": "option",
          "type": "uint256"
        }
      ],
      "name": "getOptionCounter",
      "outputs": [
        {
          "internalType": "uint256",
          "name": "",
          "type": "uint256"
        }
      ],
      "stateMutability": "view",
      "type": "function"
    },
    {
      "inputs": [
        {
          "internalType": "uint256",
          "name": "conflictID",
          "type": "uint256"
        }
      ],
      "name": "getTotalVotes",
      "outputs": [
        {
          "internalType": "uint256",
          "name": "",
          "type": "uint256"
        }
      ],
      "stateMutability": "view",
      "type": "function"
    },
    {
      "inputs": [
        {
          "internalType": "uint256",
          "name": "conflictID",
          "type": "uint256"
        }
      ],
      "name": "getVoteAddress",
      "outputs": [
        {
          "internalType": "address",
          "name": "",
          "type": "address"
        }
      ],
      "stateMutability": "view",
      "type": "function"
    },
    {
      "inputs": [
        {
          "internalType": "address",
          "name": "_vro_contract",
          "type": "address"
        },
        {
          "internalType": "address",
          "name": "_addr",
          "type": "address"
        },
        {
          "internalType": "contract IVerifier",
          "name": "_verifier",
          "type": "address"
        }
      ],
      "name": "initialize",
      "outputs": [],
      "stateMutability": "nonpayable",
      "type": "function"
    },
    {
      "inputs": [],
      "name": "isInitialized",
      "outputs": [
        {
          "internalType": "bool",
          "name": "",
          "type": "bool"
        }
      ],
      "stateMutability": "view",
      "type": "function"
    },
    {
      "inputs": [
        {
          "internalType": "uint256",
          "name": "conflictID",
          "type": "uint256"
        },
        {
          "internalType": "uint256[]",
          "name": "_uniqueHash",
          "type": "uint256[]"
        },
        {
          "internalType": "uint256[]",
          "name": "_commitment",
          "type": "uint256[]"
        }
      ],
      "name": "registerCommitments",
      "outputs": [
        {
          "internalType": "bool",
          "name": "",
          "type": "bool"
        }
      ],
      "stateMutability": "nonpayable",
      "type": "function"
    },
    {
      "inputs": [
        {
          "internalType": "uint256",
          "name": "conflictID",
          "type": "uint256"
        },
        {
          "internalType": "address",
          "name": "validator",
          "type": "address"
        }
      ],
      "name": "registerValidator",
      "outputs": [
        {
          "internalType": "bool",
          "name": "",
          "type": "bool"
        }
      ],
      "stateMutability": "nonpayable",
      "type": "function"
    },
    {
      "inputs": [
        {
          "internalType": "uint256",
          "name": "conflictID",
          "type": "uint256"
        },
        {
          "internalType": "uint256",
          "name": "_option",
          "type": "uint256"
        },
        {
          "internalType": "uint256",
          "name": "_nullifier",
          "type": "uint256"
        },
        {
          "internalType": "uint256",
          "name": "_root",
          "type": "uint256"
        },
        {
          "internalType": "uint256[2]",
          "name": "_proof_a",
          "type": "uint256[2]"
        },
        {
          "internalType": "uint256[2][2]",
          "name": "_proof_b",
          "type": "uint256[2][2]"
        },
        {
          "internalType": "uint256[2]",
          "name": "_proof_c",
          "type": "uint256[2]"
        }
      ],
      "name": "vote",
      "outputs": [
        {
          "internalType": "bool",
          "name": "",
          "type": "bool"
        }
      ],
      "stateMutability": "nonpayable",
      "type": "function"
    },
    {
      "inputs": [
        {
          "internalType": "uint256",
          "name": "",
          "type": "uint256"
        }
      ],
      "name": "votes",
      "outputs": [
        {
          "internalType": "contract ZKTreeVote",
          "name": "voteContract",
          "type": "address"
        },
        {
          "internalType": "bool",
          "name": "exists",
          "type": "bool"
        }
      ],
      "stateMutability": "view",
      "type": "function"
    },
    {
      "inputs": [],
      "name": "vro_contract",
      "outputs": [
        {
          "internalType": "address",
          "name": "",
          "type": "address"
        }
      ],
      "stateMutability": "view",
      "type": "function"
    }
  ],
  "bytecode": "0x60c0604052601463ffffffff1660809063ffffffff16815250348015602357600080fd5b503373ffffffffffffffffffffffffffffffffffffffff1660a08173ffffffffffffffffffffffffffffffffffffffff168152505060805160a0516156cd61007d60003960006110ee0152600061059f01526156cd6000f3fe608060405234801561001057600080fd5b50600436106100b45760003560e01c80635df81330116100715780635df81330146101b5578063767800de146101e65780639187aab7146102045780639de7b9df14610234578063c0c53b8b14610264578063c4680f1d14610280576100b4565b8063049ad89a146100b95780631b468312146100e95780632ce35e1114610119578063392e53cd14610149578063436de3c5146101675780634daf175f14610197575b600080fd5b6100d360048036038101906100ce9190611633565b6102b0565b6040516100e091906116f2565b60405180910390f35b61010360048036038101906100fe919061170d565b6104b3565b60405161011091906116f2565b60405180910390f35b610133600480360381019061012e919061174d565b6106f2565b6040516101409190611789565b60405180910390f35b6101516109be565b60405161015e91906116f2565b60405180910390f35b610181600480360381019061017c9190611802565b6109d1565b60405161018e91906116f2565b60405180910390f35b61019f610bc5565b6040516101ac9190611851565b60405180910390f35b6101cf60048036038101906101ca919061174d565b610beb565b6040516101dd9291906118cb565b60405180910390f35b6101ee610c3c565b6040516101fb9190611851565b60405180910390f35b61021e6004803603810190610219919061170d565b610c62565b60405161022b9190611789565b60405180910390f35b61024e600480360381019061024991906119b7565b610e63565b60405161025b91906116f2565b60405180910390f35b61027e60048036038101906102799190611a80565b6110ec565b005b61029a6004803603810190610295919061174d565b61125d565b6040516102a79190611851565b60405180910390f35b600060011515600360149054906101000a900460ff16151514610308576040517f08c379a00000000000000000000000000000000000000000000000000000000081526004016102ff90611b30565b60405180910390fd5b600360009054906101000a900473ffffffffffffffffffffffffffffffffffffffff1673ffffffffffffffffffffffffffffffffffffffff163373ffffffffffffffffffffffffffffffffffffffff1614610398576040517f08c379a000000000000000000000000000000000000000000000000000000000815260040161038f90611b9c565b60405180910390fd5b60008089815260200190815260200160002060000160149054906101000a900460ff166103fa576040517f08c379a00000000000000000000000000000000000000000000000000000000081526004016103f190611c08565b60405180910390fd5b60008089815260200190815260200160002060000160009054906101000a900473ffffffffffffffffffffffffffffffffffffffff1673ffffffffffffffffffffffffffffffffffffffff1663ce8f63778888888888886040518763ffffffff1660e01b815260040161047296959493929190611dd1565b600060405180830381600087803b15801561048c57600080fd5b505af11580156104a0573d6000803e3d6000fd5b5050505060019050979650505050505050565b600060011515600360149054906101000a900460ff1615151461050b576040517f08c379a000000000000000000000000000000000000000000000000000000000815260040161050290611b30565b60405180910390fd5b600360009054906101000a900473ffffffffffffffffffffffffffffffffffffffff1673ffffffffffffffffffffffffffffffffffffffff163373ffffffffffffffffffffffffffffffffffffffff161461059b576040517f08c379a000000000000000000000000000000000000000000000000000000000815260040161059290611b9c565b60405180910390fd5b60007f0000000000000000000000000000000000000000000000000000000000000000600160009054906101000a900473ffffffffffffffffffffffffffffffffffffffff16600260009054906101000a900473ffffffffffffffffffffffffffffffffffffffff1685604051610611906113e4565b61061e9493929190611e74565b604051809103906000f08015801561063a573d6000803e3d6000fd5b50905060405180604001604052808273ffffffffffffffffffffffffffffffffffffffff1681526020016001151581525060008086815260200190815260200160002060008201518160000160006101000a81548173ffffffffffffffffffffffffffffffffffffffff021916908373ffffffffffffffffffffffffffffffffffffffff16021790555060208201518160000160146101000a81548160ff021916908315150217905550905050600191505092915050565b600060011515600360149054906101000a900460ff1615151461074a576040517f08c379a000000000000000000000000000000000000000000000000000000000815260040161074190611b30565b60405180910390fd5b600360009054906101000a900473ffffffffffffffffffffffffffffffffffffffff1673ffffffffffffffffffffffffffffffffffffffff163373ffffffffffffffffffffffffffffffffffffffff16146107da576040517f08c379a00000000000000000000000000000000000000000000000000000000081526004016107d190611b9c565b60405180910390fd5b60008083815260200190815260200160002060000160149054906101000a900460ff1661083c576040517f08c379a000000000000000000000000000000000000000000000000000000000815260040161083390611c08565b60405180910390fd5b6000805b60008085815260200190815260200160002060000160009054906101000a900473ffffffffffffffffffffffffffffffffffffffff1673ffffffffffffffffffffffffffffffffffffffff1663cc2ee1966040518163ffffffff1660e01b8152600401602060405180830381865afa1580156108c0573d6000803e3d6000fd5b505050506040513d601f19601f820116820180604052508101906108e49190611ece565b8110156109b45760008085815260200190815260200160002060000160009054906101000a900473ffffffffffffffffffffffffffffffffffffffff1673ffffffffffffffffffffffffffffffffffffffff1663955e0377826040518263ffffffff1660e01b81526004016109599190611789565b602060405180830381865afa158015610976573d6000803e3d6000fd5b505050506040513d601f19601f8201168201806040525081019061099a9190611ece565b826109a59190611f2a565b91508080600101915050610840565b5080915050919050565b600360149054906101000a900460ff1681565b600060011515600360149054906101000a900460ff16151514610a29576040517f08c379a0000000000000000000000000000000000000000000000000000000008152600401610a2090611b30565b60405180910390fd5b600360009054906101000a900473ffffffffffffffffffffffffffffffffffffffff1673ffffffffffffffffffffffffffffffffffffffff163373ffffffffffffffffffffffffffffffffffffffff1614610ab9576040517f08c379a0000000000000000000000000000000000000000000000000000000008152600401610ab090611b9c565b60405180910390fd5b60008084815260200190815260200160002060000160149054906101000a900460ff16610b1b576040517f08c379a0000000000000000000000000000000000000000000000000000000008152600401610b1290611c08565b60405180910390fd5b60008084815260200190815260200160002060000160009054906101000a900473ffffffffffffffffffffffffffffffffffffffff1673ffffffffffffffffffffffffffffffffffffffff16639fca5169836040518263ffffffff1660e01b8152600401610b899190611851565b600060405180830381600087803b158015610ba357600080fd5b505af1158015610bb7573d6000803e3d6000fd5b505050506001905092915050565b600360009054906101000a900473ffffffffffffffffffffffffffffffffffffffff1681565b60006020528060005260406000206000915090508060000160009054906101000a900473ffffffffffffffffffffffffffffffffffffffff16908060000160149054906101000a900460ff16905082565b600160009054906101000a900473ffffffffffffffffffffffffffffffffffffffff1681565b600060011515600360149054906101000a900460ff16151514610cba576040517f08c379a0000000000000000000000000000000000000000000000000000000008152600401610cb190611b30565b60405180910390fd5b600360009054906101000a900473ffffffffffffffffffffffffffffffffffffffff1673ffffffffffffffffffffffffffffffffffffffff163373ffffffffffffffffffffffffffffffffffffffff1614610d4a576040517f08c379a0000000000000000000000000000000000000000000000000000000008152600401610d4190611b9c565b60405180910390fd5b60008084815260200190815260200160002060000160149054906101000a900460ff16610dac576040517f08c379a0000000000000000000000000000000000000000000000000000000008152600401610da390611c08565b60405180910390fd5b60008084815260200190815260200160002060000160009054906101000a900473ffffffffffffffffffffffffffffffffffffffff1673ffffffffffffffffffffffffffffffffffffffff1663955e0377836040518263ffffffff1660e01b8152600401610e1a9190611789565b602060405180830381865afa158015610e37573d6000803e3d6000fd5b505050506040513d601f19601f82011682018060405250810190610e5b9190611ece565b905092915050565b600060011515600360149054906101000a900460ff16151514610ebb576040517f08c379a0000000000000000000000000000000000000000000000000000000008152600401610eb290611b30565b60405180910390fd5b600360009054906101000a900473ffffffffffffffffffffffffffffffffffffffff1673ffffffffffffffffffffffffffffffffffffffff163373ffffffffffffffffffffffffffffffffffffffff1614610f4b576040517f08c379a0000000000000000000000000000000000000000000000000000000008152600401610f4290611b9c565b60405180910390fd5b60008085815260200190815260200160002060000160149054906101000a900460ff16610fad576040517f08c379a0000000000000000000000000000000000000000000000000000000008152600401610fa490611c08565b60405180910390fd5b8151835114610ff1576040517f08c379a0000000000000000000000000000000000000000000000000000000008152600401610fe890611fd0565b60405180910390fd5b60005b83518110156110e05760008086815260200190815260200160002060000160009054906101000a900473ffffffffffffffffffffffffffffffffffffffff1673ffffffffffffffffffffffffffffffffffffffff16631407beb885838151811061106157611060611ff0565b5b602002602001015185848151811061107c5761107b611ff0565b5b60200260200101516040518363ffffffff1660e01b81526004016110a192919061201f565b600060405180830381600087803b1580156110bb57600080fd5b505af11580156110cf573d6000803e3d6000fd5b505050508080600101915050610ff4565b50600190509392505050565b7f000000000000000000000000000000000000000000000000000000000000000073ffffffffffffffffffffffffffffffffffffffff163373ffffffffffffffffffffffffffffffffffffffff161461117a576040517f08c379a000000000000000000000000000000000000000000000000000000000815260040161117190612094565b60405180910390fd5b82600360006101000a81548173ffffffffffffffffffffffffffffffffffffffff021916908373ffffffffffffffffffffffffffffffffffffffff1602179055506001600360146101000a81548160ff02191690831515021790555081600160006101000a81548173ffffffffffffffffffffffffffffffffffffffff021916908373ffffffffffffffffffffffffffffffffffffffff16021790555080600260006101000a81548173ffffffffffffffffffffffffffffffffffffffff021916908373ffffffffffffffffffffffffffffffffffffffff160217905550505050565b600060011515600360149054906101000a900460ff161515146112b5576040517f08c379a00000000000000000000000000000000000000000000000000000000081526004016112ac90611b30565b60405180910390fd5b600360009054906101000a900473ffffffffffffffffffffffffffffffffffffffff1673ffffffffffffffffffffffffffffffffffffffff163373ffffffffffffffffffffffffffffffffffffffff1614611345576040517f08c379a000000000000000000000000000000000000000000000000000000000815260040161133c90611b9c565b60405180910390fd5b60008083815260200190815260200160002060000160149054906101000a900460ff166113a7576040517f08c379a000000000000000000000000000000000000000000000000000000000815260040161139e90611c08565b60405180910390fd5b60008083815260200190815260200160002060000160009054906101000a900473ffffffffffffffffffffffffffffffffffffffff169050919050565b6135e3806120b583390190565b6000604051905090565b600080fd5b600080fd5b6000819050919050565b61141881611405565b811461142357600080fd5b50565b6000813590506114358161140f565b92915050565b600080fd5b6000601f19601f8301169050919050565b7f4e487b7100000000000000000000000000000000000000000000000000000000600052604160045260246000fd5b61148982611440565b810181811067ffffffffffffffff821117156114a8576114a7611451565b5b80604052505050565b60006114bb6113f1565b90506114c78282611480565b919050565b600067ffffffffffffffff8211156114e7576114e6611451565b5b602082029050919050565b600080fd5b600061150a611505846114cc565b6114b1565b90508060208402830185811115611524576115236114f2565b5b835b8181101561154d57806115398882611426565b845260208401935050602081019050611526565b5050509392505050565b600082601f83011261156c5761156b61143b565b5b60026115798482856114f7565b91505092915050565b600067ffffffffffffffff82111561159d5761159c611451565b5b602082029050919050565b60006115bb6115b684611582565b6114b1565b905080604084028301858111156115d5576115d46114f2565b5b835b818110156115fe57806115ea8882611557565b8452602084019350506040810190506115d7565b5050509392505050565b600082601f83011261161d5761161c61143b565b5b600261162a8482856115a8565b91505092915050565b6000806000806000806000610180888a031215611653576116526113fb565b5b60006116618a828b01611426565b97505060206116728a828b01611426565b96505060406116838a828b01611426565b95505060606116948a828b01611426565b94505060806116a58a828b01611557565b93505060c06116b68a828b01611608565b9250506101406116c88a828b01611557565b91505092959891949750929550565b60008115159050919050565b6116ec816116d7565b82525050565b600060208201905061170760008301846116e3565b92915050565b60008060408385031215611724576117236113fb565b5b600061173285828601611426565b925050602061174385828601611426565b9150509250929050565b600060208284031215611763576117626113fb565b5b600061177184828501611426565b91505092915050565b61178381611405565b82525050565b600060208201905061179e600083018461177a565b92915050565b600073ffffffffffffffffffffffffffffffffffffffff82169050919050565b60006117cf826117a4565b9050919050565b6117df816117c4565b81146117ea57600080fd5b50565b6000813590506117fc816117d6565b92915050565b60008060408385031215611819576118186113fb565b5b600061182785828601611426565b9250506020611838858286016117ed565b9150509250929050565b61184b816117c4565b82525050565b60006020820190506118666000830184611842565b92915050565b6000819050919050565b600061189161188c611887846117a4565b61186c565b6117a4565b9050919050565b60006118a382611876565b9050919050565b60006118b582611898565b9050919050565b6118c5816118aa565b82525050565b60006040820190506118e060008301856118bc565b6118ed60208301846116e3565b9392505050565b600067ffffffffffffffff82111561190f5761190e611451565b5b602082029050602081019050919050565b600061193361192e846118f4565b6114b1565b90508083825260208201905060208402830185811115611956576119556114f2565b5b835b8181101561197f578061196b8882611426565b845260208401935050602081019050611958565b5050509392505050565b600082601f83011261199e5761199d61143b565b5b81356119ae848260208601611920565b91505092915050565b6000806000606084860312156119d0576119cf6113fb565b5b60006119de86828701611426565b935050602084013567ffffffffffffffff8111156119ff576119fe611400565b5b611a0b86828701611989565b925050604084013567ffffffffffffffff811115611a2c57611a2b611400565b5b611a3886828701611989565b9150509250925092565b6000611a4d826117c4565b9050919050565b611a5d81611a42565b8114611a6857600080fd5b50565b600081359050611a7a81611a54565b92915050565b600080600060608486031215611a9957611a986113fb565b5b6000611aa7868287016117ed565b9350506020611ab8868287016117ed565b9250506040611ac986828701611a6b565b9150509250925092565b600082825260208201905092915050565b7f4552330000000000000000000000000000000000000000000000000000000000600082015250565b6000611b1a600383611ad3565b9150611b2582611ae4565b602082019050919050565b60006020820190508181036000830152611b4981611b0d565b9050919050565b7f4552320000000000000000000000000000000000000000000000000000000000600082015250565b6000611b86600383611ad3565b9150611b9182611b50565b602082019050919050565b60006020820190508181036000830152611bb581611b79565b9050919050565b7f566f746520646f6573206e6f7420657869737400000000000000000000000000600082015250565b6000611bf2601383611ad3565b9150611bfd82611bbc565b602082019050919050565b60006020820190508181036000830152611c2181611be5565b9050919050565b600060029050919050565b600081905092915050565b6000819050919050565b611c5181611405565b82525050565b6000611c638383611c48565b60208301905092915050565b6000602082019050919050565b611c8581611c28565b611c8f8184611c33565b9250611c9a82611c3e565b8060005b83811015611ccb578151611cb28782611c57565b9650611cbd83611c6f565b925050600181019050611c9e565b505050505050565b600060029050919050565b600081905092915050565b6000819050919050565b600081905092915050565b611d0781611c28565b611d118184611cf3565b9250611d1c82611c3e565b8060005b83811015611d4d578151611d348782611c57565b9650611d3f83611c6f565b925050600181019050611d20565b505050505050565b6000611d618383611cfe565b60408301905092915050565b6000602082019050919050565b611d8381611cd3565b611d8d8184611cde565b9250611d9882611ce9565b8060005b83811015611dc9578151611db08782611d55565b9650611dbb83611d6d565b925050600181019050611d9c565b505050505050565b600061016082019050611de7600083018961177a565b611df4602083018861177a565b611e01604083018761177a565b611e0e6060830186611c7c565b611e1b60a0830185611d7a565b611e29610120830184611c7c565b979650505050505050565b600063ffffffff82169050919050565b611e4d81611e34565b82525050565b6000611e5e82611898565b9050919050565b611e6e81611e53565b82525050565b6000608082019050611e896000830187611e44565b611e966020830186611842565b611ea36040830185611e65565b611eb0606083018461177a565b95945050505050565b600081519050611ec88161140f565b92915050565b600060208284031215611ee457611ee36113fb565b5b6000611ef284828501611eb9565b91505092915050565b7f4e487b7100000000000000000000000000000000000000000000000000000000600052601160045260246000fd5b6000611f3582611405565b9150611f4083611405565b9250828201905080821115611f5857611f57611efb565b5b92915050565b7f4c656e677468206f6620756e697175654861736820616e6420636f6d6d69746d60008201527f656e742073686f756c64206265207468652073616d6500000000000000000000602082015250565b6000611fba603683611ad3565b9150611fc582611f5e565b604082019050919050565b60006020820190508181036000830152611fe981611fad565b9050919050565b7f4e487b7100000000000000000000000000000000000000000000000000000000600052603260045260246000fd5b6000604082019050612034600083018561177a565b612041602083018461177a565b9392505050565b7f4552310000000000000000000000000000000000000000000000000000000000600082015250565b600061207e600383611ad3565b915061208982612048565b602082019050919050565b600060208201905081810360008301526120ad81612071565b905091905056fe60c06040526000600360006101000a81548163ffffffff021916908363ffffffff1602179055506000600360046101000a81548163ffffffff021916908363ffffffff16021790555034801561005457600080fd5b506040516135e33803806135e383398181016040528101906100769190610b21565b838383828260008263ffffffff16116100c4576040517f08c379a00000000000000000000000000000000000000000000000000000000081526004016100bb90610c0b565b60405180910390fd5b60208263ffffffff161061010d576040517f08c379a000000000000000000000000000000000000000000000000000000000815260040161010490610c77565b60405180910390fd5b816000806101000a81548163ffffffff021916908363ffffffff16021790555080600360086101000a81548173ffffffffffffffffffffffffffffffffffffffff021916908373ffffffffffffffffffffffffffffffffffffffff1602179055507f619c62393708f63887b9ff82e481dbe31792a4445225c39a9d31d2144bccafb4600360089054906101000a900473ffffffffffffffffffffffffffffffffffffffff166040516101bf9190610cf2565b60405180910390a1600360089054906101000a900473ffffffffffffffffffffffffffffffffffffffff1673ffffffffffffffffffffffffffffffffffffffff1660808173ffffffffffffffffffffffffffffffffffffffff168152505060005b8263ffffffff168163ffffffff161015610273576102498163ffffffff1661036f60201b60201c565b600160008363ffffffff168152602001908152602001600020819055508080600101915050610220565b506102956001836102849190610d4f565b63ffffffff1661036f60201b60201c565b600260008081526020019081526020016000208190555050508073ffffffffffffffffffffffffffffffffffffffff1660a08173ffffffffffffffffffffffffffffffffffffffff168152505050505033600660006101000a81548173ffffffffffffffffffffffffffffffffffffffff021916908373ffffffffffffffffffffffffffffffffffffffff1602179055508060098190555060005b6009548111610365576000600a600083815260200190815260200160002081905550808061035d90610d87565b915050610330565b5050505050610e3b565b60008082036103a3577f2fe54c60d3acabf3343a35b6eba15db4821b340f76e741e2249685ed4899af6c60001b9050610a09565b600182036103d6577f256a6135777eee2fd26f54b8b7037a25439d5235caee224154186d2b8a52e31d60001b9050610a09565b60028203610409577f1151949895e82ab19924de92c40a3d6f7bcb60d92b00504b8199613683f0c20060001b9050610a09565b6003820361043c577f20121ee811489ff8d61f09fb89e313f14959a0f28bb428a20dba6b0b068b3bdb60001b9050610a09565b6004820361046f577f0a89ca6ffa14cc462cfedb842c30ed221a50a3d6bf022a6a57dc82ab24c157c960001b9050610a09565b600582036104a2577f24ca05c2b5cd42e890d6be94c68d0689f4f21c9cec9c0f13fe41d566dfb5495960001b9050610a09565b600682036104d5577f1ccb97c932565a92c60156bdba2d08f3bf1377464e025cee765679e604a7315c60001b9050610a09565b60078203610508577f19156fbd7d1a8bf5cba8909367de1b624534ebab4f0f79e003bccdd1b182bdb460001b9050610a09565b6008820361053b577f261af8c1f0912e465744641409f622d466c3920ac6e5ff37e36604cb11dfff8060001b9050610a09565b6009820361056d577e58459724ff6ca5a1652fcbc3e82b93895cf08e975b19beab3f54c217d1c00760001b9050610a09565b600a82036105a0577f1f04ef20dee48d39984d8eabe768a70eafa6310ad20849d4573c3c40c2ad1e3060001b9050610a09565b600b82036105d3577f1bea3dec5dab51567ce7e200a30f7ba6d4276aeaa53e2686f962a46c66d511e560001b9050610a09565b600c8203610606577f0ee0f941e2da4b9e31c3ca97a40d8fa9ce68d97c084177071b3cb46cd3372f0f60001b9050610a09565b600d8203610639577f1ca9503e8935884501bbaf20be14eb4c46b89772c97b96e3b2ebf3a36a948bbd60001b9050610a09565b600e820361066c577f133a80e30697cd55d8f7d4b0965b7be24057ba5dc3da898ee2187232446cb10860001b9050610a09565b600f820361069f577f13e6d8fc88839ed76e182c2a779af5b2c0da9dd18c90427a644f7e148a6253b660001b9050610a09565b601082036106d2577f1eb16b057a477f4bc8f572ea6bee39561098f78f15bfb3699dcbb7bd8db6185460001b9050610a09565b60118203610705577f0da2cb16a1ceaabf1c16b838f7a9e3f2a3a3088d9e0a6debaa748114620696ea60001b9050610a09565b60128203610738577f24a3b3d822420b14b5d8cb6c28a574f01e98ea9e940551d2ebd75cee12649f9d60001b9050610a09565b6013820361076b577f198622acbd783d1b0d9064105b1fc8e4d8889de95c4c519b3f635809fe6afc0560001b9050610a09565b6014820361079e577f29d7ed391256ccc3ea596c86e933b89ff339d25ea8ddced975ae2fe30b5296d460001b9050610a09565b601582036107d1577f19be59f2f0413ce78c0c3703a3a5451b1d7f39629fa33abd11548a76065b296760001b9050610a09565b60168203610804577f1ff3f61797e538b70e619310d33f2a063e7eb59104e112e95738da1254dc345360001b9050610a09565b60178203610837577f10c16ae9959cf8358980d9dd9616e48228737310a10e2b6b731c1a548f036c4860001b9050610a09565b6018820361086a577f0ba433a63174a90ac20992e75e3095496812b652685b5e1a2eae0b1bf4e8fcd160001b9050610a09565b6019820361089d577f019ddb9df2bc98d987d0dfeca9d2b643deafab8f7036562e627c3667266a044c60001b9050610a09565b601a82036108d0577f2d3c88b23175c5a5565db928414c66d1912b11acf974b2e644caaac04739ce9960001b9050610a09565b601b8203610903577f2eab55f6ae4e66e32c5189eed5c470840863445760f5ed7e7b69b2a62600f35460001b9050610a09565b601c8203610935577e2df37a2642621802383cf952bf4dd1f32e05433beeb1fd41031fb7eace979d60001b9050610a09565b601d8203610968577f104aeb41435db66c3e62feccc1d6f5d98d0a0ed75d1374db457cf462e3a1f42760001b9050610a09565b601e820361099b577f1f3c6fd858e9a7d4b0d1f38e256a09d81d5a5e3c963987e2d4b814cfab7c6ebb60001b9050610a09565b601f82036109ce577f2c7a07d20dff79d01fecedc1134284a8d08436606c93693b67e333f671bf69cc60001b9050610a09565b6040517f08c379a0000000000000000000000000000000000000000000000000000000008152600401610a0090610e1b565b60405180910390fd5b919050565b600080fd5b600063ffffffff82169050919050565b610a2c81610a13565b8114610a3757600080fd5b50565b600081519050610a4981610a23565b92915050565b600073ffffffffffffffffffffffffffffffffffffffff82169050919050565b6000610a7a82610a4f565b9050919050565b610a8a81610a6f565b8114610a9557600080fd5b50565b600081519050610aa781610a81565b92915050565b6000610ab882610a6f565b9050919050565b610ac881610aad565b8114610ad357600080fd5b50565b600081519050610ae581610abf565b92915050565b6000819050919050565b610afe81610aeb565b8114610b0957600080fd5b50565b600081519050610b1b81610af5565b92915050565b60008060008060808587031215610b3b57610b3a610a0e565b5b6000610b4987828801610a3a565b9450506020610b5a87828801610a98565b9350506040610b6b87828801610ad6565b9250506060610b7c87828801610b0c565b91505092959194509250565b600082825260208201905092915050565b7f5f6c6576656c732073686f756c642062652067726561746572207468616e207a60008201527f65726f0000000000000000000000000000000000000000000000000000000000602082015250565b6000610bf5602383610b88565b9150610c0082610b99565b604082019050919050565b60006020820190508181036000830152610c2481610be8565b9050919050565b7f5f6c6576656c732073686f756c64206265206c657373207468616e2033320000600082015250565b6000610c61601e83610b88565b9150610c6c82610c2b565b602082019050919050565b60006020820190508181036000830152610c9081610c54565b9050919050565b7f6861736865724164647200000000000000000000000000000000000000000000600082015250565b6000610ccd600a83610b88565b9150610cd882610c97565b602082019050919050565b610cec81610a6f565b82525050565b60006040820190508181036000830152610d0b81610cc0565b9050610d1a6020830184610ce3565b92915050565b7f4e487b7100000000000000000000000000000000000000000000000000000000600052601160045260246000fd5b6000610d5a82610a13565b9150610d6583610a13565b9250828203905063ffffffff811115610d8157610d80610d20565b5b92915050565b6000610d9282610aeb565b91507fffffffffffffffffffffffffffffffffffffffffffffffffffffffffffffffff8203610dc457610dc3610d20565b5b600182019050919050565b7f496e646578206f7574206f6620626f756e647300000000000000000000000000600082015250565b6000610e05601383610b88565b9150610e1082610dcf565b602082019050919050565b60006020820190508181036000830152610e3481610df8565b9050919050565b60805160a05161277c610e676000396000818161058801526113810152600061118e015261277c6000f3fe608060405234801561001057600080fd5b50600436106101585760003560e01c8063ba70f757116100c3578063e82955881161007c578063e8295588146103df578063ec7329591461040f578063ed33639f1461042d578063f178e47c1461044b578063fa52c7d81461047b578063fc7e9c6f146104ab57610158565b8063ba70f7571461031b578063c2b40ae414610339578063cc2ee19614610369578063cd87a3b414610387578063ce8f6377146103a5578063dcf5443f146103c157610158565b80636d9833e3116101155780636d9833e314610233578063839df945146102635780638da5cb5b1461029357806390eeb02b146102b1578063955e0377146102cf5780639fca5169146102ff57610158565b80631407beb81461015d5780632997e86b146101795780632b7ac3f3146101a9578063414a37ba146101c75780634ecf518b146101e55780635bb9399514610203575b600080fd5b610177600480360381019061017291906116ef565b6104c9565b005b610193600480360381019061018e9190611765565b610566565b6040516101a091906117ad565b60405180910390f35b6101b1610586565b6040516101be9190611847565b60405180910390f35b6101cf6105aa565b6040516101dc9190611871565b60405180910390f35b6101ed6105ce565b6040516101fa91906118ab565b60405180910390f35b61021d600480360381019061021891906116ef565b6105e2565b60405161022a91906118d5565b60405180910390f35b61024d60048036038101906102489190611765565b610841565b60405161025a91906117ad565b60405180910390f35b61027d60048036038101906102789190611765565b6108de565b60405161028a91906117ad565b60405180910390f35b61029b6108fe565b6040516102a89190611911565b60405180910390f35b6102b9610924565b6040516102c691906118ab565b60405180910390f35b6102e960048036038101906102e4919061192c565b61093a565b6040516102f69190611871565b60405180910390f35b61031960048036038101906103149190611985565b610957565b005b6103236109b2565b60405161033091906118d5565b60405180910390f35b610353600480360381019061034e919061192c565b6109e5565b60405161036091906118d5565b60405180910390f35b6103716109fd565b60405161037e9190611871565b60405180910390f35b61038f610a07565b60405161039c91906118ab565b60405180910390f35b6103bf60048036038101906103ba9190611baa565b610a0c565b005b6103c9610aa3565b6040516103d69190611911565b60405180910390f35b6103f960048036038101906103f4919061192c565b610ac9565b60405161040691906118d5565b60405180910390f35b610417611168565b6040516104249190611871565b60405180910390f35b61043561118c565b6040516104429190611c5a565b60405180910390f35b6104656004803603810190610460919061192c565b6111b0565b60405161047291906118d5565b60405180910390f35b61049560048036038101906104909190611985565b6111c8565b6040516104a291906117ad565b60405180910390f35b6104b36111e8565b6040516104c091906118ab565b60405180910390f35b6008600083815260200190815260200160002060009054906101000a900460ff161561052a576040517f08c379a000000000000000000000000000000000000000000000000000000000815260040161052190611cf8565b60405180910390fd5b6105368160001b6111fe565b60016008600084815260200190815260200160002060006101000a81548160ff0219169083151502179055505050565b60046020528060005260406000206000915054906101000a900460ff1681565b7f000000000000000000000000000000000000000000000000000000000000000081565b7f30644e72e131a029b85045b68181585d2833e84879b9709143e1f593f000000181565b60008054906101000a900463ffffffff1681565b60007f30644e72e131a029b85045b68181585d2833e84879b9709143e1f593f00000018310610646576040517f08c379a000000000000000000000000000000000000000000000000000000000815260040161063d90611d64565b60405180910390fd5b7f30644e72e131a029b85045b68181585d2833e84879b9709143e1f593f000000182106106a8576040517f08c379a000000000000000000000000000000000000000000000000000000000815260040161069f90611df6565b60405180910390fd5b60008390506000600360089054906101000a900473ffffffffffffffffffffffffffffffffffffffff1673ffffffffffffffffffffffffffffffffffffffff16633f1a1187838360006040518463ffffffff1660e01b815260040161070f93929190611e51565b6040805180830381865afa15801561072b573d6000803e3d6000fd5b505050506040513d601f19601f8201168201806040525081019061074f9190611e9d565b80925081935050507f30644e72e131a029b85045b68181585d2833e84879b9709143e1f593f00000018061078657610785611edd565b5b8483089150600360089054906101000a900473ffffffffffffffffffffffffffffffffffffffff1673ffffffffffffffffffffffffffffffffffffffff16633f1a1187838360006040518463ffffffff1660e01b81526004016107eb93929190611e51565b6040805180830381865afa158015610807573d6000803e3d6000fd5b505050506040513d601f19601f8201168201806040525081019061082b9190611e9d565b80925081935050508160001b9250505092915050565b60008060001b820361085657600090506108d9565b6000600360009054906101000a900463ffffffff16905060008190505b600260008263ffffffff16815260200190815260200160002054840361089e576001925050506108d9565b60008163ffffffff16036108b157601e90505b80806108bc90611f3b565b9150508163ffffffff168163ffffffff1603610873576000925050505b919050565b60056020528060005260406000206000915054906101000a900460ff1681565b600660009054906101000a900473ffffffffffffffffffffffffffffffffffffffff1681565b600360009054906101000a900463ffffffff1681565b6000600a6000838152602001908152602001600020549050919050565b6001600760008373ffffffffffffffffffffffffffffffffffffffff1673ffffffffffffffffffffffffffffffffffffffff16815260200190815260200160002060006101000a81548160ff02191690831515021790555050565b600060026000600360009054906101000a900463ffffffff1663ffffffff16815260200190815260200160002054905090565b60026020528060005260406000206000915090505481565b6000600954905090565b601e81565b600954861115610a51576040517f08c379a0000000000000000000000000000000000000000000000000000000008152600401610a4890611fb0565b60405180910390fd5b610a648560001b8560001b8585856112d6565b6001600a600088815260200190815260200160002054610a849190611fd0565b600a600088815260200190815260200160002081905550505050505050565b600360089054906101000a900473ffffffffffffffffffffffffffffffffffffffff1681565b6000808203610afd577f2fe54c60d3acabf3343a35b6eba15db4821b340f76e741e2249685ed4899af6c60001b9050611163565b60018203610b30577f256a6135777eee2fd26f54b8b7037a25439d5235caee224154186d2b8a52e31d60001b9050611163565b60028203610b63577f1151949895e82ab19924de92c40a3d6f7bcb60d92b00504b8199613683f0c20060001b9050611163565b60038203610b96577f20121ee811489ff8d61f09fb89e313f14959a0f28bb428a20dba6b0b068b3bdb60001b9050611163565b60048203610bc9577f0a89ca6ffa14cc462cfedb842c30ed221a50a3d6bf022a6a57dc82ab24c157c960001b9050611163565b60058203610bfc577f24ca05c2b5cd42e890d6be94c68d0689f4f21c9cec9c0f13fe41d566dfb5495960001b9050611163565b60068203610c2f577f1ccb97c932565a92c60156bdba2d08f3bf1377464e025cee765679e604a7315c60001b9050611163565b60078203610c62577f19156fbd7d1a8bf5cba8909367de1b624534ebab4f0f79e003bccdd1b182bdb460001b9050611163565b60088203610c95577f261af8c1f0912e465744641409f622d466c3920ac6e5ff37e36604cb11dfff8060001b9050611163565b60098203610cc7577e58459724ff6ca5a1652fcbc3e82b93895cf08e975b19beab3f54c217d1c00760001b9050611163565b600a8203610cfa577f1f04ef20dee48d39984d8eabe768a70eafa6310ad20849d4573c3c40c2ad1e3060001b9050611163565b600b8203610d2d577f1bea3dec5dab51567ce7e200a30f7ba6d4276aeaa53e2686f962a46c66d511e560001b9050611163565b600c8203610d60577f0ee0f941e2da4b9e31c3ca97a40d8fa9ce68d97c084177071b3cb46cd3372f0f60001b9050611163565b600d8203610d93577f1ca9503e8935884501bbaf20be14eb4c46b89772c97b96e3b2ebf3a36a948bbd60001b9050611163565b600e8203610dc6577f133a80e30697cd55d8f7d4b0965b7be24057ba5dc3da898ee2187232446cb10860001b9050611163565b600f8203610df9577f13e6d8fc88839ed76e182c2a779af5b2c0da9dd18c90427a644f7e148a6253b660001b9050611163565b60108203610e2c577f1eb16b057a477f4bc8f572ea6bee39561098f78f15bfb3699dcbb7bd8db6185460001b9050611163565b60118203610e5f577f0da2cb16a1ceaabf1c16b838f7a9e3f2a3a3088d9e0a6debaa748114620696ea60001b9050611163565b60128203610e92577f24a3b3d822420b14b5d8cb6c28a574f01e98ea9e940551d2ebd75cee12649f9d60001b9050611163565b60138203610ec5577f198622acbd783d1b0d9064105b1fc8e4d8889de95c4c519b3f635809fe6afc0560001b9050611163565b60148203610ef8577f29d7ed391256ccc3ea596c86e933b89ff339d25ea8ddced975ae2fe30b5296d460001b9050611163565b60158203610f2b577f19be59f2f0413ce78c0c3703a3a5451b1d7f39629fa33abd11548a76065b296760001b9050611163565b60168203610f5e577f1ff3f61797e538b70e619310d33f2a063e7eb59104e112e95738da1254dc345360001b9050611163565b60178203610f91577f10c16ae9959cf8358980d9dd9616e48228737310a10e2b6b731c1a548f036c4860001b9050611163565b60188203610fc4577f0ba433a63174a90ac20992e75e3095496812b652685b5e1a2eae0b1bf4e8fcd160001b9050611163565b60198203610ff7577f019ddb9df2bc98d987d0dfeca9d2b643deafab8f7036562e627c3667266a044c60001b9050611163565b601a820361102a577f2d3c88b23175c5a5565db928414c66d1912b11acf974b2e644caaac04739ce9960001b9050611163565b601b820361105d577f2eab55f6ae4e66e32c5189eed5c470840863445760f5ed7e7b69b2a62600f35460001b9050611163565b601c820361108f577e2df37a2642621802383cf952bf4dd1f32e05433beeb1fd41031fb7eace979d60001b9050611163565b601d82036110c2577f104aeb41435db66c3e62feccc1d6f5d98d0a0ed75d1374db457cf462e3a1f42760001b9050611163565b601e82036110f5577f1f3c6fd858e9a7d4b0d1f38e256a09d81d5a5e3c963987e2d4b814cfab7c6ebb60001b9050611163565b601f8203611128577f2c7a07d20dff79d01fecedc1134284a8d08436606c93693b67e333f671bf69cc60001b9050611163565b6040517f08c379a000000000000000000000000000000000000000000000000000000000815260040161115a90612050565b60405180910390fd5b919050565b7f2fe54c60d3acabf3343a35b6eba15db4821b340f76e741e2249685ed4899af6c81565b7f000000000000000000000000000000000000000000000000000000000000000081565b60016020528060005260406000206000915090505481565b60076020528060005260406000206000915054906101000a900460ff1681565b600360049054906101000a900463ffffffff1681565b6005600082815260200190815260200160002060009054906101000a900460ff161561125f576040517f08c379a0000000000000000000000000000000000000000000000000000000008152600401611256906120e2565b60405180910390fd5b60016005600083815260200190815260200160002060006101000a81548160ff0219169083151502179055506000611296826114ab565b9050817f401999886e5f90a91b92a0bfb7e2d48f714651a4d1c929bb3a753525ba066b9182426040516112ca929190612102565b60405180910390a25050565b6004600086815260200190815260200160002060009054906101000a900460ff1615611337576040517f08c379a000000000000000000000000000000000000000000000000000000000815260040161132e90612177565b60405180910390fd5b61134084610841565b61137f576040517f08c379a0000000000000000000000000000000000000000000000000000000008152600401611376906121e3565b60405180910390fd5b7f000000000000000000000000000000000000000000000000000000000000000073ffffffffffffffffffffffffffffffffffffffff1663f5c9d69e84848460405180604001604052808b60001c81526020018a60001c8152506040518563ffffffff1660e01b81526004016113f894939291906123ac565b602060405180830381865afa158015611415573d6000803e3d6000fd5b505050506040513d601f19601f82011682018060405250810190611439919061241f565b611478576040517f08c379a000000000000000000000000000000000000000000000000000000000815260040161146f90612498565b60405180910390fd5b60016004600087815260200190815260200160002060006101000a81548160ff0219169083151502179055505050505050565b600080600360049054906101000a900463ffffffff16905060008054906101000a900463ffffffff1660026114e091906125eb565b63ffffffff168163ffffffff160361152d576040517f08c379a00000000000000000000000000000000000000000000000000000000081526004016115249061268c565b60405180910390fd5b6000819050600084905060008060005b60008054906101000a900463ffffffff1663ffffffff168163ffffffff16101561160057600060028661157091906126ac565b63ffffffff16036115b25783925061158d8163ffffffff16610ac9565b915083600160008363ffffffff168152602001908152602001600020819055506115d2565b600160008263ffffffff1681526020019081526020016000205492508391505b6115e28360001c8360001c6105e2565b93506002856115f191906126dd565b9450808060010191505061153d565b506000601e6001600360009054906101000a900463ffffffff16611624919061270e565b61162e91906126ac565b905080600360006101000a81548163ffffffff021916908363ffffffff16021790555083600260008363ffffffff1681526020019081526020016000208190555060018661167c919061270e565b600360046101000a81548163ffffffff021916908363ffffffff160217905550859650505050505050919050565b6000604051905090565b600080fd5b6000819050919050565b6116cc816116b9565b81146116d757600080fd5b50565b6000813590506116e9816116c3565b92915050565b60008060408385031215611706576117056116b4565b5b6000611714858286016116da565b9250506020611725858286016116da565b9150509250929050565b6000819050919050565b6117428161172f565b811461174d57600080fd5b50565b60008135905061175f81611739565b92915050565b60006020828403121561177b5761177a6116b4565b5b600061178984828501611750565b91505092915050565b60008115159050919050565b6117a781611792565b82525050565b60006020820190506117c2600083018461179e565b92915050565b600073ffffffffffffffffffffffffffffffffffffffff82169050919050565b6000819050919050565b600061180d611808611803846117c8565b6117e8565b6117c8565b9050919050565b600061181f826117f2565b9050919050565b600061183182611814565b9050919050565b61184181611826565b82525050565b600060208201905061185c6000830184611838565b92915050565b61186b816116b9565b82525050565b60006020820190506118866000830184611862565b92915050565b600063ffffffff82169050919050565b6118a58161188c565b82525050565b60006020820190506118c0600083018461189c565b92915050565b6118cf8161172f565b82525050565b60006020820190506118ea60008301846118c6565b92915050565b60006118fb826117c8565b9050919050565b61190b816118f0565b82525050565b60006020820190506119266000830184611902565b92915050565b600060208284031215611942576119416116b4565b5b6000611950848285016116da565b91505092915050565b611962816118f0565b811461196d57600080fd5b50565b60008135905061197f81611959565b92915050565b60006020828403121561199b5761199a6116b4565b5b60006119a984828501611970565b91505092915050565b600080fd5b6000601f19601f8301169050919050565b7f4e487b7100000000000000000000000000000000000000000000000000000000600052604160045260246000fd5b611a00826119b7565b810181811067ffffffffffffffff82111715611a1f57611a1e6119c8565b5b80604052505050565b6000611a326116aa565b9050611a3e82826119f7565b919050565b600067ffffffffffffffff821115611a5e57611a5d6119c8565b5b602082029050919050565b600080fd5b6000611a81611a7c84611a43565b611a28565b90508060208402830185811115611a9b57611a9a611a69565b5b835b81811015611ac45780611ab088826116da565b845260208401935050602081019050611a9d565b5050509392505050565b600082601f830112611ae357611ae26119b2565b5b6002611af0848285611a6e565b91505092915050565b600067ffffffffffffffff821115611b1457611b136119c8565b5b602082029050919050565b6000611b32611b2d84611af9565b611a28565b90508060408402830185811115611b4c57611b4b611a69565b5b835b81811015611b755780611b618882611ace565b845260208401935050604081019050611b4e565b5050509392505050565b600082601f830112611b9457611b936119b2565b5b6002611ba1848285611b1f565b91505092915050565b6000806000806000806101608789031215611bc857611bc76116b4565b5b6000611bd689828a016116da565b9650506020611be789828a016116da565b9550506040611bf889828a016116da565b9450506060611c0989828a01611ace565b93505060a0611c1a89828a01611b7f565b925050610120611c2c89828a01611ace565b9150509295509295509295565b6000611c4482611814565b9050919050565b611c5481611c39565b82525050565b6000602082019050611c6f6000830184611c4b565b92915050565b600082825260208201905092915050565b7f5468697320756e69717565206861736820697320616c7265616479207573656460008201527f2100000000000000000000000000000000000000000000000000000000000000602082015250565b6000611ce2602183611c75565b9150611ced82611c86565b604082019050919050565b60006020820190508181036000830152611d1181611cd5565b9050919050565b7f5f6c6566742073686f756c6420626520696e7369646520746865206669656c64600082015250565b6000611d4e602083611c75565b9150611d5982611d18565b602082019050919050565b60006020820190508181036000830152611d7d81611d41565b9050919050565b7f5f72696768742073686f756c6420626520696e7369646520746865206669656c60008201527f6400000000000000000000000000000000000000000000000000000000000000602082015250565b6000611de0602183611c75565b9150611deb82611d84565b604082019050919050565b60006020820190508181036000830152611e0f81611dd3565b9050919050565b6000819050919050565b6000611e3b611e36611e3184611e16565b6117e8565b6116b9565b9050919050565b611e4b81611e20565b82525050565b6000606082019050611e666000830186611862565b611e736020830185611862565b611e806040830184611e42565b949350505050565b600081519050611e97816116c3565b92915050565b60008060408385031215611eb457611eb36116b4565b5b6000611ec285828601611e88565b9250506020611ed385828601611e88565b9150509250929050565b7f4e487b7100000000000000000000000000000000000000000000000000000000600052601260045260246000fd5b7f4e487b7100000000000000000000000000000000000000000000000000000000600052601160045260246000fd5b6000611f468261188c565b915060008203611f5957611f58611f0c565b5b600182039050919050565b7f496e76616c6964206f7074696f6e210000000000000000000000000000000000600082015250565b6000611f9a600f83611c75565b9150611fa582611f64565b602082019050919050565b60006020820190508181036000830152611fc981611f8d565b9050919050565b6000611fdb826116b9565b9150611fe6836116b9565b9250828201905080821115611ffe57611ffd611f0c565b5b92915050565b7f496e646578206f7574206f6620626f756e647300000000000000000000000000600082015250565b600061203a601383611c75565b915061204582612004565b602082019050919050565b600060208201905081810360008301526120698161202d565b9050919050565b7f54686520636f6d6d69746d656e7420686173206265656e207375626d6974746560008201527f6400000000000000000000000000000000000000000000000000000000000000602082015250565b60006120cc602183611c75565b91506120d782612070565b604082019050919050565b600060208201905081810360008301526120fb816120bf565b9050919050565b6000604082019050612117600083018561189c565b6121246020830184611862565b9392505050565b7f546865206e756c6c696669657220686173206265656e207375626d6974746564600082015250565b6000612161602083611c75565b915061216c8261212b565b602082019050919050565b6000602082019050818103600083015261219081612154565b9050919050565b7f43616e6e6f742066696e6420796f7572206d65726b6c6520726f6f7400000000600082015250565b60006121cd601c83611c75565b91506121d882612197565b602082019050919050565b600060208201905081810360008301526121fc816121c0565b9050919050565b600060029050919050565b600081905092915050565b6000819050919050565b61222c816116b9565b82525050565b600061223e8383612223565b60208301905092915050565b6000602082019050919050565b61226081612203565b61226a818461220e565b925061227582612219565b8060005b838110156122a657815161228d8782612232565b96506122988361224a565b925050600181019050612279565b505050505050565b600060029050919050565b600081905092915050565b6000819050919050565b600081905092915050565b6122e281612203565b6122ec81846122ce565b92506122f782612219565b8060005b8381101561232857815161230f8782612232565b965061231a8361224a565b9250506001810190506122fb565b505050505050565b600061233c83836122d9565b60408301905092915050565b6000602082019050919050565b61235e816122ae565b61236881846122b9565b9250612373826122c4565b8060005b838110156123a457815161238b8782612330565b965061239683612348565b925050600181019050612377565b505050505050565b6000610140820190506123c26000830187612257565b6123cf6040830186612355565b6123dc60c0830185612257565b6123ea610100830184612257565b95945050505050565b6123fc81611792565b811461240757600080fd5b50565b600081519050612419816123f3565b92915050565b600060208284031215612435576124346116b4565b5b60006124438482850161240a565b91505092915050565b7f496e76616c69642070726f6f6600000000000000000000000000000000000000600082015250565b6000612482600d83611c75565b915061248d8261244c565b602082019050919050565b600060208201905081810360008301526124b181612475565b9050919050565b60008160011c9050919050565b6000808291508390505b600185111561250f578086048111156124eb576124ea611f0c565b5b60018516156124fa5780820291505b8081029050612508856124b8565b94506124cf565b94509492505050565b60008261252857600190506125e4565b8161253657600090506125e4565b816001811461254c576002811461255657612585565b60019150506125e4565b60ff84111561256857612567611f0c565b5b8360020a91508482111561257f5761257e611f0c565b5b506125e4565b5060208310610133831016604e8410600b84101617156125ba5782820a9050838111156125b5576125b4611f0c565b5b6125e4565b6125c784848460016124c5565b925090508184048111156125de576125dd611f0c565b5b81810290505b9392505050565b60006125f68261188c565b91506126018361188c565b925061261263ffffffff8484612518565b905092915050565b7f4d65726b6c6520747265652069732066756c6c2e204e6f206d6f7265206c656160008201527f7665732063616e20626520616464656400000000000000000000000000000000602082015250565b6000612676603083611c75565b91506126818261261a565b604082019050919050565b600060208201905081810360008301526126a581612669565b9050919050565b60006126b78261188c565b91506126c28361188c565b9250826126d2576126d1611edd565b5b828206905092915050565b60006126e88261188c565b91506126f38361188c565b92508261270357612702611edd565b5b828204905092915050565b60006127198261188c565b91506127248361188c565b9250828201905063ffffffff8111156127405761273f611f0c565b5b9291505056fea264697066735822122076b0e08e48dd5d308c890743b0195ea257f9d13ab6cf997fd471b922826e2b6d64736f6c634300081b0033a26469706673582212203e0901d016113759948808827130d755984f9c66349300ef4419623844e3c88b64736f6c634300081b0033",
  "linkReferences": {},
  "deployedLinkReferences": {}
}