{
  "_format": "hh-sol-artifact-1",
  "contractName": "VRO",
  "sourceName": "contracts/VRO.sol",
  "abi": [
    {
      "inputs": [],
      "stateMutability": "nonpayable",
      "type": "constructor"
    },
    {
      "anonymous": false,
      "inputs": [
        {
          "indexed": false,
          "internalType": "uint256",
          "name": "conflictID",
          "type": "uint256"
        },
        {
          "indexed": false,
          "internalType": "address",
          "name": "PreviousValidator",
          "type": "address"
        },
        {
          "indexed": false,
          "internalType": "address",
          "name": "NewValidator",
          "type": "address"
        }
      ],
      "name": "ChangeValidator",
      "type": "event"
    },
    {
      "anonymous": false,
      "inputs": [
        {
          "indexed": false,
          "internalType": "uint256",
          "name": "conflictID",
          "type": "uint256"
        }
      ],
      "name": "ConflictResolved",
      "type": "event"
    },
    {
      "anonymous": false,
      "inputs": [
        {
          "indexed": false,
          "internalType": "uint256",
          "name": "conflictID",
          "type": "uint256"
        },
        {
          "indexed": false,
          "internalType": "uint256[]",
          "name": "voters",
          "type": "uint256[]"
        }
      ],
      "name": "RegisterVoter",
      "type": "event"
    },
    {
      "anonymous": false,
      "inputs": [
        {
          "indexed": false,
          "internalType": "uint256",
          "name": "conflictID",
          "type": "uint256"
        },
        {
          "indexed": false,
          "internalType": "string",
          "name": "IP_Prefix",
          "type": "string"
        },
        {
          "indexed": false,
          "internalType": "uint256[]",
          "name": "MOAS",
          "type": "uint256[]"
        },
        {
          "indexed": false,
          "internalType": "address",
          "name": "Validator",
          "type": "address"
        },
        {
          "indexed": false,
          "internalType": "address",
          "name": "Reporter",
          "type": "address"
        }
      ],
      "name": "ReportConflict",
      "type": "event"
    },
    {
      "anonymous": false,
      "inputs": [
        {
          "indexed": false,
          "internalType": "address",
          "name": "sender",
          "type": "address"
        },
        {
          "indexed": false,
          "internalType": "bytes4",
          "name": "sig",
          "type": "bytes4"
        },
        {
          "indexed": false,
          "internalType": "bytes",
          "name": "data",
          "type": "bytes"
        },
        {
          "indexed": false,
          "internalType": "uint256",
          "name": "blockNumber",
          "type": "uint256"
        }
      ],
      "name": "TestEvent",
      "type": "event"
    },
    {
      "inputs": [],
      "name": "conflictManager",
      "outputs": [
        {
          "internalType": "contract ConflictManager",
          "name": "",
          "type": "address"
        }
      ],
      "stateMutability": "view",
      "type": "function"
    },
    {
      "inputs": [
        {
          "internalType": "string",
          "name": "_name",
          "type": "string"
        },
        {
          "internalType": "address",
          "name": "_address",
          "type": "address"
        }
      ],
      "name": "createManager",
      "outputs": [
        {
          "internalType": "bool",
          "name": "",
          "type": "bool"
        }
      ],
      "stateMutability": "nonpayable",
      "type": "function"
    },
    {
      "inputs": [
        {
          "internalType": "uint256",
          "name": "_ASN",
          "type": "uint256"
        }
      ],
      "name": "createParticipant",
      "outputs": [
        {
          "internalType": "bool",
          "name": "",
          "type": "bool"
        }
      ],
      "stateMutability": "nonpayable",
      "type": "function"
    },
    {
      "inputs": [],
      "name": "deployer",
      "outputs": [
        {
          "internalType": "address",
          "name": "",
          "type": "address"
        }
      ],
      "stateMutability": "view",
      "type": "function"
    },
    {
      "inputs": [],
      "name": "getAllManager",
      "outputs": [
        {
          "internalType": "address[]",
          "name": "",
          "type": "address[]"
        }
      ],
      "stateMutability": "view",
      "type": "function"
    },
    {
      "inputs": [],
      "name": "getAllParticipant",
      "outputs": [
        {
          "internalType": "uint256[]",
          "name": "",
          "type": "uint256[]"
        }
      ],
      "stateMutability": "view",
      "type": "function"
    },
    {
      "inputs": [
        {
          "internalType": "uint256",
          "name": "_conflictID",
          "type": "uint256"
        }
      ],
      "name": "getConflictVotersByID",
      "outputs": [
        {
          "internalType": "uint256[]",
          "name": "",
          "type": "uint256[]"
        }
      ],
      "stateMutability": "view",
      "type": "function"
    },
    {
      "inputs": [
        {
          "internalType": "uint256",
          "name": "_conflictID",
          "type": "uint256"
        }
      ],
      "name": "getConlictByID",
      "outputs": [
        {
          "components": [
            {
              "internalType": "uint256",
              "name": "ConflictID",
              "type": "uint256"
            },
            {
              "internalType": "string",
              "name": "IP_Prefix",
              "type": "string"
            },
            {
              "internalType": "uint256[]",
              "name": "MOAS",
              "type": "uint256[]"
            },
            {
              "internalType": "address",
              "name": "Validator",
              "type": "address"
            },
            {
              "internalType": "address",
              "name": "Reporter",
              "type": "address"
            },
            {
              "internalType": "uint256[]",
              "name": "Voters",
              "type": "uint256[]"
            },
            {
              "internalType": "uint256",
              "name": "Status",
              "type": "uint256"
            },
            {
              "internalType": "uint256",
              "name": "Options",
              "type": "uint256"
            },
            {
              "internalType": "string[]",
              "name": "OptionNames",
              "type": "string[]"
            },
            {
              "internalType": "uint256",
              "name": "Result",
              "type": "uint256"
            }
          ],
          "internalType": "struct ConflictLib.Conflict",
          "name": "",
          "type": "tuple"
        }
      ],
      "stateMutability": "view",
      "type": "function"
    },
    {
      "inputs": [],
      "name": "getCurrentConflictID",
      "outputs": [
        {
          "internalType": "uint256",
          "name": "",
          "type": "uint256"
        }
      ],
      "stateMutability": "view",
      "type": "function"
    },
    {
      "inputs": [
        {
          "internalType": "uint256",
          "name": "_conflictID",
          "type": "uint256"
        },
        {
          "internalType": "uint256",
          "name": "_option",
          "type": "uint256"
        }
      ],
      "name": "getOptionCounter",
      "outputs": [
        {
          "internalType": "uint256",
          "name": "",
          "type": "uint256"
        }
      ],
      "stateMutability": "view",
      "type": "function"
    },
    {
      "inputs": [
        {
          "internalType": "uint256",
          "name": "_conflictID",
          "type": "uint256"
        }
      ],
      "name": "getOptionSum",
      "outputs": [
        {
          "internalType": "uint256",
          "name": "",
          "type": "uint256"
        }
      ],
      "stateMutability": "view",
      "type": "function"
    },
    {
      "inputs": [
        {
          "internalType": "uint256",
          "name": "_conflictID",
          "type": "uint256"
        }
      ],
      "name": "getStatus",
      "outputs": [
        {
          "internalType": "uint256",
          "name": "",
          "type": "uint256"
        }
      ],
      "stateMutability": "view",
      "type": "function"
    },
    {
      "inputs": [
        {
          "internalType": "uint256",
          "name": "_voteId",
          "type": "uint256"
        }
      ],
      "name": "getVoteAddress",
      "outputs": [
        {
          "internalType": "address",
          "name": "",
          "type": "address"
        }
      ],
      "stateMutability": "view",
      "type": "function"
    },
    {
      "inputs": [
        {
          "internalType": "address",
          "name": "_managerManagerAddr",
          "type": "address"
        },
        {
          "internalType": "address",
          "name": "_userManagerAddr",
          "type": "address"
        },
        {
          "internalType": "address",
          "name": "_conflictManagerAddr",
          "type": "address"
        },
        {
          "internalType": "address",
          "name": "_voteManagerAddr",
          "type": "address"
        }
      ],
      "name": "initialize",
      "outputs": [],
      "stateMutability": "nonpayable",
      "type": "function"
    },
    {
      "inputs": [],
      "name": "isManager",
      "outputs": [
        {
          "internalType": "bool",
          "name": "",
          "type": "bool"
        }
      ],
      "stateMutability": "view",
      "type": "function"
    },
    {
      "inputs": [
        {
          "internalType": "uint256",
          "name": "asn",
          "type": "uint256"
        }
      ],
      "name": "isParticipant",
      "outputs": [
        {
          "internalType": "bool",
          "name": "",
          "type": "bool"
        }
      ],
      "stateMutability": "view",
      "type": "function"
    },
    {
      "inputs": [],
      "name": "managerManager",
      "outputs": [
        {
          "internalType": "contract ManagerManager",
          "name": "",
          "type": "address"
        }
      ],
      "stateMutability": "view",
      "type": "function"
    },
    {
      "inputs": [
        {
          "internalType": "uint256",
          "name": "asn",
          "type": "uint256"
        },
        {
          "internalType": "string",
          "name": "_IP_Prefix",
          "type": "string"
        },
        {
          "internalType": "uint256[]",
          "name": "_MOAS",
          "type": "uint256[]"
        }
      ],
      "name": "reportConflict",
      "outputs": [
        {
          "internalType": "uint256",
          "name": "",
          "type": "uint256"
        }
      ],
      "stateMutability": "nonpayable",
      "type": "function"
    },
    {
      "inputs": [],
      "name": "testEvent",
      "outputs": [],
      "stateMutability": "nonpayable",
      "type": "function"
    },
    {
      "inputs": [],
      "name": "userManager",
      "outputs": [
        {
          "internalType": "contract UserManager",
          "name": "",
          "type": "address"
        }
      ],
      "stateMutability": "view",
      "type": "function"
    },
    {
      "inputs": [
        {
          "internalType": "uint256",
          "name": "_conflictID",
          "type": "uint256"
        }
      ],
      "name": "validatorConfirmConflict",
      "outputs": [],
      "stateMutability": "nonpayable",
      "type": "function"
    },
    {
      "inputs": [
        {
          "internalType": "uint256",
          "name": "_conflictID",
          "type": "uint256"
        },
        {
          "internalType": "uint256[]",
          "name": "voters",
          "type": "uint256[]"
        },
        {
          "internalType": "uint256[]",
          "name": "_uniqueHash",
          "type": "uint256[]"
        },
        {
          "internalType": "uint256[]",
          "name": "_commitment",
          "type": "uint256[]"
        }
      ],
      "name": "validatorRegisterCommitment",
      "outputs": [],
      "stateMutability": "nonpayable",
      "type": "function"
    },
    {
      "inputs": [
        {
          "internalType": "uint256",
          "name": "_conflictID",
          "type": "uint256"
        }
      ],
      "name": "validatorRejectConflict",
      "outputs": [],
      "stateMutability": "nonpayable",
      "type": "function"
    },
    {
      "inputs": [
        {
          "internalType": "uint256",
          "name": "_conflictID",
          "type": "uint256"
        }
      ],
      "name": "validatorResolveConflict",
      "outputs": [],
      "stateMutability": "nonpayable",
      "type": "function"
    },
    {
      "inputs": [],
      "name": "voteManager",
      "outputs": [
        {
          "internalType": "contract VoteManager",
          "name": "",
          "type": "address"
        }
      ],
      "stateMutability": "view",
      "type": "function"
    },
    {
      "inputs": [
        {
          "internalType": "uint256",
          "name": "asn",
          "type": "uint256"
        },
        {
          "internalType": "uint256",
          "name": "_conflictID",
          "type": "uint256"
        },
        {
          "internalType": "uint256",
          "name": "_option",
          "type": "uint256"
        },
        {
          "internalType": "uint256",
          "name": "_nullifier",
          "type": "uint256"
        },
        {
          "internalType": "uint256",
          "name": "_root",
          "type": "uint256"
        },
        {
          "internalType": "uint256[2]",
          "name": "_proof_a",
          "type": "uint256[2]"
        },
        {
          "internalType": "uint256[2][2]",
          "name": "_proof_b",
          "type": "uint256[2][2]"
        },
        {
          "internalType": "uint256[2]",
          "name": "_proof_c",
          "type": "uint256[2]"
        }
      ],
      "name": "voterVoteConflict",
      "outputs": [],
      "stateMutability": "nonpayable",
      "type": "function"
    }
  ],
  "bytecode": "0x60a06040526000600360146101000a81548160ff021916908315150217905550348015602a57600080fd5b503373ffffffffffffffffffffffffffffffffffffffff1660808173ffffffffffffffffffffffffffffffffffffffff1681525050608051614c026100886000396000818161125201528181612717015261275f0152614c026000f3fe608060405234801561001057600080fd5b506004361061018d5760003560e01c80635f2d3a5d116100de578063c4680f1d11610097578063db1b0bb011610071578063db1b0bb0146104be578063f8c8765e146104dc578063f940740f146104f8578063f9af798b146105145761018d565b8063c4680f1d14610452578063c56a3e8814610482578063d5f39488146104a05761018d565b80635f2d3a5d1461036c578063795f8fd61461039c578063883f40d5146103b85780639187aab7146103d4578063b34ddb0f14610404578063b87f046d146104345761018d565b806342c1e5871161014b5780635a73d5ed116101255780635a73d5ed146102d05780635c580820146102ee5780635c622a0e1461031e5780635c8a76871461034e5761018d565b806342c1e5871461028c57806344dccd67146102aa5780634f9d719e146102c65761018d565b8062b098af14610192578063111953ac146101b0578063241d703a146101e057806325ac1174146102105780632ea9a5a01461022c57806332725fe51461025c575b600080fd5b61019a610532565b6040516101a79190612e65565b60405180910390f35b6101ca60048036038101906101c59190612ec7565b6105ce565b6040516101d79190612f0f565b60405180910390f35b6101fa60048036038101906101f59190612ec7565b610675565b6040516102079190612f0f565b60405180910390f35b61022a60048036038101906102259190613083565b61071e565b005b61024660048036038101906102419190612ec7565b610bec565b604051610253919061314d565b60405180910390f35b61027660048036038101906102719190612ec7565b610c91565b6040516102839190613448565b60405180910390f35b610294610d41565b6040516102a191906134c9565b60405180910390f35b6102c460048036038101906102bf9190613646565b610d67565b005b6102ce61114d565b005b6102d86111b3565b6040516102e591906137ac565b60405180910390f35b610308600480360381019061030391906138af565b61124e565b6040516103159190612f0f565b60405180910390f35b61033860048036038101906103339190612ec7565b611384565b604051610345919061314d565b60405180910390f35b610356611429565b604051610363919061392c565b60405180910390f35b61038660048036038101906103819190612ec7565b61144f565b6040516103939190612e65565b60405180910390f35b6103b660048036038101906103b19190612ec7565b611503565b005b6103d260048036038101906103cd9190612ec7565b6119cc565b005b6103ee60048036038101906103e99190613947565b612163565b6040516103fb919061314d565b60405180910390f35b61041e60048036038101906104199190613987565b61220b565b60405161042b919061314d565b60405180910390f35b61043c6125a8565b6040516104499190613a33565b60405180910390f35b61046c60048036038101906104679190612ec7565b6125ce565b6040516104799190613a5d565b60405180910390f35b61048a612673565b6040516104979190612f0f565b60405180910390f35b6104a8612715565b6040516104b59190613a5d565b60405180910390f35b6104c6612739565b6040516104d39190613a99565b60405180910390f35b6104f660048036038101906104f19190613ab4565b61275d565b005b610512600480360381019061050d9190612ec7565b61290f565b005b61051c612c86565b604051610529919061314d565b60405180910390f35b6060600160009054906101000a900473ffffffffffffffffffffffffffffffffffffffff1673ffffffffffffffffffffffffffffffffffffffff1662b098af6040518163ffffffff1660e01b8152600401600060405180830381865afa1580156105a0573d6000803e3d6000fd5b505050506040513d6000823e3d601f19601f820116820180604052508101906105c99190613bc7565b905090565b6000600160009054906101000a900473ffffffffffffffffffffffffffffffffffffffff1673ffffffffffffffffffffffffffffffffffffffff1663758d9b8983336040518363ffffffff1660e01b815260040161062d929190613c10565b602060405180830381865afa15801561064a573d6000803e3d6000fd5b505050506040513d601f19601f8201168201806040525081019061066e9190613c65565b9050919050565b6000600160009054906101000a900473ffffffffffffffffffffffffffffffffffffffff1673ffffffffffffffffffffffffffffffffffffffff16631c4f438633846040518363ffffffff1660e01b81526004016106d4929190613c92565b6020604051808303816000875af11580156106f3573d6000803e3d6000fd5b505050506040513d601f19601f820116820180604052508101906107179190613c65565b9050919050565b600260009054906101000a900473ffffffffffffffffffffffffffffffffffffffff1673ffffffffffffffffffffffffffffffffffffffff166323f2a73f85336040518363ffffffff1660e01b815260040161077b929190613c10565b602060405180830381865afa158015610798573d6000803e3d6000fd5b505050506040513d601f19601f820116820180604052508101906107bc9190613c65565b6107fb576040517f08c379a00000000000000000000000000000000000000000000000000000000081526004016107f290613d18565b60405180910390fd5b6001600260009054906101000a900473ffffffffffffffffffffffffffffffffffffffff1673ffffffffffffffffffffffffffffffffffffffff16635c622a0e866040518263ffffffff1660e01b8152600401610858919061314d565b602060405180830381865afa158015610875573d6000803e3d6000fd5b505050506040513d601f19601f820116820180604052508101906108999190613d38565b146108d9576040517f08c379a00000000000000000000000000000000000000000000000000000000081526004016108d090613db1565b60405180910390fd5b805182511480156108eb575082518251145b61092a576040517f08c379a000000000000000000000000000000000000000000000000000000000815260040161092190613e1d565b60405180910390fd5b600260009054906101000a900473ffffffffffffffffffffffffffffffffffffffff1673ffffffffffffffffffffffffffffffffffffffff1663b989e05685856040518363ffffffff1660e01b8152600401610987929190613e3d565b600060405180830381600087803b1580156109a157600080fd5b505af11580156109b5573d6000803e3d6000fd5b50505050600360009054906101000a900473ffffffffffffffffffffffffffffffffffffffff1673ffffffffffffffffffffffffffffffffffffffff16639de7b9df8584846040518463ffffffff1660e01b8152600401610a1893929190613e6d565b6020604051808303816000875af1158015610a37573d6000803e3d6000fd5b505050506040513d601f19601f82011682018060405250810190610a5b9190613c65565b5060005b8351811015610b1c57600160009054906101000a900473ffffffffffffffffffffffffffffffffffffffff1673ffffffffffffffffffffffffffffffffffffffff16632346102e858381518110610ab957610ab8613eb2565b5b60200260200101516040518263ffffffff1660e01b8152600401610add919061314d565b600060405180830381600087803b158015610af757600080fd5b505af1158015610b0b573d6000803e3d6000fd5b505050508080600101915050610a5f565b50600260009054906101000a900473ffffffffffffffffffffffffffffffffffffffff1673ffffffffffffffffffffffffffffffffffffffff1663e2f318298560026040518363ffffffff1660e01b8152600401610b7b929190613f1c565b600060405180830381600087803b158015610b9557600080fd5b505af1158015610ba9573d6000803e3d6000fd5b505050507fb07055da6f6b03639ef7660032bec46b4505b1a70282223a44478710cbd1841a8484604051610bde929190613e3d565b60405180910390a150505050565b6000600360009054906101000a900473ffffffffffffffffffffffffffffffffffffffff1673ffffffffffffffffffffffffffffffffffffffff16632ce35e11836040518263ffffffff1660e01b8152600401610c49919061314d565b602060405180830381865afa158015610c66573d6000803e3d6000fd5b505050506040513d601f19601f82011682018060405250810190610c8a9190613d38565b9050919050565b610c99612d1e565b600260009054906101000a900473ffffffffffffffffffffffffffffffffffffffff1673ffffffffffffffffffffffffffffffffffffffff1663325b7138836040518263ffffffff1660e01b8152600401610cf4919061314d565b600060405180830381865afa158015610d11573d6000803e3d6000fd5b505050506040513d6000823e3d601f19601f82011682018060405250810190610d3a919061421b565b9050919050565b600360009054906101000a900473ffffffffffffffffffffffffffffffffffffffff1681565b610d70886105ce565b80610d7f5750610d7e612673565b5b610dbe576040517f08c379a0000000000000000000000000000000000000000000000000000000008152600401610db5906142b0565b60405180910390fd5b60028060009054906101000a900473ffffffffffffffffffffffffffffffffffffffff1673ffffffffffffffffffffffffffffffffffffffff16635c622a0e896040518263ffffffff1660e01b8152600401610e1a919061314d565b602060405180830381865afa158015610e37573d6000803e3d6000fd5b505050506040513d601f19601f82011682018060405250810190610e5b9190613d38565b14610e9b576040517f08c379a0000000000000000000000000000000000000000000000000000000008152600401610e929061431c565b60405180910390fd5b6000600260009054906101000a900473ffffffffffffffffffffffffffffffffffffffff1673ffffffffffffffffffffffffffffffffffffffff16638915b3fb896040518263ffffffff1660e01b8152600401610ef8919061314d565b602060405180830381865afa158015610f15573d6000803e3d6000fd5b505050506040513d601f19601f82011682018060405250810190610f399190613d38565b9050808710610f7d576040517f08c379a0000000000000000000000000000000000000000000000000000000008152600401610f7490614388565b60405180910390fd5b600360009054906101000a900473ffffffffffffffffffffffffffffffffffffffff1673ffffffffffffffffffffffffffffffffffffffff1663049ad89a898989898989896040518863ffffffff1660e01b8152600401610fe4979695949392919061452a565b6020604051808303816000875af1158015611003573d6000803e3d6000fd5b505050506040513d601f19601f820116820180604052508101906110279190613c65565b50600160009054906101000a900473ffffffffffffffffffffffffffffffffffffffff1673ffffffffffffffffffffffffffffffffffffffff1663d5cf50d28a6040518263ffffffff1660e01b8152600401611083919061314d565b600060405180830381600087803b15801561109d57600080fd5b505af11580156110b1573d6000803e3d6000fd5b50505050600160009054906101000a900473ffffffffffffffffffffffffffffffffffffffff1673ffffffffffffffffffffffffffffffffffffffff1663b08bc2008a6040518263ffffffff1660e01b8152600401611110919061314d565b600060405180830381600087803b15801561112a57600080fd5b505af115801561113e573d6000803e3d6000fd5b50505050505050505050505050565b7fa1e8b1693848c616a5ec76348d0d53a6cd335a77c72ffdcdbb784fa4682a5f13336000357fffffffff0000000000000000000000000000000000000000000000000000000016600036436040516111a9959493929190614614565b60405180910390a1565b606060008054906101000a900473ffffffffffffffffffffffffffffffffffffffff1673ffffffffffffffffffffffffffffffffffffffff16635a73d5ed6040518163ffffffff1660e01b8152600401600060405180830381865afa158015611220573d6000803e3d6000fd5b505050506040513d6000823e3d601f19601f820116820180604052508101906112499190614725565b905090565b60007f000000000000000000000000000000000000000000000000000000000000000073ffffffffffffffffffffffffffffffffffffffff163373ffffffffffffffffffffffffffffffffffffffff16146112de576040517f08c379a00000000000000000000000000000000000000000000000000000000081526004016112d5906147ba565b60405180910390fd5b60008054906101000a900473ffffffffffffffffffffffffffffffffffffffff1673ffffffffffffffffffffffffffffffffffffffff16635c58082084846040518363ffffffff1660e01b8152600401611339929190614813565b6020604051808303816000875af1158015611358573d6000803e3d6000fd5b505050506040513d601f19601f8201168201806040525081019061137c9190613c65565b905092915050565b6000600260009054906101000a900473ffffffffffffffffffffffffffffffffffffffff1673ffffffffffffffffffffffffffffffffffffffff16635c622a0e836040518263ffffffff1660e01b81526004016113e1919061314d565b602060405180830381865afa1580156113fe573d6000803e3d6000fd5b505050506040513d601f19601f820116820180604052508101906114229190613d38565b9050919050565b600160009054906101000a900473ffffffffffffffffffffffffffffffffffffffff1681565b60606000600260009054906101000a900473ffffffffffffffffffffffffffffffffffffffff1673ffffffffffffffffffffffffffffffffffffffff1663325b7138846040518263ffffffff1660e01b81526004016114ae919061314d565b600060405180830381865afa1580156114cb573d6000803e3d6000fd5b505050506040513d6000823e3d601f19601f820116820180604052508101906114f4919061421b565b90508060a00151915050919050565b600260009054906101000a900473ffffffffffffffffffffffffffffffffffffffff1673ffffffffffffffffffffffffffffffffffffffff166323f2a73f82336040518363ffffffff1660e01b8152600401611560929190613c10565b602060405180830381865afa15801561157d573d6000803e3d6000fd5b505050506040513d601f19601f820116820180604052508101906115a19190613c65565b6115e0576040517f08c379a00000000000000000000000000000000000000000000000000000000081526004016115d790613d18565b60405180910390fd5b6000600260009054906101000a900473ffffffffffffffffffffffffffffffffffffffff1673ffffffffffffffffffffffffffffffffffffffff16635c622a0e836040518263ffffffff1660e01b815260040161163d919061314d565b602060405180830381865afa15801561165a573d6000803e3d6000fd5b505050506040513d601f19601f8201168201806040525081019061167e9190613d38565b146116be576040517f08c379a00000000000000000000000000000000000000000000000000000000081526004016116b59061488f565b60405180910390fd5b60008060009054906101000a900473ffffffffffffffffffffffffffffffffffffffff1673ffffffffffffffffffffffffffffffffffffffff166389c70727336040518263ffffffff1660e01b815260040161171a9190613a5d565b602060405180830381865afa158015611737573d6000803e3d6000fd5b505050506040513d601f19601f8201168201806040525081019061175b91906148af565b9050600260009054906101000a900473ffffffffffffffffffffffffffffffffffffffff1673ffffffffffffffffffffffffffffffffffffffff1663407908f783836040518363ffffffff1660e01b81526004016117ba929190613c10565b600060405180830381600087803b1580156117d457600080fd5b505af11580156117e8573d6000803e3d6000fd5b5050505060008054906101000a900473ffffffffffffffffffffffffffffffffffffffff1673ffffffffffffffffffffffffffffffffffffffff1663a142e139336040518263ffffffff1660e01b81526004016118459190613a5d565b600060405180830381600087803b15801561185f57600080fd5b505af1158015611873573d6000803e3d6000fd5b5050505060008054906101000a900473ffffffffffffffffffffffffffffffffffffffff1673ffffffffffffffffffffffffffffffffffffffff16633becb35c336040518263ffffffff1660e01b81526004016118d09190613a5d565b600060405180830381600087803b1580156118ea57600080fd5b505af11580156118fe573d6000803e3d6000fd5b5050505060008054906101000a900473ffffffffffffffffffffffffffffffffffffffff1673ffffffffffffffffffffffffffffffffffffffff1663d260d959826040518263ffffffff1660e01b815260040161195b9190613a5d565b600060405180830381600087803b15801561197557600080fd5b505af1158015611989573d6000803e3d6000fd5b505050507fff0ffc18612147c81e749298abb769dfb58b9eea6f79de377ef1f9ad64637fa08233836040516119c0939291906148dc565b60405180910390a15050565b600260009054906101000a900473ffffffffffffffffffffffffffffffffffffffff1673ffffffffffffffffffffffffffffffffffffffff166323f2a73f82336040518363ffffffff1660e01b8152600401611a29929190613c10565b602060405180830381865afa158015611a46573d6000803e3d6000fd5b505050506040513d601f19601f82011682018060405250810190611a6a9190613c65565b611aa9576040517f08c379a0000000000000000000000000000000000000000000000000000000008152600401611aa090613d18565b60405180910390fd5b60028060009054906101000a900473ffffffffffffffffffffffffffffffffffffffff1673ffffffffffffffffffffffffffffffffffffffff16635c622a0e836040518263ffffffff1660e01b8152600401611b05919061314d565b602060405180830381865afa158015611b22573d6000803e3d6000fd5b505050506040513d601f19601f82011682018060405250810190611b469190613d38565b14611b86576040517f08c379a0000000000000000000000000000000000000000000000000000000008152600401611b7d9061495f565b60405180910390fd5b6000600260009054906101000a900473ffffffffffffffffffffffffffffffffffffffff1673ffffffffffffffffffffffffffffffffffffffff16638915b3fb836040518263ffffffff1660e01b8152600401611be3919061314d565b602060405180830381865afa158015611c00573d6000803e3d6000fd5b505050506040513d601f19601f82011682018060405250810190611c249190613d38565b90506000600360009054906101000a900473ffffffffffffffffffffffffffffffffffffffff1673ffffffffffffffffffffffffffffffffffffffff16632ce35e11846040518263ffffffff1660e01b8152600401611c83919061314d565b602060405180830381865afa158015611ca0573d6000803e3d6000fd5b505050506040513d601f19601f82011682018060405250810190611cc49190613d38565b905060008267ffffffffffffffff811115611ce257611ce1612f40565b5b604051908082528060200260200182016040528015611d105781602001602082028036833780820191505090505b50905060008060005b85811015611dff576000600360009054906101000a900473ffffffffffffffffffffffffffffffffffffffff1673ffffffffffffffffffffffffffffffffffffffff16639187aab789846040518363ffffffff1660e01b8152600401611d8092919061497f565b602060405180830381865afa158015611d9d573d6000803e3d6000fd5b505050506040513d601f19601f82011682018060405250810190611dc19190613d38565b905080858381518110611dd757611dd6613eb2565b5b602002602001018181525050828110611df1578092508193505b508080600101915050611d19565b506000600260009054906101000a900473ffffffffffffffffffffffffffffffffffffffff1673ffffffffffffffffffffffffffffffffffffffff1663e92e5c34886040518263ffffffff1660e01b8152600401611e5d919061314d565b602060405180830381865afa158015611e7a573d6000803e3d6000fd5b505050506040513d601f19601f82011682018060405250810190611e9e9190613d38565b9050600281611ead91906149d7565b8511611eee576040517f08c379a0000000000000000000000000000000000000000000000000000000008152600401611ee590614a54565b60405180910390fd5b600260009054906101000a900473ffffffffffffffffffffffffffffffffffffffff1673ffffffffffffffffffffffffffffffffffffffff1663e4b7513288856040518363ffffffff1660e01b8152600401611f4b92919061497f565b600060405180830381600087803b158015611f6557600080fd5b505af1158015611f79573d6000803e3d6000fd5b50505050600260009054906101000a900473ffffffffffffffffffffffffffffffffffffffff1673ffffffffffffffffffffffffffffffffffffffff1663e2f318298860036040518363ffffffff1660e01b8152600401611fdb929190614aaf565b600060405180830381600087803b158015611ff557600080fd5b505af1158015612009573d6000803e3d6000fd5b5050505060008054906101000a900473ffffffffffffffffffffffffffffffffffffffff1673ffffffffffffffffffffffffffffffffffffffff166381323d2a336040518263ffffffff1660e01b81526004016120669190613a5d565b600060405180830381600087803b15801561208057600080fd5b505af1158015612094573d6000803e3d6000fd5b5050505060008054906101000a900473ffffffffffffffffffffffffffffffffffffffff1673ffffffffffffffffffffffffffffffffffffffff16633becb35c336040518263ffffffff1660e01b81526004016120f19190613a5d565b600060405180830381600087803b15801561210b57600080fd5b505af115801561211f573d6000803e3d6000fd5b505050507f6798d3bf375b71936a2769bcc2b0b1e9da0199d4ca902e478fa46937498b321687604051612152919061314d565b60405180910390a150505050505050565b6000600360009054906101000a900473ffffffffffffffffffffffffffffffffffffffff1673ffffffffffffffffffffffffffffffffffffffff16639187aab784846040518363ffffffff1660e01b81526004016121c292919061497f565b602060405180830381865afa1580156121df573d6000803e3d6000fd5b505050506040513d601f19601f820116820180604052508101906122039190613d38565b905092915050565b6000612216846105ce565b806122255750612224612673565b5b612264576040517f08c379a000000000000000000000000000000000000000000000000000000000815260040161225b906142b0565b60405180910390fd5b60008060009054906101000a900473ffffffffffffffffffffffffffffffffffffffff1673ffffffffffffffffffffffffffffffffffffffff16638bd648526040518163ffffffff1660e01b8152600401602060405180830381865afa1580156122d2573d6000803e3d6000fd5b505050506040513d601f19601f820116820180604052508101906122f691906148af565b9050600080600260009054906101000a900473ffffffffffffffffffffffffffffffffffffffff1673ffffffffffffffffffffffffffffffffffffffff1663f6a00b4f878786336040518563ffffffff1660e01b815260040161235c9493929190614ad8565b60408051808303816000875af115801561237a573d6000803e3d6000fd5b505050506040513d601f19601f8201168201806040525081019061239e9190614b2b565b91509150600360009054906101000a900473ffffffffffffffffffffffffffffffffffffffff1673ffffffffffffffffffffffffffffffffffffffff16631b46831283836040518363ffffffff1660e01b81526004016123ff92919061497f565b6020604051808303816000875af115801561241e573d6000803e3d6000fd5b505050506040513d601f19601f820116820180604052508101906124429190613c65565b50600160009054906101000a900473ffffffffffffffffffffffffffffffffffffffff1673ffffffffffffffffffffffffffffffffffffffff1663861b409c886040518263ffffffff1660e01b815260040161249e919061314d565b600060405180830381600087803b1580156124b857600080fd5b505af11580156124cc573d6000803e3d6000fd5b5050505060008054906101000a900473ffffffffffffffffffffffffffffffffffffffff1673ffffffffffffffffffffffffffffffffffffffff1663d260d959846040518263ffffffff1660e01b81526004016125299190613a5d565b600060405180830381600087803b15801561254357600080fd5b505af1158015612557573d6000803e3d6000fd5b505050507f531b239ed458d0a3be37c3e0f345e7bc6e628dbc6885b915d26ed01937f8bdca8287878633604051612592959493929190614b6b565b60405180910390a1600093505050509392505050565b600260009054906101000a900473ffffffffffffffffffffffffffffffffffffffff1681565b6000600360009054906101000a900473ffffffffffffffffffffffffffffffffffffffff1673ffffffffffffffffffffffffffffffffffffffff1663c4680f1d836040518263ffffffff1660e01b815260040161262b919061314d565b602060405180830381865afa158015612648573d6000803e3d6000fd5b505050506040513d601f19601f8201168201806040525081019061266c91906148af565b9050919050565b60008060009054906101000a900473ffffffffffffffffffffffffffffffffffffffff1673ffffffffffffffffffffffffffffffffffffffff1663f3ae2415336040518263ffffffff1660e01b81526004016126cf9190613a5d565b602060405180830381865afa1580156126ec573d6000803e3d6000fd5b505050506040513d601f19601f820116820180604052508101906127109190613c65565b905090565b7f000000000000000000000000000000000000000000000000000000000000000081565b60008054906101000a900473ffffffffffffffffffffffffffffffffffffffff1681565b7f000000000000000000000000000000000000000000000000000000000000000073ffffffffffffffffffffffffffffffffffffffff163373ffffffffffffffffffffffffffffffffffffffff16146127eb576040517f08c379a00000000000000000000000000000000000000000000000000000000081526004016127e2906147ba565b60405180910390fd5b836000806101000a81548173ffffffffffffffffffffffffffffffffffffffff021916908373ffffffffffffffffffffffffffffffffffffffff16021790555082600160006101000a81548173ffffffffffffffffffffffffffffffffffffffff021916908373ffffffffffffffffffffffffffffffffffffffff16021790555081600260006101000a81548173ffffffffffffffffffffffffffffffffffffffff021916908373ffffffffffffffffffffffffffffffffffffffff16021790555080600360006101000a81548173ffffffffffffffffffffffffffffffffffffffff021916908373ffffffffffffffffffffffffffffffffffffffff1602179055506001600360146101000a81548160ff02191690831515021790555050505050565b600260009054906101000a900473ffffffffffffffffffffffffffffffffffffffff1673ffffffffffffffffffffffffffffffffffffffff166323f2a73f82336040518363ffffffff1660e01b815260040161296c929190613c10565b602060405180830381865afa158015612989573d6000803e3d6000fd5b505050506040513d601f19601f820116820180604052508101906129ad9190613c65565b6129ec576040517f08c379a00000000000000000000000000000000000000000000000000000000081526004016129e390613d18565b60405180910390fd5b6000600260009054906101000a900473ffffffffffffffffffffffffffffffffffffffff1673ffffffffffffffffffffffffffffffffffffffff16635c622a0e836040518263ffffffff1660e01b8152600401612a49919061314d565b602060405180830381865afa158015612a66573d6000803e3d6000fd5b505050506040513d601f19601f82011682018060405250810190612a8a9190613d38565b14612aca576040517f08c379a0000000000000000000000000000000000000000000000000000000008152600401612ac19061488f565b60405180910390fd5b600260009054906101000a900473ffffffffffffffffffffffffffffffffffffffff1673ffffffffffffffffffffffffffffffffffffffff16634b8b0859826040518263ffffffff1660e01b8152600401612b25919061314d565b600060405180830381600087803b158015612b3f57600080fd5b505af1158015612b53573d6000803e3d6000fd5b50505050600360009054906101000a900473ffffffffffffffffffffffffffffffffffffffff1673ffffffffffffffffffffffffffffffffffffffff1663436de3c582336040518363ffffffff1660e01b8152600401612bb4929190613c10565b6020604051808303816000875af1158015612bd3573d6000803e3d6000fd5b505050506040513d601f19601f82011682018060405250810190612bf79190613c65565b5060008054906101000a900473ffffffffffffffffffffffffffffffffffffffff1673ffffffffffffffffffffffffffffffffffffffff1663d260d959336040518263ffffffff1660e01b8152600401612c519190613a5d565b600060405180830381600087803b158015612c6b57600080fd5b505af1158015612c7f573d6000803e3d6000fd5b5050505050565b6000600260009054906101000a900473ffffffffffffffffffffffffffffffffffffffff1673ffffffffffffffffffffffffffffffffffffffff1663ce3d63776040518163ffffffff1660e01b8152600401602060405180830381865afa158015612cf5573d6000803e3d6000fd5b505050506040513d601f19601f82011682018060405250810190612d199190613d38565b905090565b604051806101400160405280600081526020016060815260200160608152602001600073ffffffffffffffffffffffffffffffffffffffff168152602001600073ffffffffffffffffffffffffffffffffffffffff16815260200160608152602001600081526020016000815260200160608152602001600081525090565b600081519050919050565b600082825260208201905092915050565b6000819050602082019050919050565b6000819050919050565b612ddc81612dc9565b82525050565b6000612dee8383612dd3565b60208301905092915050565b6000602082019050919050565b6000612e1282612d9d565b612e1c8185612da8565b9350612e2783612db9565b8060005b83811015612e58578151612e3f8882612de2565b9750612e4a83612dfa565b925050600181019050612e2b565b5085935050505092915050565b60006020820190508181036000830152612e7f8184612e07565b905092915050565b6000604051905090565b600080fd5b600080fd5b612ea481612dc9565b8114612eaf57600080fd5b50565b600081359050612ec181612e9b565b92915050565b600060208284031215612edd57612edc612e91565b5b6000612eeb84828501612eb2565b91505092915050565b60008115159050919050565b612f0981612ef4565b82525050565b6000602082019050612f246000830184612f00565b92915050565b600080fd5b6000601f19601f8301169050919050565b7f4e487b7100000000000000000000000000000000000000000000000000000000600052604160045260246000fd5b612f7882612f2f565b810181811067ffffffffffffffff82111715612f9757612f96612f40565b5b80604052505050565b6000612faa612e87565b9050612fb68282612f6f565b919050565b600067ffffffffffffffff821115612fd657612fd5612f40565b5b602082029050602081019050919050565b600080fd5b6000612fff612ffa84612fbb565b612fa0565b9050808382526020820190506020840283018581111561302257613021612fe7565b5b835b8181101561304b57806130378882612eb2565b845260208401935050602081019050613024565b5050509392505050565b600082601f83011261306a57613069612f2a565b5b813561307a848260208601612fec565b91505092915050565b6000806000806080858703121561309d5761309c612e91565b5b60006130ab87828801612eb2565b945050602085013567ffffffffffffffff8111156130cc576130cb612e96565b5b6130d887828801613055565b935050604085013567ffffffffffffffff8111156130f9576130f8612e96565b5b61310587828801613055565b925050606085013567ffffffffffffffff81111561312657613125612e96565b5b61313287828801613055565b91505092959194509250565b61314781612dc9565b82525050565b6000602082019050613162600083018461313e565b92915050565b600081519050919050565b600082825260208201905092915050565b60005b838110156131a2578082015181840152602081019050613187565b60008484015250505050565b60006131b982613168565b6131c38185613173565b93506131d3818560208601613184565b6131dc81612f2f565b840191505092915050565b600082825260208201905092915050565b600061320382612d9d565b61320d81856131e7565b935061321883612db9565b8060005b838110156132495781516132308882612de2565b975061323b83612dfa565b92505060018101905061321c565b5085935050505092915050565b600073ffffffffffffffffffffffffffffffffffffffff82169050919050565b600061328182613256565b9050919050565b61329181613276565b82525050565b600081519050919050565b600082825260208201905092915050565b6000819050602082019050919050565b60006132cf83836131ae565b905092915050565b6000602082019050919050565b60006132ef82613297565b6132f981856132a2565b93508360208202850161330b856132b3565b8060005b85811015613347578484038952815161332885826132c3565b9450613333836132d7565b925060208a0199505060018101905061330f565b50829750879550505050505092915050565b6000610140830160008301516133726000860182612dd3565b506020830151848203602086015261338a82826131ae565b915050604083015184820360408601526133a482826131f8565b91505060608301516133b96060860182613288565b5060808301516133cc6080860182613288565b5060a083015184820360a08601526133e482826131f8565b91505060c08301516133f960c0860182612dd3565b5060e083015161340c60e0860182612dd3565b5061010083015184820361010086015261342682826132e4565b91505061012083015161343d610120860182612dd3565b508091505092915050565b600060208201905081810360008301526134628184613359565b905092915050565b6000819050919050565b600061348f61348a61348584613256565b61346a565b613256565b9050919050565b60006134a182613474565b9050919050565b60006134b382613496565b9050919050565b6134c3816134a8565b82525050565b60006020820190506134de60008301846134ba565b92915050565b600067ffffffffffffffff8211156134ff576134fe612f40565b5b602082029050919050565b600061351d613518846134e4565b612fa0565b9050806020840283018581111561353757613536612fe7565b5b835b81811015613560578061354c8882612eb2565b845260208401935050602081019050613539565b5050509392505050565b600082601f83011261357f5761357e612f2a565b5b600261358c84828561350a565b91505092915050565b600067ffffffffffffffff8211156135b0576135af612f40565b5b602082029050919050565b60006135ce6135c984613595565b612fa0565b905080604084028301858111156135e8576135e7612fe7565b5b835b8181101561361157806135fd888261356a565b8452602084019350506040810190506135ea565b5050509392505050565b600082601f8301126136305761362f612f2a565b5b600261363d8482856135bb565b91505092915050565b6000806000806000806000806101a0898b03121561366757613666612e91565b5b60006136758b828c01612eb2565b98505060206136868b828c01612eb2565b97505060406136978b828c01612eb2565b96505060606136a88b828c01612eb2565b95505060806136b98b828c01612eb2565b94505060a06136ca8b828c0161356a565b93505060e06136db8b828c0161361b565b9250506101606136ed8b828c0161356a565b9150509295985092959890939650565b600081519050919050565b600082825260208201905092915050565b6000819050602082019050919050565b60006137358383613288565b60208301905092915050565b6000602082019050919050565b6000613759826136fd565b6137638185613708565b935061376e83613719565b8060005b8381101561379f5781516137868882613729565b975061379183613741565b925050600181019050613772565b5085935050505092915050565b600060208201905081810360008301526137c6818461374e565b905092915050565b600080fd5b600067ffffffffffffffff8211156137ee576137ed612f40565b5b6137f782612f2f565b9050602081019050919050565b82818337600083830152505050565b6000613826613821846137d3565b612fa0565b905082815260208101848484011115613842576138416137ce565b5b61384d848285613804565b509392505050565b600082601f83011261386a57613869612f2a565b5b813561387a848260208601613813565b91505092915050565b61388c81613276565b811461389757600080fd5b50565b6000813590506138a981613883565b92915050565b600080604083850312156138c6576138c5612e91565b5b600083013567ffffffffffffffff8111156138e4576138e3612e96565b5b6138f085828601613855565b92505060206139018582860161389a565b9150509250929050565b600061391682613496565b9050919050565b6139268161390b565b82525050565b6000602082019050613941600083018461391d565b92915050565b6000806040838503121561395e5761395d612e91565b5b600061396c85828601612eb2565b925050602061397d85828601612eb2565b9150509250929050565b6000806000606084860312156139a05761399f612e91565b5b60006139ae86828701612eb2565b935050602084013567ffffffffffffffff8111156139cf576139ce612e96565b5b6139db86828701613855565b925050604084013567ffffffffffffffff8111156139fc576139fb612e96565b5b613a0886828701613055565b9150509250925092565b6000613a1d82613496565b9050919050565b613a2d81613a12565b82525050565b6000602082019050613a486000830184613a24565b92915050565b613a5781613276565b82525050565b6000602082019050613a726000830184613a4e565b92915050565b6000613a8382613496565b9050919050565b613a9381613a78565b82525050565b6000602082019050613aae6000830184613a8a565b92915050565b60008060008060808587031215613ace57613acd612e91565b5b6000613adc8782880161389a565b9450506020613aed8782880161389a565b9350506040613afe8782880161389a565b9250506060613b0f8782880161389a565b91505092959194509250565b600081519050613b2a81612e9b565b92915050565b6000613b43613b3e84612fbb565b612fa0565b90508083825260208201905060208402830185811115613b6657613b65612fe7565b5b835b81811015613b8f5780613b7b8882613b1b565b845260208401935050602081019050613b68565b5050509392505050565b600082601f830112613bae57613bad612f2a565b5b8151613bbe848260208601613b30565b91505092915050565b600060208284031215613bdd57613bdc612e91565b5b600082015167ffffffffffffffff811115613bfb57613bfa612e96565b5b613c0784828501613b99565b91505092915050565b6000604082019050613c25600083018561313e565b613c326020830184613a4e565b9392505050565b613c4281612ef4565b8114613c4d57600080fd5b50565b600081519050613c5f81613c39565b92915050565b600060208284031215613c7b57613c7a612e91565b5b6000613c8984828501613c50565b91505092915050565b6000604082019050613ca76000830185613a4e565b613cb4602083018461313e565b9392505050565b600082825260208201905092915050565b7f4552340000000000000000000000000000000000000000000000000000000000600082015250565b6000613d02600383613cbb565b9150613d0d82613ccc565b602082019050919050565b60006020820190508181036000830152613d3181613cf5565b9050919050565b600060208284031215613d4e57613d4d612e91565b5b6000613d5c84828501613b1b565b91505092915050565b7f4552360000000000000000000000000000000000000000000000000000000000600082015250565b6000613d9b600383613cbb565b9150613da682613d65565b602082019050919050565b60006020820190508181036000830152613dca81613d8e565b9050919050565b7f4552370000000000000000000000000000000000000000000000000000000000600082015250565b6000613e07600383613cbb565b9150613e1282613dd1565b602082019050919050565b60006020820190508181036000830152613e3681613dfa565b9050919050565b6000604082019050613e52600083018561313e565b8181036020830152613e648184612e07565b90509392505050565b6000606082019050613e82600083018661313e565b8181036020830152613e948185612e07565b90508181036040830152613ea88184612e07565b9050949350505050565b7f4e487b7100000000000000000000000000000000000000000000000000000000600052603260045260246000fd5b6000819050919050565b6000613f06613f01613efc84613ee1565b61346a565b612dc9565b9050919050565b613f1681613eeb565b82525050565b6000604082019050613f31600083018561313e565b613f3e6020830184613f0d565b9392505050565b600080fd5b600080fd5b6000613f62613f5d846137d3565b612fa0565b905082815260208101848484011115613f7e57613f7d6137ce565b5b613f89848285613184565b509392505050565b600082601f830112613fa657613fa5612f2a565b5b8151613fb6848260208601613f4f565b91505092915050565b600081519050613fce81613883565b92915050565b600067ffffffffffffffff821115613fef57613fee612f40565b5b602082029050602081019050919050565b600061401361400e84613fd4565b612fa0565b9050808382526020820190506020840283018581111561403657614035612fe7565b5b835b8181101561407d57805167ffffffffffffffff81111561405b5761405a612f2a565b5b8086016140688982613f91565b85526020850194505050602081019050614038565b5050509392505050565b600082601f83011261409c5761409b612f2a565b5b81516140ac848260208601614000565b91505092915050565b600061014082840312156140cc576140cb613f45565b5b6140d7610140612fa0565b905060006140e784828501613b1b565b600083015250602082015167ffffffffffffffff81111561410b5761410a613f4a565b5b61411784828501613f91565b602083015250604082015167ffffffffffffffff81111561413b5761413a613f4a565b5b61414784828501613b99565b604083015250606061415b84828501613fbf565b606083015250608061416f84828501613fbf565b60808301525060a082015167ffffffffffffffff81111561419357614192613f4a565b5b61419f84828501613b99565b60a08301525060c06141b384828501613b1b565b60c08301525060e06141c784828501613b1b565b60e08301525061010082015167ffffffffffffffff8111156141ec576141eb613f4a565b5b6141f884828501614087565b6101008301525061012061420e84828501613b1b565b6101208301525092915050565b60006020828403121561423157614230612e91565b5b600082015167ffffffffffffffff81111561424f5761424e612e96565b5b61425b848285016140b5565b91505092915050565b7f4552320000000000000000000000000000000000000000000000000000000000600082015250565b600061429a600383613cbb565b91506142a582614264565b602082019050919050565b600060208201905081810360008301526142c98161428d565b9050919050565b7f4552390000000000000000000000000000000000000000000000000000000000600082015250565b6000614306600383613cbb565b9150614311826142d0565b602082019050919050565b60006020820190508181036000830152614335816142f9565b9050919050565b7f4552313000000000000000000000000000000000000000000000000000000000600082015250565b6000614372600483613cbb565b915061437d8261433c565b602082019050919050565b600060208201905081810360008301526143a181614365565b9050919050565b600060029050919050565b600081905092915050565b6000819050919050565b6000602082019050919050565b6143de816143a8565b6143e881846143b3565b92506143f3826143be565b8060005b8381101561442457815161440b8782612de2565b9650614416836143c8565b9250506001810190506143f7565b505050505050565b600060029050919050565b600081905092915050565b6000819050919050565b600081905092915050565b614460816143a8565b61446a818461444c565b9250614475826143be565b8060005b838110156144a657815161448d8782612de2565b9650614498836143c8565b925050600181019050614479565b505050505050565b60006144ba8383614457565b60408301905092915050565b6000602082019050919050565b6144dc8161442c565b6144e68184614437565b92506144f182614442565b8060005b8381101561452257815161450987826144ae565b9650614514836144c6565b9250506001810190506144f5565b505050505050565b600061018082019050614540600083018a61313e565b61454d602083018961313e565b61455a604083018861313e565b614567606083018761313e565b61457460808301866143d5565b61458160c08301856144d3565b61458f6101408301846143d5565b98975050505050505050565b60007fffffffff0000000000000000000000000000000000000000000000000000000082169050919050565b6145d08161459b565b82525050565b600082825260208201905092915050565b60006145f383856145d6565b9350614600838584613804565b61460983612f2f565b840190509392505050565b60006080820190506146296000830188613a4e565b61463660208301876145c7565b81810360408301526146498185876145e7565b9050614658606083018461313e565b9695505050505050565b600067ffffffffffffffff82111561467d5761467c612f40565b5b602082029050602081019050919050565b60006146a161469c84614662565b612fa0565b905080838252602082019050602084028301858111156146c4576146c3612fe7565b5b835b818110156146ed57806146d98882613fbf565b8452602084019350506020810190506146c6565b5050509392505050565b600082601f83011261470c5761470b612f2a565b5b815161471c84826020860161468e565b91505092915050565b60006020828403121561473b5761473a612e91565b5b600082015167ffffffffffffffff81111561475957614758612e96565b5b614765848285016146f7565b91505092915050565b7f4552310000000000000000000000000000000000000000000000000000000000600082015250565b60006147a4600383613cbb565b91506147af8261476e565b602082019050919050565b600060208201905081810360008301526147d381614797565b9050919050565b60006147e582613168565b6147ef8185613cbb565b93506147ff818560208601613184565b61480881612f2f565b840191505092915050565b6000604082019050818103600083015261482d81856147da565b905061483c6020830184613a4e565b9392505050565b7f4552350000000000000000000000000000000000000000000000000000000000600082015250565b6000614879600383613cbb565b915061488482614843565b602082019050919050565b600060208201905081810360008301526148a88161486c565b9050919050565b6000602082840312156148c5576148c4612e91565b5b60006148d384828501613fbf565b91505092915050565b60006060820190506148f1600083018661313e565b6148fe6020830185613a4e565b61490b6040830184613a4e565b949350505050565b7f4552313100000000000000000000000000000000000000000000000000000000600082015250565b6000614949600483613cbb565b915061495482614913565b602082019050919050565b600060208201905081810360008301526149788161493c565b9050919050565b6000604082019050614994600083018561313e565b6149a1602083018461313e565b9392505050565b7f4e487b7100000000000000000000000000000000000000000000000000000000600052601260045260246000fd5b60006149e282612dc9565b91506149ed83612dc9565b9250826149fd576149fc6149a8565b5b828204905092915050565b7f4552313200000000000000000000000000000000000000000000000000000000600082015250565b6000614a3e600483613cbb565b9150614a4982614a08565b602082019050919050565b60006020820190508181036000830152614a6d81614a31565b9050919050565b6000819050919050565b6000614a99614a94614a8f84614a74565b61346a565b612dc9565b9050919050565b614aa981614a7e565b82525050565b6000604082019050614ac4600083018561313e565b614ad16020830184614aa0565b9392505050565b60006080820190508181036000830152614af281876147da565b90508181036020830152614b068186612e07565b9050614b156040830185613a4e565b614b226060830184613a4e565b95945050505050565b60008060408385031215614b4257614b41612e91565b5b6000614b5085828601613b1b565b9250506020614b6185828601613b1b565b9150509250929050565b600060a082019050614b80600083018861313e565b8181036020830152614b9281876147da565b90508181036040830152614ba68186612e07565b9050614bb56060830185613a4e565b614bc26080830184613a4e565b969550505050505056fea264697066735822122010d1d15a85abe33b85b0f4937af3594b9ffd33206c27f19f833d5b34c8c8dcc964736f6c634300081b0033",
  "linkReferences": {},
  "deployedLinkReferences": {}
}