{
  "_format": "hh-sol-artifact-1",
  "contractName": "ManagerManager",
  "sourceName": "contracts/ManagerManager.sol",
  "abi": [
    {
      "inputs": [],
      "stateMutability": "nonpayable",
      "type": "constructor"
    },
    {
      "inputs": [
        {
          "internalType": "string",
          "name": "_name",
          "type": "string"
        },
        {
          "internalType": "address",
          "name": "_address",
          "type": "address"
        }
      ],
      "name": "createManager",
      "outputs": [
        {
          "internalType": "bool",
          "name": "",
          "type": "bool"
        }
      ],
      "stateMutability": "nonpayable",
      "type": "function"
    },
    {
      "inputs": [
        {
          "internalType": "address",
          "name": "_addr",
          "type": "address"
        }
      ],
      "name": "decrementOnGoingEvent",
      "outputs": [],
      "stateMutability": "nonpayable",
      "type": "function"
    },
    {
      "inputs": [],
      "name": "getAllManager",
      "outputs": [
        {
          "internalType": "address[]",
          "name": "",
          "type": "address[]"
        }
      ],
      "stateMutability": "view",
      "type": "function"
    },
    {
      "inputs": [
        {
          "internalType": "address",
          "name": "_addr",
          "type": "address"
        }
      ],
      "name": "getManager",
      "outputs": [
        {
          "components": [
            {
              "internalType": "string",
              "name": "name",
              "type": "string"
            },
            {
              "internalType": "address",
              "name": "addr",
              "type": "address"
            },
            {
              "internalType": "uint256",
              "name": "OnGoingEvent",
              "type": "uint256"
            },
            {
              "internalType": "uint256",
              "name": "FinishedEvent",
              "type": "uint256"
            },
            {
              "internalType": "uint256",
              "name": "RejectEvent",
              "type": "uint256"
            }
          ],
          "internalType": "struct ManagerLib.Manager",
          "name": "",
          "type": "tuple"
        }
      ],
      "stateMutability": "view",
      "type": "function"
    },
    {
      "inputs": [
        {
          "internalType": "address",
          "name": "_addr",
          "type": "address"
        }
      ],
      "name": "incrementFinishedEvent",
      "outputs": [],
      "stateMutability": "nonpayable",
      "type": "function"
    },
    {
      "inputs": [
        {
          "internalType": "address",
          "name": "_addr",
          "type": "address"
        }
      ],
      "name": "incrementOnGoingEvent",
      "outputs": [],
      "stateMutability": "nonpayable",
      "type": "function"
    },
    {
      "inputs": [
        {
          "internalType": "address",
          "name": "_addr",
          "type": "address"
        }
      ],
      "name": "incrementRejectEvent",
      "outputs": [],
      "stateMutability": "nonpayable",
      "type": "function"
    },
    {
      "inputs": [
        {
          "internalType": "address",
          "name": "_vro_contract",
          "type": "address"
        },
        {
          "internalType": "address[5]",
          "name": "RIRs",
          "type": "address[5]"
        }
      ],
      "name": "initialize",
      "outputs": [],
      "stateMutability": "nonpayable",
      "type": "function"
    },
    {
      "inputs": [],
      "name": "isInitialized",
      "outputs": [
        {
          "internalType": "bool",
          "name": "",
          "type": "bool"
        }
      ],
      "stateMutability": "view",
      "type": "function"
    },
    {
      "inputs": [
        {
          "internalType": "address",
          "name": "_addr",
          "type": "address"
        }
      ],
      "name": "isManager",
      "outputs": [
        {
          "internalType": "bool",
          "name": "",
          "type": "bool"
        }
      ],
      "stateMutability": "view",
      "type": "function"
    },
    {
      "inputs": [
        {
          "internalType": "uint256",
          "name": "",
          "type": "uint256"
        }
      ],
      "name": "managerAddresses",
      "outputs": [
        {
          "internalType": "address",
          "name": "",
          "type": "address"
        }
      ],
      "stateMutability": "view",
      "type": "function"
    },
    {
      "inputs": [
        {
          "internalType": "address",
          "name": "",
          "type": "address"
        }
      ],
      "name": "managers",
      "outputs": [
        {
          "internalType": "string",
          "name": "name",
          "type": "string"
        },
        {
          "internalType": "address",
          "name": "addr",
          "type": "address"
        },
        {
          "internalType": "uint256",
          "name": "OnGoingEvent",
          "type": "uint256"
        },
        {
          "internalType": "uint256",
          "name": "FinishedEvent",
          "type": "uint256"
        },
        {
          "internalType": "uint256",
          "name": "RejectEvent",
          "type": "uint256"
        }
      ],
      "stateMutability": "view",
      "type": "function"
    },
    {
      "inputs": [
        {
          "internalType": "address",
          "name": "currentValidator",
          "type": "address"
        }
      ],
      "name": "reSelectValidator",
      "outputs": [
        {
          "internalType": "address",
          "name": "",
          "type": "address"
        }
      ],
      "stateMutability": "view",
      "type": "function"
    },
    {
      "inputs": [],
      "name": "selectValidator",
      "outputs": [
        {
          "internalType": "address",
          "name": "",
          "type": "address"
        }
      ],
      "stateMutability": "view",
      "type": "function"
    },
    {
      "inputs": [],
      "name": "vro_contract",
      "outputs": [
        {
          "internalType": "address",
          "name": "",
          "type": "address"
        }
      ],
      "stateMutability": "view",
      "type": "function"
    }
  ],
  "bytecode": "0x60a0604052348015600f57600080fd5b503373ffffffffffffffffffffffffffffffffffffffff1660808173ffffffffffffffffffffffffffffffffffffffff168152505060805161299861005f600039600061125c01526129986000f3fe608060405234801561001057600080fd5b50600436106100f55760003560e01c806381323d2a11610097578063d260d95911610066578063d260d95914610286578063e54c3162146102a2578063f3ae2415146102be578063fdff9b4d146102ee576100f5565b806381323d2a1461020057806389c707271461021c5780638bd648521461024c578063a142e1391461026a576100f5565b806348751e45116100d357806348751e45146101645780634daf175f146101945780635a73d5ed146101b25780635c580820146101d0576100f5565b8063392e53cd146100fa5780633becb35c146101185780633d58406314610134575b600080fd5b610102610322565b60405161010f9190611a03565b60405180910390f35b610132600480360381019061012d9190611a90565b610335565b005b61014e60048036038101906101499190611a90565b610475565b60405161015b9190611beb565b60405180910390f35b61017e60048036038101906101799190611c39565b6106b9565b60405161018b9190611c75565b60405180910390f35b61019c6106f8565b6040516101a99190611c75565b60405180910390f35b6101ba61071e565b6040516101c79190611d3f565b60405180910390f35b6101ea60048036038101906101e59190611e96565b610892565b6040516101f79190611a03565b60405180910390f35b61021a60048036038101906102159190611a90565b610bc7565b005b61023660048036038101906102319190611a90565b610d07565b6040516102439190611c75565b60405180910390f35b610254610e71565b6040516102619190611c75565b60405180910390f35b610284600480360381019061027f9190611a90565b610fda565b005b6102a0600480360381019061029b9190611a90565b61111a565b005b6102bc60048036038101906102b79190611fa8565b61125a565b005b6102d860048036038101906102d39190611a90565b611744565b6040516102e59190611a03565b60405180910390f35b61030860048036038101906103039190611a90565b6118c5565b604051610319959493929190612041565b60405180910390f35b600260149054906101000a900460ff1681565b60011515600260149054906101000a900460ff1615151461038b576040517f08c379a0000000000000000000000000000000000000000000000000000000008152600401610382906120e7565b60405180910390fd5b600260009054906101000a900473ffffffffffffffffffffffffffffffffffffffff1673ffffffffffffffffffffffffffffffffffffffff163373ffffffffffffffffffffffffffffffffffffffff161461041b576040517f08c379a000000000000000000000000000000000000000000000000000000000815260040161041290612153565b60405180910390fd5b6000808273ffffffffffffffffffffffffffffffffffffffff1673ffffffffffffffffffffffffffffffffffffffff168152602001908152602001600020600201600081548092919061046d906121a2565b919050555050565b61047d6119a3565b60011515600260149054906101000a900460ff161515146104d3576040517f08c379a00000000000000000000000000000000000000000000000000000000081526004016104ca906120e7565b60405180910390fd5b600260009054906101000a900473ffffffffffffffffffffffffffffffffffffffff1673ffffffffffffffffffffffffffffffffffffffff163373ffffffffffffffffffffffffffffffffffffffff1614610563576040517f08c379a000000000000000000000000000000000000000000000000000000000815260040161055a90612153565b60405180910390fd5b6000808373ffffffffffffffffffffffffffffffffffffffff1673ffffffffffffffffffffffffffffffffffffffff1681526020019081526020016000206040518060a00160405290816000820180546105bc906121fa565b80601f01602080910402602001604051908101604052809291908181526020018280546105e8906121fa565b80156106355780601f1061060a57610100808354040283529160200191610635565b820191906000526020600020905b81548152906001019060200180831161061857829003601f168201915b505050505081526020016001820160009054906101000a900473ffffffffffffffffffffffffffffffffffffffff1673ffffffffffffffffffffffffffffffffffffffff1673ffffffffffffffffffffffffffffffffffffffff16815260200160028201548152602001600382015481526020016004820154815250509050919050565b600181815481106106c957600080fd5b906000526020600020016000915054906101000a900473ffffffffffffffffffffffffffffffffffffffff1681565b600260009054906101000a900473ffffffffffffffffffffffffffffffffffffffff1681565b606060011515600260149054906101000a900460ff16151514610776576040517f08c379a000000000000000000000000000000000000000000000000000000000815260040161076d906120e7565b60405180910390fd5b600260009054906101000a900473ffffffffffffffffffffffffffffffffffffffff1673ffffffffffffffffffffffffffffffffffffffff163373ffffffffffffffffffffffffffffffffffffffff1614610806576040517f08c379a00000000000000000000000000000000000000000000000000000000081526004016107fd90612153565b60405180910390fd5b600180548060200260200160405190810160405280929190818152602001828054801561088857602002820191906000526020600020905b8160009054906101000a900473ffffffffffffffffffffffffffffffffffffffff1673ffffffffffffffffffffffffffffffffffffffff168152602001906001019080831161083e575b5050505050905090565b600060011515600260149054906101000a900460ff161515146108ea576040517f08c379a00000000000000000000000000000000000000000000000000000000081526004016108e1906120e7565b60405180910390fd5b600260009054906101000a900473ffffffffffffffffffffffffffffffffffffffff1673ffffffffffffffffffffffffffffffffffffffff163373ffffffffffffffffffffffffffffffffffffffff161461097a576040517f08c379a000000000000000000000000000000000000000000000000000000000815260040161097190612153565b60405180910390fd5b600073ffffffffffffffffffffffffffffffffffffffff166000808473ffffffffffffffffffffffffffffffffffffffff1673ffffffffffffffffffffffffffffffffffffffff16815260200190815260200160002060010160009054906101000a900473ffffffffffffffffffffffffffffffffffffffff1673ffffffffffffffffffffffffffffffffffffffff1603610bbc57600073__$ebbbe008f9232c6a90f1e507a472771d5f$__6336e60e6085856040518363ffffffff1660e01b8152600401610a4a929190612284565b600060405180830381865af4158015610a67573d6000803e3d6000fd5b505050506040513d6000823e3d601f19601f82011682018060405250810190610a909190612400565b9050806000808573ffffffffffffffffffffffffffffffffffffffff1673ffffffffffffffffffffffffffffffffffffffff1681526020019081526020016000206000820151816000019081610ae691906125f5565b5060208201518160010160006101000a81548173ffffffffffffffffffffffffffffffffffffffff021916908373ffffffffffffffffffffffffffffffffffffffff1602179055506040820151816002015560608201518160030155608082015181600401559050506001839080600181540180825580915050600190039060005260206000200160009091909190916101000a81548173ffffffffffffffffffffffffffffffffffffffff021916908373ffffffffffffffffffffffffffffffffffffffff1602179055506001915050610bc1565b600090505b92915050565b60011515600260149054906101000a900460ff16151514610c1d576040517f08c379a0000000000000000000000000000000000000000000000000000000008152600401610c14906120e7565b60405180910390fd5b600260009054906101000a900473ffffffffffffffffffffffffffffffffffffffff1673ffffffffffffffffffffffffffffffffffffffff163373ffffffffffffffffffffffffffffffffffffffff1614610cad576040517f08c379a0000000000000000000000000000000000000000000000000000000008152600401610ca490612153565b60405180910390fd5b6000808273ffffffffffffffffffffffffffffffffffffffff1673ffffffffffffffffffffffffffffffffffffffff1681526020019081526020016000206003016000815480929190610cff906126c7565b919050555050565b600060011515600260149054906101000a900460ff16151514610d5f576040517f08c379a0000000000000000000000000000000000000000000000000000000008152600401610d56906120e7565b60405180910390fd5b600260009054906101000a900473ffffffffffffffffffffffffffffffffffffffff1673ffffffffffffffffffffffffffffffffffffffff163373ffffffffffffffffffffffffffffffffffffffff1614610def576040517f08c379a0000000000000000000000000000000000000000000000000000000008152600401610de690612153565b60405180910390fd5b73__$ebbbe008f9232c6a90f1e507a472771d5f$__63d05959438360016040518363ffffffff1660e01b8152600401610e29929190612833565b602060405180830381865af4158015610e46573d6000803e3d6000fd5b505050506040513d601f19601f82011682018060405250810190610e6a9190612863565b9050919050565b600060011515600260149054906101000a900460ff16151514610ec9576040517f08c379a0000000000000000000000000000000000000000000000000000000008152600401610ec0906120e7565b60405180910390fd5b600260009054906101000a900473ffffffffffffffffffffffffffffffffffffffff1673ffffffffffffffffffffffffffffffffffffffff163373ffffffffffffffffffffffffffffffffffffffff1614610f59576040517f08c379a0000000000000000000000000000000000000000000000000000000008152600401610f5090612153565b60405180910390fd5b73__$ebbbe008f9232c6a90f1e507a472771d5f$__63a3ee7ebf600060016040518363ffffffff1660e01b8152600401610f94929190612897565b602060405180830381865af4158015610fb1573d6000803e3d6000fd5b505050506040513d601f19601f82011682018060405250810190610fd59190612863565b905090565b60011515600260149054906101000a900460ff16151514611030576040517f08c379a0000000000000000000000000000000000000000000000000000000008152600401611027906120e7565b60405180910390fd5b600260009054906101000a900473ffffffffffffffffffffffffffffffffffffffff1673ffffffffffffffffffffffffffffffffffffffff163373ffffffffffffffffffffffffffffffffffffffff16146110c0576040517f08c379a00000000000000000000000000000000000000000000000000000000081526004016110b790612153565b60405180910390fd5b6000808273ffffffffffffffffffffffffffffffffffffffff1673ffffffffffffffffffffffffffffffffffffffff1681526020019081526020016000206004016000815480929190611112906126c7565b919050555050565b60011515600260149054906101000a900460ff16151514611170576040517f08c379a0000000000000000000000000000000000000000000000000000000008152600401611167906120e7565b60405180910390fd5b600260009054906101000a900473ffffffffffffffffffffffffffffffffffffffff1673ffffffffffffffffffffffffffffffffffffffff163373ffffffffffffffffffffffffffffffffffffffff1614611200576040517f08c379a00000000000000000000000000000000000000000000000000000000081526004016111f790612153565b60405180910390fd5b6000808273ffffffffffffffffffffffffffffffffffffffff1673ffffffffffffffffffffffffffffffffffffffff1681526020019081526020016000206002016000815480929190611252906126c7565b919050555050565b7f000000000000000000000000000000000000000000000000000000000000000073ffffffffffffffffffffffffffffffffffffffff163373ffffffffffffffffffffffffffffffffffffffff16146112e8576040517f08c379a00000000000000000000000000000000000000000000000000000000081526004016112df90612913565b60405180910390fd5b60006040518060a001604052806040518060400160405280600781526020017f414652494e49430000000000000000000000000000000000000000000000000081525081526020016040518060400160405280600581526020017f41504e494300000000000000000000000000000000000000000000000000000081525081526020016040518060400160405280600481526020017f4152494e0000000000000000000000000000000000000000000000000000000081525081526020016040518060400160405280600681526020017f4c41434e4943000000000000000000000000000000000000000000000000000081525081526020016040518060400160405280600881526020017f52495045204e4343000000000000000000000000000000000000000000000000815250815250905060005b60058110156116e257600073ffffffffffffffffffffffffffffffffffffffff1660008085846005811061145657611455612933565b5b602002015173ffffffffffffffffffffffffffffffffffffffff1673ffffffffffffffffffffffffffffffffffffffff16815260200190815260200160002060010160009054906101000a900473ffffffffffffffffffffffffffffffffffffffff1673ffffffffffffffffffffffffffffffffffffffff16036116d557600073__$ebbbe008f9232c6a90f1e507a472771d5f$__6336e60e6084846005811061150357611502612933565b5b602002015186856005811061151b5761151a612933565b5b60200201516040518363ffffffff1660e01b815260040161153d929190612284565b600060405180830381865af415801561155a573d6000803e3d6000fd5b505050506040513d6000823e3d601f19601f820116820180604052508101906115839190612400565b90508060008086856005811061159c5761159b612933565b5b602002015173ffffffffffffffffffffffffffffffffffffffff1673ffffffffffffffffffffffffffffffffffffffff16815260200190815260200160002060008201518160000190816115f091906125f5565b5060208201518160010160006101000a81548173ffffffffffffffffffffffffffffffffffffffff021916908373ffffffffffffffffffffffffffffffffffffffff160217905550604082015181600201556060820151816003015560808201518160040155905050600184836005811061166e5761166d612933565b5b60200201519080600181540180825580915050600190039060005260206000200160009091909190916101000a81548173ffffffffffffffffffffffffffffffffffffffff021916908373ffffffffffffffffffffffffffffffffffffffff160217905550505b808060010191505061141f565b5082600260006101000a81548173ffffffffffffffffffffffffffffffffffffffff021916908373ffffffffffffffffffffffffffffffffffffffff1602179055506001600260146101000a81548160ff021916908315150217905550505050565b600060011515600260149054906101000a900460ff1615151461179c576040517f08c379a0000000000000000000000000000000000000000000000000000000008152600401611793906120e7565b60405180910390fd5b600260009054906101000a900473ffffffffffffffffffffffffffffffffffffffff1673ffffffffffffffffffffffffffffffffffffffff163373ffffffffffffffffffffffffffffffffffffffff161461182c576040517f08c379a000000000000000000000000000000000000000000000000000000000815260040161182390612153565b60405180910390fd5b600073ffffffffffffffffffffffffffffffffffffffff166000808473ffffffffffffffffffffffffffffffffffffffff1673ffffffffffffffffffffffffffffffffffffffff16815260200190815260200160002060010160009054906101000a900473ffffffffffffffffffffffffffffffffffffffff1673ffffffffffffffffffffffffffffffffffffffff1614159050919050565b60006020528060005260406000206000915090508060000180546118e8906121fa565b80601f0160208091040260200160405190810160405280929190818152602001828054611914906121fa565b80156119615780601f1061193657610100808354040283529160200191611961565b820191906000526020600020905b81548152906001019060200180831161194457829003601f168201915b5050505050908060010160009054906101000a900473ffffffffffffffffffffffffffffffffffffffff16908060020154908060030154908060040154905085565b6040518060a0016040528060608152602001600073ffffffffffffffffffffffffffffffffffffffff1681526020016000815260200160008152602001600081525090565b60008115159050919050565b6119fd816119e8565b82525050565b6000602082019050611a1860008301846119f4565b92915050565b6000604051905090565b600080fd5b600080fd5b600073ffffffffffffffffffffffffffffffffffffffff82169050919050565b6000611a5d82611a32565b9050919050565b611a6d81611a52565b8114611a7857600080fd5b50565b600081359050611a8a81611a64565b92915050565b600060208284031215611aa657611aa5611a28565b5b6000611ab484828501611a7b565b91505092915050565b600081519050919050565b600082825260208201905092915050565b60005b83811015611af7578082015181840152602081019050611adc565b60008484015250505050565b6000601f19601f8301169050919050565b6000611b1f82611abd565b611b298185611ac8565b9350611b39818560208601611ad9565b611b4281611b03565b840191505092915050565b611b5681611a52565b82525050565b6000819050919050565b611b6f81611b5c565b82525050565b600060a0830160008301518482036000860152611b928282611b14565b9150506020830151611ba76020860182611b4d565b506040830151611bba6040860182611b66565b506060830151611bcd6060860182611b66565b506080830151611be06080860182611b66565b508091505092915050565b60006020820190508181036000830152611c058184611b75565b905092915050565b611c1681611b5c565b8114611c2157600080fd5b50565b600081359050611c3381611c0d565b92915050565b600060208284031215611c4f57611c4e611a28565b5b6000611c5d84828501611c24565b91505092915050565b611c6f81611a52565b82525050565b6000602082019050611c8a6000830184611c66565b92915050565b600081519050919050565b600082825260208201905092915050565b6000819050602082019050919050565b6000611cc88383611b4d565b60208301905092915050565b6000602082019050919050565b6000611cec82611c90565b611cf68185611c9b565b9350611d0183611cac565b8060005b83811015611d32578151611d198882611cbc565b9750611d2483611cd4565b925050600181019050611d05565b5085935050505092915050565b60006020820190508181036000830152611d598184611ce1565b905092915050565b600080fd5b600080fd5b7f4e487b7100000000000000000000000000000000000000000000000000000000600052604160045260246000fd5b611da382611b03565b810181811067ffffffffffffffff82111715611dc257611dc1611d6b565b5b80604052505050565b6000611dd5611a1e565b9050611de18282611d9a565b919050565b600067ffffffffffffffff821115611e0157611e00611d6b565b5b611e0a82611b03565b9050602081019050919050565b82818337600083830152505050565b6000611e39611e3484611de6565b611dcb565b905082815260208101848484011115611e5557611e54611d66565b5b611e60848285611e17565b509392505050565b600082601f830112611e7d57611e7c611d61565b5b8135611e8d848260208601611e26565b91505092915050565b60008060408385031215611ead57611eac611a28565b5b600083013567ffffffffffffffff811115611ecb57611eca611a2d565b5b611ed785828601611e68565b9250506020611ee885828601611a7b565b9150509250929050565b600067ffffffffffffffff821115611f0d57611f0c611d6b565b5b602082029050919050565b600080fd5b6000611f30611f2b84611ef2565b611dcb565b90508060208402830185811115611f4a57611f49611f18565b5b835b81811015611f735780611f5f8882611a7b565b845260208401935050602081019050611f4c565b5050509392505050565b600082601f830112611f9257611f91611d61565b5b6005611f9f848285611f1d565b91505092915050565b60008060c08385031215611fbf57611fbe611a28565b5b6000611fcd85828601611a7b565b9250506020611fde85828601611f7d565b9150509250929050565b600082825260208201905092915050565b600061200482611abd565b61200e8185611fe8565b935061201e818560208601611ad9565b61202781611b03565b840191505092915050565b61203b81611b5c565b82525050565b600060a082019050818103600083015261205b8188611ff9565b905061206a6020830187611c66565b6120776040830186612032565b6120846060830185612032565b6120916080830184612032565b9695505050505050565b7f4552330000000000000000000000000000000000000000000000000000000000600082015250565b60006120d1600383611fe8565b91506120dc8261209b565b602082019050919050565b60006020820190508181036000830152612100816120c4565b9050919050565b7f4552320000000000000000000000000000000000000000000000000000000000600082015250565b600061213d600383611fe8565b915061214882612107565b602082019050919050565b6000602082019050818103600083015261216c81612130565b9050919050565b7f4e487b7100000000000000000000000000000000000000000000000000000000600052601160045260246000fd5b60006121ad82611b5c565b9150600082036121c0576121bf612173565b5b600182039050919050565b7f4e487b7100000000000000000000000000000000000000000000000000000000600052602260045260246000fd5b6000600282049050600182168061221257607f821691505b602082108103612225576122246121cb565b5b50919050565b600082825260208201905092915050565b600061224782611abd565b612251818561222b565b9350612261818560208601611ad9565b61226a81611b03565b840191505092915050565b61227e81611a52565b82525050565b6000604082019050818103600083015261229e818561223c565b90506122ad6020830184612275565b9392505050565b600080fd5b600080fd5b60006122d16122cc84611de6565b611dcb565b9050828152602081018484840111156122ed576122ec611d66565b5b6122f8848285611ad9565b509392505050565b600082601f83011261231557612314611d61565b5b81516123258482602086016122be565b91505092915050565b60008151905061233d81611a64565b92915050565b60008151905061235281611c0d565b92915050565b600060a0828403121561236e5761236d6122b4565b5b61237860a0611dcb565b9050600082015167ffffffffffffffff811115612398576123976122b9565b5b6123a484828501612300565b60008301525060206123b88482850161232e565b60208301525060406123cc84828501612343565b60408301525060606123e084828501612343565b60608301525060806123f484828501612343565b60808301525092915050565b60006020828403121561241657612415611a28565b5b600082015167ffffffffffffffff81111561243457612433611a2d565b5b61244084828501612358565b91505092915050565b60008190508160005260206000209050919050565b60006020601f8301049050919050565b600082821b905092915050565b6000600883026124ab7fffffffffffffffffffffffffffffffffffffffffffffffffffffffffffffffff8261246e565b6124b5868361246e565b95508019841693508086168417925050509392505050565b6000819050919050565b60006124f26124ed6124e884611b5c565b6124cd565b611b5c565b9050919050565b6000819050919050565b61250c836124d7565b612520612518826124f9565b84845461247b565b825550505050565b600090565b612535612528565b612540818484612503565b505050565b5b818110156125645761255960008261252d565b600181019050612546565b5050565b601f8211156125a95761257a81612449565b6125838461245e565b81016020851015612592578190505b6125a661259e8561245e565b830182612545565b50505b505050565b600082821c905092915050565b60006125cc600019846008026125ae565b1980831691505092915050565b60006125e583836125bb565b9150826002028217905092915050565b6125fe82611abd565b67ffffffffffffffff81111561261757612616611d6b565b5b61262182546121fa565b61262c828285612568565b600060209050601f83116001811461265f576000841561264d578287015190505b61265785826125d9565b8655506126bf565b601f19841661266d86612449565b60005b8281101561269557848901518255600182019150602085019450602081019050612670565b868310156126b257848901516126ae601f8916826125bb565b8355505b6001600288020188555050505b505050505050565b60006126d282611b5c565b91507fffffffffffffffffffffffffffffffffffffffffffffffffffffffffffffffff820361270457612703612173565b5b600182019050919050565b600081549050919050565b600082825260208201905092915050565b60008190508160005260206000209050919050565b61274981611a52565b82525050565b600061275b8383612740565b60208301905092915050565b60008160001c9050919050565b600073ffffffffffffffffffffffffffffffffffffffff82169050919050565b60006127a76127a283612767565b612774565b9050919050565b60006127ba8254612794565b9050919050565b6000600182019050919050565b60006127d98261270f565b6127e3818561271a565b93506127ee8361272b565b8060005b8381101561282657612803826127ae565b61280d888261274f565b9750612818836127c1565b9250506001810190506127f2565b5085935050505092915050565b60006040820190506128486000830185612275565b818103602083015261285a81846127ce565b90509392505050565b60006020828403121561287957612878611a28565b5b60006128878482850161232e565b91505092915050565b8082525050565b60006040820190506128ac6000830185612890565b81810360208301526128be81846127ce565b90509392505050565b7f4552310000000000000000000000000000000000000000000000000000000000600082015250565b60006128fd600383611fe8565b9150612908826128c7565b602082019050919050565b6000602082019050818103600083015261292c816128f0565b9050919050565b7f4e487b7100000000000000000000000000000000000000000000000000000000600052603260045260246000fdfea2646970667358221220d8d0686bac3854964b55ccff7fc2a69e3167eff3f23ec0135097a26162ff0be764736f6c634300081b0033",
  "linkReferences": {
    "contracts/ManagerLib.sol": {
      "ManagerLib": [
        {
          "length": 20,
          "start": 2674
        },
        {
          "length": 20,
          "start": 3664
        },
        {
          "length": 20,
          "start": 4026
        },
        {
          "length": 20,
          "start": 5431
        }
      ]
    }
  },
  "deployedLinkReferences": {
    "contracts/ManagerLib.sol": {
      "ManagerLib": [
        {
          "length": 20,
          "start": 2579
        },
        {
          "length": 20,
          "start": 3569
        },
        {
          "length": 20,
          "start": 3931
        },
        {
          "length": 20,
          "start": 5336
        }
      ]
    }
  }
}