{
  "_format": "hh-sol-artifact-1",
  "contractName": "ConflictLib",
  "sourceName": "contracts/ConflictLib.sol",
  "abi": [
    {
      "inputs": [
        {
          "internalType": "uint256",
          "name": "_ID",
          "type": "uint256"
        },
        {
          "internalType": "string",
          "name": "_IP_Prefix",
          "type": "string"
        },
        {
          "internalType": "uint256[]",
          "name": "_MOAS",
          "type": "uint256[]"
        },
        {
          "internalType": "address",
          "name": "_Validator",
          "type": "address"
        },
        {
          "internalType": "address",
          "name": "_Reporter",
          "type": "address"
        }
      ],
      "name": "CreateConflict",
      "outputs": [
        {
          "components": [
            {
              "internalType": "uint256",
              "name": "ConflictID",
              "type": "uint256"
            },
            {
              "internalType": "string",
              "name": "IP_Prefix",
              "type": "string"
            },
            {
              "internalType": "uint256[]",
              "name": "MOAS",
              "type": "uint256[]"
            },
            {
              "internalType": "address",
              "name": "Validator",
              "type": "address"
            },
            {
              "internalType": "address",
              "name": "Reporter",
              "type": "address"
            },
            {
              "internalType": "uint256[]",
              "name": "Voters",
              "type": "uint256[]"
            },
            {
              "internalType": "uint256",
              "name": "Status",
              "type": "uint256"
            },
            {
              "internalType": "uint256",
              "name": "Options",
              "type": "uint256"
            },
            {
              "internalType": "string[]",
              "name": "OptionNames",
              "type": "string[]"
            },
            {
              "internalType": "uint256",
              "name": "Result",
              "type": "uint256"
            }
          ],
          "internalType": "struct ConflictLib.Conflict",
          "name": "",
          "type": "tuple"
        }
      ],
      "stateMutability": "pure",
      "type": "function"
    },
    {
      "inputs": [
        {
          "internalType": "uint256[]",
          "name": "_MOAS",
          "type": "uint256[]"
        }
      ],
      "name": "generateOptionName",
      "outputs": [
        {
          "internalType": "string[]",
          "name": "",
          "type": "string[]"
        }
      ],
      "stateMutability": "pure",
      "type": "function"
    }
  ],
  "bytecode": "0x6110f2610052600b82828239805160001a6073146045577f4e487b7100000000000000000000000000000000000000000000000000000000600052600060045260246000fd5b30600052607381538281f3fe73000000000000000000000000000000000000000030146080604052600436106100405760003560e01c8063a45337a114610045578063dd57169f14610075575b600080fd5b61005f600480360381019061005a91906106f3565b6100a5565b60405161006c919061087d565b60405180910390f35b61008f600480360381019061008a91906109b2565b61026a565b60405161009c9190610ca7565b60405180910390f35b606060008251905060008160026100bc9190610e2b565b905060008167ffffffffffffffff8111156100da576100d961057a565b5b60405190808252806020026020018201604052801561010d57816020015b60608152602001906001900390816100f85790505b5090506040518060400160405280600481526020017f4e6f6e65000000000000000000000000000000000000000000000000000000008152508160008151811061015a57610159610e76565b5b60200260200101819052506000600190505b8281101561025e57600060405180602001604052806000815250905060006001905060005b8681101561022f576001808286901c16036102225781156101da576101cf8982815181106101c2576101c1610e76565b5b6020026020010151610349565b925060009150610221565b826101fe8a83815181106101f1576101f0610e76565b5b6020026020010151610349565b60405160200161020f929190610f2d565b60405160208183030381529060405292505b5b8080600101915050610191565b508184848151811061024457610243610e76565b5b60200260200101819052505050808060010191505061016c565b50809350505050919050565b6102726104d1565b600061027d856100a5565b90506040518061014001604052808881526020018781526020018681526020018573ffffffffffffffffffffffffffffffffffffffff1681526020018473ffffffffffffffffffffffffffffffffffffffff168152602001600067ffffffffffffffff8111156102f0576102ef61057a565b5b60405190808252806020026020018201604052801561031e5781602001602082028036833780820191505090505b5081526020016000815260200182518152602001828152602001600081525091505095945050505050565b606060008203610390576040518060400160405280600181526020017f300000000000000000000000000000000000000000000000000000000000000081525090506104cc565b600082905060005b600082146103c25780806103ab90610f5c565b915050600a826103bb9190610fd3565b9150610398565b60008167ffffffffffffffff8111156103de576103dd61057a565b5b6040519080825280601f01601f1916602001820160405280156104105781602001600182028036833780820191505090505b50905060008290505b600086146104c45760018161042e9190611004565b90506000600a80886104409190610fd3565b61044a9190611038565b876104559190611004565b60306104619190611087565b905060008160f81b90508084848151811061047f5761047e610e76565b5b60200101907effffffffffffffffffffffffffffffffffffffffffffffffffffffffffffff1916908160001a905350600a886104bb9190610fd3565b97505050610419565b819450505050505b919050565b604051806101400160405280600081526020016060815260200160608152602001600073ffffffffffffffffffffffffffffffffffffffff168152602001600073ffffffffffffffffffffffffffffffffffffffff16815260200160608152602001600081526020016000815260200160608152602001600081525090565b6000604051905090565b600080fd5b600080fd5b600080fd5b6000601f19601f8301169050919050565b7f4e487b7100000000000000000000000000000000000000000000000000000000600052604160045260246000fd5b6105b282610569565b810181811067ffffffffffffffff821117156105d1576105d061057a565b5b80604052505050565b60006105e4610550565b90506105f082826105a9565b919050565b600067ffffffffffffffff8211156106105761060f61057a565b5b602082029050602081019050919050565b600080fd5b6000819050919050565b61063981610626565b811461064457600080fd5b50565b60008135905061065681610630565b92915050565b600061066f61066a846105f5565b6105da565b9050808382526020820190506020840283018581111561069257610691610621565b5b835b818110156106bb57806106a78882610647565b845260208401935050602081019050610694565b5050509392505050565b600082601f8301126106da576106d9610564565b5b81356106ea84826020860161065c565b91505092915050565b6000602082840312156107095761070861055a565b5b600082013567ffffffffffffffff8111156107275761072661055f565b5b610733848285016106c5565b91505092915050565b600081519050919050565b600082825260208201905092915050565b6000819050602082019050919050565b600081519050919050565b600082825260208201905092915050565b60005b838110156107a2578082015181840152602081019050610787565b60008484015250505050565b60006107b982610768565b6107c38185610773565b93506107d3818560208601610784565b6107dc81610569565b840191505092915050565b60006107f383836107ae565b905092915050565b6000602082019050919050565b60006108138261073c565b61081d8185610747565b93508360208202850161082f85610758565b8060005b8581101561086b578484038952815161084c85826107e7565b9450610857836107fb565b925060208a01995050600181019050610833565b50829750879550505050505092915050565b600060208201905081810360008301526108978184610808565b905092915050565b600080fd5b600067ffffffffffffffff8211156108bf576108be61057a565b5b6108c882610569565b9050602081019050919050565b82818337600083830152505050565b60006108f76108f2846108a4565b6105da565b9050828152602081018484840111156109135761091261089f565b5b61091e8482856108d5565b509392505050565b600082601f83011261093b5761093a610564565b5b813561094b8482602086016108e4565b91505092915050565b600073ffffffffffffffffffffffffffffffffffffffff82169050919050565b600061097f82610954565b9050919050565b61098f81610974565b811461099a57600080fd5b50565b6000813590506109ac81610986565b92915050565b600080600080600060a086880312156109ce576109cd61055a565b5b60006109dc88828901610647565b955050602086013567ffffffffffffffff8111156109fd576109fc61055f565b5b610a0988828901610926565b945050604086013567ffffffffffffffff811115610a2a57610a2961055f565b5b610a36888289016106c5565b9350506060610a478882890161099d565b9250506080610a588882890161099d565b9150509295509295909350565b610a6e81610626565b82525050565b600081519050919050565b600082825260208201905092915050565b6000819050602082019050919050565b6000610aac8383610a65565b60208301905092915050565b6000602082019050919050565b6000610ad082610a74565b610ada8185610a7f565b9350610ae583610a90565b8060005b83811015610b16578151610afd8882610aa0565b9750610b0883610ab8565b925050600181019050610ae9565b5085935050505092915050565b610b2c81610974565b82525050565b600082825260208201905092915050565b6000610b4e8261073c565b610b588185610b32565b935083602082028501610b6a85610758565b8060005b85811015610ba65784840389528151610b8785826107e7565b9450610b92836107fb565b925060208a01995050600181019050610b6e565b50829750879550505050505092915050565b600061014083016000830151610bd16000860182610a65565b5060208301518482036020860152610be982826107ae565b91505060408301518482036040860152610c038282610ac5565b9150506060830151610c186060860182610b23565b506080830151610c2b6080860182610b23565b5060a083015184820360a0860152610c438282610ac5565b91505060c0830151610c5860c0860182610a65565b5060e0830151610c6b60e0860182610a65565b50610100830151848203610100860152610c858282610b43565b915050610120830151610c9c610120860182610a65565b508091505092915050565b60006020820190508181036000830152610cc18184610bb8565b905092915050565b7f4e487b7100000000000000000000000000000000000000000000000000000000600052601160045260246000fd5b60008160011c9050919050565b6000808291508390505b6001851115610d4f57808604811115610d2b57610d2a610cc9565b5b6001851615610d3a5780820291505b8081029050610d4885610cf8565b9450610d0f565b94509492505050565b600082610d685760019050610e24565b81610d765760009050610e24565b8160018114610d8c5760028114610d9657610dc5565b6001915050610e24565b60ff841115610da857610da7610cc9565b5b8360020a915084821115610dbf57610dbe610cc9565b5b50610e24565b5060208310610133831016604e8410600b8410161715610dfa5782820a905083811115610df557610df4610cc9565b5b610e24565b610e078484846001610d05565b92509050818404811115610e1e57610e1d610cc9565b5b81810290505b9392505050565b6000610e3682610626565b9150610e4183610626565b9250610e6e7fffffffffffffffffffffffffffffffffffffffffffffffffffffffffffffffff8484610d58565b905092915050565b7f4e487b7100000000000000000000000000000000000000000000000000000000600052603260045260246000fd5b600081905092915050565b6000610ebb82610768565b610ec58185610ea5565b9350610ed5818560208601610784565b80840191505092915050565b7f2c00000000000000000000000000000000000000000000000000000000000000600082015250565b6000610f17600183610ea5565b9150610f2282610ee1565b600182019050919050565b6000610f398285610eb0565b9150610f4482610f0a565b9150610f508284610eb0565b91508190509392505050565b6000610f6782610626565b91507fffffffffffffffffffffffffffffffffffffffffffffffffffffffffffffffff8203610f9957610f98610cc9565b5b600182019050919050565b7f4e487b7100000000000000000000000000000000000000000000000000000000600052601260045260246000fd5b6000610fde82610626565b9150610fe983610626565b925082610ff957610ff8610fa4565b5b828204905092915050565b600061100f82610626565b915061101a83610626565b925082820390508181111561103257611031610cc9565b5b92915050565b600061104382610626565b915061104e83610626565b925082820261105c81610626565b9150828204841483151761107357611072610cc9565b5b5092915050565b600060ff82169050919050565b60006110928261107a565b915061109d8361107a565b9250828201905060ff8111156110b6576110b5610cc9565b5b9291505056fea2646970667358221220ffeae8bcd8384fce0b44f970b3558bce477f4fe0c9451308c6f41d5a91e144d564736f6c634300081b0033",
  "linkReferences": {},
  "deployedLinkReferences": {}
}