{
  "_format": "hh-sol-artifact-1",
  "contractName": "ManagerLib",
  "sourceName": "contracts/ManagerLib.sol",
  "abi": [
    {
      "inputs": [
        {
          "internalType": "string",
          "name": "_name",
          "type": "string"
        },
        {
          "internalType": "address",
          "name": "_addr",
          "type": "address"
        }
      ],
      "name": "CreateManager",
      "outputs": [
        {
          "components": [
            {
              "internalType": "string",
              "name": "name",
              "type": "string"
            },
            {
              "internalType": "address",
              "name": "addr",
              "type": "address"
            },
            {
              "internalType": "uint256",
              "name": "OnGoingEvent",
              "type": "uint256"
            },
            {
              "internalType": "uint256",
              "name": "FinishedEvent",
              "type": "uint256"
            },
            {
              "internalType": "uint256",
              "name": "RejectEvent",
              "type": "uint256"
            }
          ],
          "internalType": "struct ManagerLib.Manager",
          "name": "",
          "type": "tuple"
        }
      ],
      "stateMutability": "pure",
      "type": "function"
    },
    {
      "inputs": [
        {
          "internalType": "address",
          "name": "currentValidator",
          "type": "address"
        },
        {
          "internalType": "address[]",
          "name": "managerAddresses",
          "type": "address[]"
        }
      ],
      "name": "ReSelectManager",
      "outputs": [
        {
          "internalType": "address",
          "name": "",
          "type": "address"
        }
      ],
      "stateMutability": "pure",
      "type": "function"
    }
  ],
  "bytecode": "0x610972610052600b82828239805160001a6073146045577f4e487b7100000000000000000000000000000000000000000000000000000000600052600060045260246000fd5b30600052607381538281f3fe730000000000000000000000000000000000000000301460806040526004361061004b5760003560e01c806336e60e6014610050578063a3ee7ebf14610080578063d0595943146100b0575b600080fd5b61006a60048036038101906100659190610482565b6100e0565b60405161007791906105fb565b60405180910390f35b61009a6004803603810190610095919061071b565b610130565b6040516100a79190610786565b60405180910390f35b6100ca60048036038101906100c591906107a1565b6101d0565b6040516100d79190610786565b60405180910390f35b6100e8610285565b6040518060a001604052808481526020018373ffffffffffffffffffffffffffffffffffffffff16815260200160008152602001600081526020016000815250905092915050565b60008082510361014357600090506101ca565b600182510361016f57816000815181106101605761015f6107fd565b5b602002602001015190506101ca565b60008251424460405160200161018692919061084d565b6040516020818303038152906040528051906020012060001c6101a991906108a8565b90508281815181106101be576101bd6107fd565b5b60200260200101519150505b92915050565b6000806000905060005b8351811015610245578381815181106101f6576101f56107fd565b5b602002602001015173ffffffffffffffffffffffffffffffffffffffff168573ffffffffffffffffffffffffffffffffffffffff160361023857809150610245565b80806001019150506101da565b5082516001826102559190610908565b61025f91906108a8565b9050828181518110610274576102736107fd565b5b602002602001015191505092915050565b6040518060a0016040528060608152602001600073ffffffffffffffffffffffffffffffffffffffff1681526020016000815260200160008152602001600081525090565b6000604051905090565b600080fd5b600080fd5b600080fd5b600080fd5b6000601f19601f8301169050919050565b7f4e487b7100000000000000000000000000000000000000000000000000000000600052604160045260246000fd5b610331826102e8565b810181811067ffffffffffffffff821117156103505761034f6102f9565b5b80604052505050565b60006103636102ca565b905061036f8282610328565b919050565b600067ffffffffffffffff82111561038f5761038e6102f9565b5b610398826102e8565b9050602081019050919050565b82818337600083830152505050565b60006103c76103c284610374565b610359565b9050828152602081018484840111156103e3576103e26102e3565b5b6103ee8482856103a5565b509392505050565b600082601f83011261040b5761040a6102de565b5b813561041b8482602086016103b4565b91505092915050565b600073ffffffffffffffffffffffffffffffffffffffff82169050919050565b600061044f82610424565b9050919050565b61045f81610444565b811461046a57600080fd5b50565b60008135905061047c81610456565b92915050565b60008060408385031215610499576104986102d4565b5b600083013567ffffffffffffffff8111156104b7576104b66102d9565b5b6104c3858286016103f6565b92505060206104d48582860161046d565b9150509250929050565b600081519050919050565b600082825260208201905092915050565b60005b838110156105185780820151818401526020810190506104fd565b60008484015250505050565b600061052f826104de565b61053981856104e9565b93506105498185602086016104fa565b610552816102e8565b840191505092915050565b61056681610444565b82525050565b6000819050919050565b61057f8161056c565b82525050565b600060a08301600083015184820360008601526105a28282610524565b91505060208301516105b7602086018261055d565b5060408301516105ca6040860182610576565b5060608301516105dd6060860182610576565b5060808301516105f06080860182610576565b508091505092915050565b600060208201905081810360008301526106158184610585565b905092915050565b6000819050919050565b6106308161061d565b811461063b57600080fd5b50565b60008135905061064d81610627565b92915050565b600067ffffffffffffffff82111561066e5761066d6102f9565b5b602082029050602081019050919050565b600080fd5b600061069761069284610653565b610359565b905080838252602082019050602084028301858111156106ba576106b961067f565b5b835b818110156106e357806106cf888261046d565b8452602084019350506020810190506106bc565b5050509392505050565b600082601f830112610702576107016102de565b5b8135610712848260208601610684565b91505092915050565b60008060408385031215610732576107316102d4565b5b60006107408582860161063e565b925050602083013567ffffffffffffffff811115610761576107606102d9565b5b61076d858286016106ed565b9150509250929050565b61078081610444565b82525050565b600060208201905061079b6000830184610777565b92915050565b600080604083850312156107b8576107b76102d4565b5b60006107c68582860161046d565b925050602083013567ffffffffffffffff8111156107e7576107e66102d9565b5b6107f3858286016106ed565b9150509250929050565b7f4e487b7100000000000000000000000000000000000000000000000000000000600052603260045260246000fd5b6000819050919050565b6108476108428261056c565b61082c565b82525050565b60006108598285610836565b6020820191506108698284610836565b6020820191508190509392505050565b7f4e487b7100000000000000000000000000000000000000000000000000000000600052601260045260246000fd5b60006108b38261056c565b91506108be8361056c565b9250826108ce576108cd610879565b5b828206905092915050565b7f4e487b7100000000000000000000000000000000000000000000000000000000600052601160045260246000fd5b60006109138261056c565b915061091e8361056c565b9250828201905080821115610936576109356108d9565b5b9291505056fea2646970667358221220a3f0de32629a59cbbcb9aaabcb1a22efff264db12cf7d6c4c4dfb145654b8b2064736f6c634300081b0033",
  "linkReferences": {},
  "deployedLinkReferences": {}
}