{
  "_format": "hh-sol-artifact-1",
  "contractName": "ZKTree",
  "sourceName": "contracts/ZKTree.sol",
  "abi": [
    {
      "inputs": [
        {
          "internalType": "uint32",
          "name": "_levels",
          "type": "uint32"
        },
        {
          "internalType": "address",
          "name": "_addr",
          "type": "address"
        },
        {
          "internalType": "contract IVerifier",
          "name": "_verifier",
          "type": "address"
        }
      ],
      "stateMutability": "nonpayable",
      "type": "constructor"
    },
    {
      "anonymous": false,
      "inputs": [
        {
          "indexed": true,
          "internalType": "bytes32",
          "name": "commitment",
          "type": "bytes32"
        },
        {
          "indexed": false,
          "internalType": "uint32",
          "name": "leafIndex",
          "type": "uint32"
        },
        {
          "indexed": false,
          "internalType": "uint256",
          "name": "timestamp",
          "type": "uint256"
        }
      ],
      "name": "Commit",
      "type": "event"
    },
    {
      "anonymous": false,
      "inputs": [
        {
          "indexed": false,
          "internalType": "string",
          "name": "message",
          "type": "string"
        },
        {
          "indexed": false,
          "internalType": "uint256",
          "name": "value1",
          "type": "uint256"
        },
        {
          "indexed": false,
          "internalType": "uint256",
          "name": "value2",
          "type": "uint256"
        }
      ],
      "name": "Debug",
      "type": "event"
    },
    {
      "anonymous": false,
      "inputs": [
        {
          "indexed": false,
          "internalType": "string",
          "name": "message",
          "type": "string"
        },
        {
          "indexed": false,
          "internalType": "address",
          "name": "value",
          "type": "address"
        }
      ],
      "name": "DebugAddr",
      "type": "event"
    },
    {
      "inputs": [],
      "name": "FIELD_SIZE",
      "outputs": [
        {
          "internalType": "uint256",
          "name": "",
          "type": "uint256"
        }
      ],
      "stateMutability": "view",
      "type": "function"
    },
    {
      "inputs": [],
      "name": "ROOT_HISTORY_SIZE",
      "outputs": [
        {
          "internalType": "uint32",
          "name": "",
          "type": "uint32"
        }
      ],
      "stateMutability": "view",
      "type": "function"
    },
    {
      "inputs": [],
      "name": "ZERO_VALUE",
      "outputs": [
        {
          "internalType": "uint256",
          "name": "",
          "type": "uint256"
        }
      ],
      "stateMutability": "view",
      "type": "function"
    },
    {
      "inputs": [
        {
          "internalType": "bytes32",
          "name": "",
          "type": "bytes32"
        }
      ],
      "name": "commitments",
      "outputs": [
        {
          "internalType": "bool",
          "name": "",
          "type": "bool"
        }
      ],
      "stateMutability": "view",
      "type": "function"
    },
    {
      "inputs": [],
      "name": "currentRootIndex",
      "outputs": [
        {
          "internalType": "uint32",
          "name": "",
          "type": "uint32"
        }
      ],
      "stateMutability": "view",
      "type": "function"
    },
    {
      "inputs": [
        {
          "internalType": "uint256",
          "name": "",
          "type": "uint256"
        }
      ],
      "name": "filledSubtrees",
      "outputs": [
        {
          "internalType": "bytes32",
          "name": "",
          "type": "bytes32"
        }
      ],
      "stateMutability": "view",
      "type": "function"
    },
    {
      "inputs": [],
      "name": "getLastRoot",
      "outputs": [
        {
          "internalType": "bytes32",
          "name": "",
          "type": "bytes32"
        }
      ],
      "stateMutability": "view",
      "type": "function"
    },
    {
      "inputs": [
        {
          "internalType": "uint256",
          "name": "_left",
          "type": "uint256"
        },
        {
          "internalType": "uint256",
          "name": "_right",
          "type": "uint256"
        }
      ],
      "name": "hashLeftRight",
      "outputs": [
        {
          "internalType": "bytes32",
          "name": "",
          "type": "bytes32"
        }
      ],
      "stateMutability": "view",
      "type": "function"
    },
    {
      "inputs": [],
      "name": "hasher",
      "outputs": [
        {
          "internalType": "contract IHasher",
          "name": "",
          "type": "address"
        }
      ],
      "stateMutability": "view",
      "type": "function"
    },
    {
      "inputs": [],
      "name": "hasherAddr",
      "outputs": [
        {
          "internalType": "address",
          "name": "",
          "type": "address"
        }
      ],
      "stateMutability": "view",
      "type": "function"
    },
    {
      "inputs": [
        {
          "internalType": "bytes32",
          "name": "_root",
          "type": "bytes32"
        }
      ],
      "name": "isKnownRoot",
      "outputs": [
        {
          "internalType": "bool",
          "name": "",
          "type": "bool"
        }
      ],
      "stateMutability": "view",
      "type": "function"
    },
    {
      "inputs": [],
      "name": "levels",
      "outputs": [
        {
          "internalType": "uint32",
          "name": "",
          "type": "uint32"
        }
      ],
      "stateMutability": "view",
      "type": "function"
    },
    {
      "inputs": [],
      "name": "nextIndex",
      "outputs": [
        {
          "internalType": "uint32",
          "name": "",
          "type": "uint32"
        }
      ],
      "stateMutability": "view",
      "type": "function"
    },
    {
      "inputs": [
        {
          "internalType": "bytes32",
          "name": "",
          "type": "bytes32"
        }
      ],
      "name": "nullifiers",
      "outputs": [
        {
          "internalType": "bool",
          "name": "",
          "type": "bool"
        }
      ],
      "stateMutability": "view",
      "type": "function"
    },
    {
      "inputs": [
        {
          "internalType": "uint256",
          "name": "",
          "type": "uint256"
        }
      ],
      "name": "roots",
      "outputs": [
        {
          "internalType": "bytes32",
          "name": "",
          "type": "bytes32"
        }
      ],
      "stateMutability": "view",
      "type": "function"
    },
    {
      "inputs": [],
      "name": "verifier",
      "outputs": [
        {
          "internalType": "contract IVerifier",
          "name": "",
          "type": "address"
        }
      ],
      "stateMutability": "view",
      "type": "function"
    },
    {
      "inputs": [
        {
          "internalType": "uint256",
          "name": "i",
          "type": "uint256"
        }
      ],
      "name": "zeros",
      "outputs": [
        {
          "internalType": "bytes32",
          "name": "",
          "type": "bytes32"
        }
      ],
      "stateMutability": "pure",
      "type": "function"
    }
  ],
  "bytecode": "0x60c06040526000600360006101000a81548163ffffffff021916908363ffffffff1602179055506000600360046101000a81548163ffffffff021916908363ffffffff16021790555034801561005457600080fd5b506040516121eb3803806121eb83398181016040528101906100769190610a63565b828260008263ffffffff16116100c1576040517f08c379a00000000000000000000000000000000000000000000000000000000081526004016100b890610b39565b60405180910390fd5b60208263ffffffff161061010a576040517f08c379a000000000000000000000000000000000000000000000000000000000815260040161010190610ba5565b60405180910390fd5b816000806101000a81548163ffffffff021916908363ffffffff16021790555080600360086101000a81548173ffffffffffffffffffffffffffffffffffffffff021916908373ffffffffffffffffffffffffffffffffffffffff1602179055507f619c62393708f63887b9ff82e481dbe31792a4445225c39a9d31d2144bccafb4600360089054906101000a900473ffffffffffffffffffffffffffffffffffffffff166040516101bc9190610c20565b60405180910390a1600360089054906101000a900473ffffffffffffffffffffffffffffffffffffffff1673ffffffffffffffffffffffffffffffffffffffff1660808173ffffffffffffffffffffffffffffffffffffffff168152505060005b8263ffffffff168163ffffffff161015610270576102468163ffffffff166102e760201b60201c565b600160008363ffffffff16815260200190815260200160002081905550808060010191505061021d565b506102926001836102819190610c7d565b63ffffffff166102e760201b60201c565b600260008081526020019081526020016000208190555050508073ffffffffffffffffffffffffffffffffffffffff1660a08173ffffffffffffffffffffffffffffffffffffffff1681525050505050610d21565b600080820361031b577f2fe54c60d3acabf3343a35b6eba15db4821b340f76e741e2249685ed4899af6c60001b9050610981565b6001820361034e577f256a6135777eee2fd26f54b8b7037a25439d5235caee224154186d2b8a52e31d60001b9050610981565b60028203610381577f1151949895e82ab19924de92c40a3d6f7bcb60d92b00504b8199613683f0c20060001b9050610981565b600382036103b4577f20121ee811489ff8d61f09fb89e313f14959a0f28bb428a20dba6b0b068b3bdb60001b9050610981565b600482036103e7577f0a89ca6ffa14cc462cfedb842c30ed221a50a3d6bf022a6a57dc82ab24c157c960001b9050610981565b6005820361041a577f24ca05c2b5cd42e890d6be94c68d0689f4f21c9cec9c0f13fe41d566dfb5495960001b9050610981565b6006820361044d577f1ccb97c932565a92c60156bdba2d08f3bf1377464e025cee765679e604a7315c60001b9050610981565b60078203610480577f19156fbd7d1a8bf5cba8909367de1b624534ebab4f0f79e003bccdd1b182bdb460001b9050610981565b600882036104b3577f261af8c1f0912e465744641409f622d466c3920ac6e5ff37e36604cb11dfff8060001b9050610981565b600982036104e5577e58459724ff6ca5a1652fcbc3e82b93895cf08e975b19beab3f54c217d1c00760001b9050610981565b600a8203610518577f1f04ef20dee48d39984d8eabe768a70eafa6310ad20849d4573c3c40c2ad1e3060001b9050610981565b600b820361054b577f1bea3dec5dab51567ce7e200a30f7ba6d4276aeaa53e2686f962a46c66d511e560001b9050610981565b600c820361057e577f0ee0f941e2da4b9e31c3ca97a40d8fa9ce68d97c084177071b3cb46cd3372f0f60001b9050610981565b600d82036105b1577f1ca9503e8935884501bbaf20be14eb4c46b89772c97b96e3b2ebf3a36a948bbd60001b9050610981565b600e82036105e4577f133a80e30697cd55d8f7d4b0965b7be24057ba5dc3da898ee2187232446cb10860001b9050610981565b600f8203610617577f13e6d8fc88839ed76e182c2a779af5b2c0da9dd18c90427a644f7e148a6253b660001b9050610981565b6010820361064a577f1eb16b057a477f4bc8f572ea6bee39561098f78f15bfb3699dcbb7bd8db6185460001b9050610981565b6011820361067d577f0da2cb16a1ceaabf1c16b838f7a9e3f2a3a3088d9e0a6debaa748114620696ea60001b9050610981565b601282036106b0577f24a3b3d822420b14b5d8cb6c28a574f01e98ea9e940551d2ebd75cee12649f9d60001b9050610981565b601382036106e3577f198622acbd783d1b0d9064105b1fc8e4d8889de95c4c519b3f635809fe6afc0560001b9050610981565b60148203610716577f29d7ed391256ccc3ea596c86e933b89ff339d25ea8ddced975ae2fe30b5296d460001b9050610981565b60158203610749577f19be59f2f0413ce78c0c3703a3a5451b1d7f39629fa33abd11548a76065b296760001b9050610981565b6016820361077c577f1ff3f61797e538b70e619310d33f2a063e7eb59104e112e95738da1254dc345360001b9050610981565b601782036107af577f10c16ae9959cf8358980d9dd9616e48228737310a10e2b6b731c1a548f036c4860001b9050610981565b601882036107e2577f0ba433a63174a90ac20992e75e3095496812b652685b5e1a2eae0b1bf4e8fcd160001b9050610981565b60198203610815577f019ddb9df2bc98d987d0dfeca9d2b643deafab8f7036562e627c3667266a044c60001b9050610981565b601a8203610848577f2d3c88b23175c5a5565db928414c66d1912b11acf974b2e644caaac04739ce9960001b9050610981565b601b820361087b577f2eab55f6ae4e66e32c5189eed5c470840863445760f5ed7e7b69b2a62600f35460001b9050610981565b601c82036108ad577e2df37a2642621802383cf952bf4dd1f32e05433beeb1fd41031fb7eace979d60001b9050610981565b601d82036108e0577f104aeb41435db66c3e62feccc1d6f5d98d0a0ed75d1374db457cf462e3a1f42760001b9050610981565b601e8203610913577f1f3c6fd858e9a7d4b0d1f38e256a09d81d5a5e3c963987e2d4b814cfab7c6ebb60001b9050610981565b601f8203610946577f2c7a07d20dff79d01fecedc1134284a8d08436606c93693b67e333f671bf69cc60001b9050610981565b6040517f08c379a000000000000000000000000000000000000000000000000000000000815260040161097890610d01565b60405180910390fd5b919050565b600080fd5b600063ffffffff82169050919050565b6109a48161098b565b81146109af57600080fd5b50565b6000815190506109c18161099b565b92915050565b600073ffffffffffffffffffffffffffffffffffffffff82169050919050565b60006109f2826109c7565b9050919050565b610a02816109e7565b8114610a0d57600080fd5b50565b600081519050610a1f816109f9565b92915050565b6000610a30826109e7565b9050919050565b610a4081610a25565b8114610a4b57600080fd5b50565b600081519050610a5d81610a37565b92915050565b600080600060608486031215610a7c57610a7b610986565b5b6000610a8a868287016109b2565b9350506020610a9b86828701610a10565b9250506040610aac86828701610a4e565b9150509250925092565b600082825260208201905092915050565b7f5f6c6576656c732073686f756c642062652067726561746572207468616e207a60008201527f65726f0000000000000000000000000000000000000000000000000000000000602082015250565b6000610b23602383610ab6565b9150610b2e82610ac7565b604082019050919050565b60006020820190508181036000830152610b5281610b16565b9050919050565b7f5f6c6576656c732073686f756c64206265206c657373207468616e2033320000600082015250565b6000610b8f601e83610ab6565b9150610b9a82610b59565b602082019050919050565b60006020820190508181036000830152610bbe81610b82565b9050919050565b7f6861736865724164647200000000000000000000000000000000000000000000600082015250565b6000610bfb600a83610ab6565b9150610c0682610bc5565b602082019050919050565b610c1a816109e7565b82525050565b60006040820190508181036000830152610c3981610bee565b9050610c486020830184610c11565b92915050565b7f4e487b7100000000000000000000000000000000000000000000000000000000600052601160045260246000fd5b6000610c888261098b565b9150610c938361098b565b9250828203905063ffffffff811115610caf57610cae610c4e565b5b92915050565b7f496e646578206f7574206f6620626f756e647300000000000000000000000000600082015250565b6000610ceb601383610ab6565b9150610cf682610cb5565b602082019050919050565b60006020820190508181036000830152610d1a81610cde565b9050919050565b60805160a0516114a5610d4660003960006103ae01526000610e7501526114a56000f3fe608060405234801561001057600080fd5b506004361061010b5760003560e01c8063ba70f757116100a2578063e829558811610071578063e8295588146102d2578063ec73295914610302578063ed33639f14610320578063f178e47c1461033e578063fc7e9c6f1461036e5761010b565b8063ba70f75714610248578063c2b40ae414610266578063cd87a3b414610296578063dcf5443f146102b45761010b565b80635bb93995116100de5780635bb939951461019a5780636d9833e3146101ca578063839df945146101fa57806390eeb02b1461022a5761010b565b80632997e86b146101105780632b7ac3f314610140578063414a37ba1461015e5780634ecf518b1461017c575b600080fd5b61012a60048036038101906101259190610f00565b61038c565b6040516101379190610f48565b60405180910390f35b6101486103ac565b6040516101559190610fe2565b60405180910390f35b6101666103d0565b6040516101739190611016565b60405180910390f35b6101846103f4565b6040516101919190611050565b60405180910390f35b6101b460048036038101906101af9190611097565b610408565b6040516101c191906110e6565b60405180910390f35b6101e460048036038101906101df9190610f00565b610667565b6040516101f19190610f48565b60405180910390f35b610214600480360381019061020f9190610f00565b610704565b6040516102219190610f48565b60405180910390f35b610232610724565b60405161023f9190611050565b60405180910390f35b61025061073a565b60405161025d91906110e6565b60405180910390f35b610280600480360381019061027b9190611101565b61076d565b60405161028d91906110e6565b60405180910390f35b61029e610785565b6040516102ab9190611050565b60405180910390f35b6102bc61078a565b6040516102c9919061114f565b60405180910390f35b6102ec60048036038101906102e79190611101565b6107b0565b6040516102f991906110e6565b60405180910390f35b61030a610e4f565b6040516103179190611016565b60405180910390f35b610328610e73565b604051610335919061118b565b60405180910390f35b61035860048036038101906103539190611101565b610e97565b60405161036591906110e6565b60405180910390f35b610376610eaf565b6040516103839190611050565b60405180910390f35b60046020528060005260406000206000915054906101000a900460ff1681565b7f000000000000000000000000000000000000000000000000000000000000000081565b7f30644e72e131a029b85045b68181585d2833e84879b9709143e1f593f000000181565b60008054906101000a900463ffffffff1681565b60007f30644e72e131a029b85045b68181585d2833e84879b9709143e1f593f0000001831061046c576040517f08c379a000000000000000000000000000000000000000000000000000000000815260040161046390611203565b60405180910390fd5b7f30644e72e131a029b85045b68181585d2833e84879b9709143e1f593f000000182106104ce576040517f08c379a00000000000000000000000000000000000000000000000000000000081526004016104c590611295565b60405180910390fd5b60008390506000600360089054906101000a900473ffffffffffffffffffffffffffffffffffffffff1673ffffffffffffffffffffffffffffffffffffffff16633f1a1187838360006040518463ffffffff1660e01b8152600401610535939291906112f0565b6040805180830381865afa158015610551573d6000803e3d6000fd5b505050506040513d601f19601f82011682018060405250810190610575919061133c565b80925081935050507f30644e72e131a029b85045b68181585d2833e84879b9709143e1f593f0000001806105ac576105ab61137c565b5b8483089150600360089054906101000a900473ffffffffffffffffffffffffffffffffffffffff1673ffffffffffffffffffffffffffffffffffffffff16633f1a1187838360006040518463ffffffff1660e01b8152600401610611939291906112f0565b6040805180830381865afa15801561062d573d6000803e3d6000fd5b505050506040513d601f19601f82011682018060405250810190610651919061133c565b80925081935050508160001b9250505092915050565b60008060001b820361067c57600090506106ff565b6000600360009054906101000a900463ffffffff16905060008190505b600260008263ffffffff1681526020019081526020016000205484036106c4576001925050506106ff565b60008163ffffffff16036106d757601e90505b80806106e2906113da565b9150508163ffffffff168163ffffffff1603610699576000925050505b919050565b60056020528060005260406000206000915054906101000a900460ff1681565b600360009054906101000a900463ffffffff1681565b600060026000600360009054906101000a900463ffffffff1663ffffffff16815260200190815260200160002054905090565b60026020528060005260406000206000915090505481565b601e81565b600360089054906101000a900473ffffffffffffffffffffffffffffffffffffffff1681565b60008082036107e4577f2fe54c60d3acabf3343a35b6eba15db4821b340f76e741e2249685ed4899af6c60001b9050610e4a565b60018203610817577f256a6135777eee2fd26f54b8b7037a25439d5235caee224154186d2b8a52e31d60001b9050610e4a565b6002820361084a577f1151949895e82ab19924de92c40a3d6f7bcb60d92b00504b8199613683f0c20060001b9050610e4a565b6003820361087d577f20121ee811489ff8d61f09fb89e313f14959a0f28bb428a20dba6b0b068b3bdb60001b9050610e4a565b600482036108b0577f0a89ca6ffa14cc462cfedb842c30ed221a50a3d6bf022a6a57dc82ab24c157c960001b9050610e4a565b600582036108e3577f24ca05c2b5cd42e890d6be94c68d0689f4f21c9cec9c0f13fe41d566dfb5495960001b9050610e4a565b60068203610916577f1ccb97c932565a92c60156bdba2d08f3bf1377464e025cee765679e604a7315c60001b9050610e4a565b60078203610949577f19156fbd7d1a8bf5cba8909367de1b624534ebab4f0f79e003bccdd1b182bdb460001b9050610e4a565b6008820361097c577f261af8c1f0912e465744641409f622d466c3920ac6e5ff37e36604cb11dfff8060001b9050610e4a565b600982036109ae577e58459724ff6ca5a1652fcbc3e82b93895cf08e975b19beab3f54c217d1c00760001b9050610e4a565b600a82036109e1577f1f04ef20dee48d39984d8eabe768a70eafa6310ad20849d4573c3c40c2ad1e3060001b9050610e4a565b600b8203610a14577f1bea3dec5dab51567ce7e200a30f7ba6d4276aeaa53e2686f962a46c66d511e560001b9050610e4a565b600c8203610a47577f0ee0f941e2da4b9e31c3ca97a40d8fa9ce68d97c084177071b3cb46cd3372f0f60001b9050610e4a565b600d8203610a7a577f1ca9503e8935884501bbaf20be14eb4c46b89772c97b96e3b2ebf3a36a948bbd60001b9050610e4a565b600e8203610aad577f133a80e30697cd55d8f7d4b0965b7be24057ba5dc3da898ee2187232446cb10860001b9050610e4a565b600f8203610ae0577f13e6d8fc88839ed76e182c2a779af5b2c0da9dd18c90427a644f7e148a6253b660001b9050610e4a565b60108203610b13577f1eb16b057a477f4bc8f572ea6bee39561098f78f15bfb3699dcbb7bd8db6185460001b9050610e4a565b60118203610b46577f0da2cb16a1ceaabf1c16b838f7a9e3f2a3a3088d9e0a6debaa748114620696ea60001b9050610e4a565b60128203610b79577f24a3b3d822420b14b5d8cb6c28a574f01e98ea9e940551d2ebd75cee12649f9d60001b9050610e4a565b60138203610bac577f198622acbd783d1b0d9064105b1fc8e4d8889de95c4c519b3f635809fe6afc0560001b9050610e4a565b60148203610bdf577f29d7ed391256ccc3ea596c86e933b89ff339d25ea8ddced975ae2fe30b5296d460001b9050610e4a565b60158203610c12577f19be59f2f0413ce78c0c3703a3a5451b1d7f39629fa33abd11548a76065b296760001b9050610e4a565b60168203610c45577f1ff3f61797e538b70e619310d33f2a063e7eb59104e112e95738da1254dc345360001b9050610e4a565b60178203610c78577f10c16ae9959cf8358980d9dd9616e48228737310a10e2b6b731c1a548f036c4860001b9050610e4a565b60188203610cab577f0ba433a63174a90ac20992e75e3095496812b652685b5e1a2eae0b1bf4e8fcd160001b9050610e4a565b60198203610cde577f019ddb9df2bc98d987d0dfeca9d2b643deafab8f7036562e627c3667266a044c60001b9050610e4a565b601a8203610d11577f2d3c88b23175c5a5565db928414c66d1912b11acf974b2e644caaac04739ce9960001b9050610e4a565b601b8203610d44577f2eab55f6ae4e66e32c5189eed5c470840863445760f5ed7e7b69b2a62600f35460001b9050610e4a565b601c8203610d76577e2df37a2642621802383cf952bf4dd1f32e05433beeb1fd41031fb7eace979d60001b9050610e4a565b601d8203610da9577f104aeb41435db66c3e62feccc1d6f5d98d0a0ed75d1374db457cf462e3a1f42760001b9050610e4a565b601e8203610ddc577f1f3c6fd858e9a7d4b0d1f38e256a09d81d5a5e3c963987e2d4b814cfab7c6ebb60001b9050610e4a565b601f8203610e0f577f2c7a07d20dff79d01fecedc1134284a8d08436606c93693b67e333f671bf69cc60001b9050610e4a565b6040517f08c379a0000000000000000000000000000000000000000000000000000000008152600401610e419061144f565b60405180910390fd5b919050565b7f2fe54c60d3acabf3343a35b6eba15db4821b340f76e741e2249685ed4899af6c81565b7f000000000000000000000000000000000000000000000000000000000000000081565b60016020528060005260406000206000915090505481565b600360049054906101000a900463ffffffff1681565b600080fd5b6000819050919050565b610edd81610eca565b8114610ee857600080fd5b50565b600081359050610efa81610ed4565b92915050565b600060208284031215610f1657610f15610ec5565b5b6000610f2484828501610eeb565b91505092915050565b60008115159050919050565b610f4281610f2d565b82525050565b6000602082019050610f5d6000830184610f39565b92915050565b600073ffffffffffffffffffffffffffffffffffffffff82169050919050565b6000819050919050565b6000610fa8610fa3610f9e84610f63565b610f83565b610f63565b9050919050565b6000610fba82610f8d565b9050919050565b6000610fcc82610faf565b9050919050565b610fdc81610fc1565b82525050565b6000602082019050610ff76000830184610fd3565b92915050565b6000819050919050565b61101081610ffd565b82525050565b600060208201905061102b6000830184611007565b92915050565b600063ffffffff82169050919050565b61104a81611031565b82525050565b60006020820190506110656000830184611041565b92915050565b61107481610ffd565b811461107f57600080fd5b50565b6000813590506110918161106b565b92915050565b600080604083850312156110ae576110ad610ec5565b5b60006110bc85828601611082565b92505060206110cd85828601611082565b9150509250929050565b6110e081610eca565b82525050565b60006020820190506110fb60008301846110d7565b92915050565b60006020828403121561111757611116610ec5565b5b600061112584828501611082565b91505092915050565b600061113982610f63565b9050919050565b6111498161112e565b82525050565b60006020820190506111646000830184611140565b92915050565b600061117582610faf565b9050919050565b6111858161116a565b82525050565b60006020820190506111a0600083018461117c565b92915050565b600082825260208201905092915050565b7f5f6c6566742073686f756c6420626520696e7369646520746865206669656c64600082015250565b60006111ed6020836111a6565b91506111f8826111b7565b602082019050919050565b6000602082019050818103600083015261121c816111e0565b9050919050565b7f5f72696768742073686f756c6420626520696e7369646520746865206669656c60008201527f6400000000000000000000000000000000000000000000000000000000000000602082015250565b600061127f6021836111a6565b915061128a82611223565b604082019050919050565b600060208201905081810360008301526112ae81611272565b9050919050565b6000819050919050565b60006112da6112d56112d0846112b5565b610f83565b610ffd565b9050919050565b6112ea816112bf565b82525050565b60006060820190506113056000830186611007565b6113126020830185611007565b61131f60408301846112e1565b949350505050565b6000815190506113368161106b565b92915050565b6000806040838503121561135357611352610ec5565b5b600061136185828601611327565b925050602061137285828601611327565b9150509250929050565b7f4e487b7100000000000000000000000000000000000000000000000000000000600052601260045260246000fd5b7f4e487b7100000000000000000000000000000000000000000000000000000000600052601160045260246000fd5b60006113e582611031565b9150600082036113f8576113f76113ab565b5b600182039050919050565b7f496e646578206f7574206f6620626f756e647300000000000000000000000000600082015250565b60006114396013836111a6565b915061144482611403565b602082019050919050565b600060208201905081810360008301526114688161142c565b905091905056fea2646970667358221220a6a927a4540a5c48860e394486431e468c6b6ad2d9ed50a0fe5faa670c7b477864736f6c634300081b0033",
  "linkReferences": {},
  "deployedLinkReferences": {}
}