{
  "_format": "hh-sol-artifact-1",
  "contractName": "Utils",
  "sourceName": "contracts/Utils.sol",
  "abi": [
    {
      "inputs": [
        {
          "internalType": "uint256[]",
          "name": "arr",
          "type": "uint256[]"
        },
        {
          "internalType": "uint256",
          "name": "target",
          "type": "uint256"
        }
      ],
      "name": "IsInArray",
      "outputs": [
        {
          "internalType": "uint256",
          "name": "",
          "type": "uint256"
        },
        {
          "internalType": "bool",
          "name": "",
          "type": "bool"
        }
      ],
      "stateMutability": "pure",
      "type": "function"
    }
  ],
  "bytecode": "0x61037c610052600b82828239805160001a6073146045577f4e487b7100000000000000000000000000000000000000000000000000000000600052600060045260246000fd5b30600052607381538281f3fe73000000000000000000000000000000000000000030146080604052600436106100355760003560e01c80639ed1682f1461003a575b600080fd5b610054600480360381019061004f9190610268565b61006b565b6040516100629291906102ee565b60405180910390f35b60008060005b84518110156100b5578385828151811061008e5761008d610317565b5b6020026020010151036100a85780600192509250506100be565b8080600101915050610071565b50600080915091505b9250929050565b6000604051905090565b600080fd5b600080fd5b600080fd5b6000601f19601f8301169050919050565b7f4e487b7100000000000000000000000000000000000000000000000000000000600052604160045260246000fd5b610127826100de565b810181811067ffffffffffffffff82111715610146576101456100ef565b5b80604052505050565b60006101596100c5565b9050610165828261011e565b919050565b600067ffffffffffffffff821115610185576101846100ef565b5b602082029050602081019050919050565b600080fd5b6000819050919050565b6101ae8161019b565b81146101b957600080fd5b50565b6000813590506101cb816101a5565b92915050565b60006101e46101df8461016a565b61014f565b9050808382526020820190506020840283018581111561020757610206610196565b5b835b81811015610230578061021c88826101bc565b845260208401935050602081019050610209565b5050509392505050565b600082601f83011261024f5761024e6100d9565b5b813561025f8482602086016101d1565b91505092915050565b6000806040838503121561027f5761027e6100cf565b5b600083013567ffffffffffffffff81111561029d5761029c6100d4565b5b6102a98582860161023a565b92505060206102ba858286016101bc565b9150509250929050565b6102cd8161019b565b82525050565b60008115159050919050565b6102e8816102d3565b82525050565b600060408201905061030360008301856102c4565b61031060208301846102df565b9392505050565b7f4e487b7100000000000000000000000000000000000000000000000000000000600052603260045260246000fdfea2646970667358221220ccb706d5c9092b42ab0465805e767803bcd6c5c1168a66d667c5e885a99e09be64736f6c634300081b0033",
  "linkReferences": {},
  "deployedLinkReferences": {}
}